:020000040800F2
:1000000090050020C50000081D120008F51000082A
:1000100000000000000000000000000000000000E0
:10002000000000000000000000000000671200084F
:1000300000000000000000006512000869120008BE
:10004000D700000800000000D7000008D700000813
:10005000D7000008D7000008D7000008D700000824
:1000600000000000D7000008D70000085501000874
:10007000D7000008D7000008D700000800000000E3
:10008000151300080000000000000000D700000861
:1000900000000000D7000008D7000008D7000008C3
:1000A00000000000D700000800000000D700000892
:1000B0000348854600F03CF800480047A1160008B8
:1000C000900500200448804704480047FEE7FEE70B
:1000D000FEE7FEE7FEE7FEE7B9120008B100000800
:1000E00030B50B46014600202022012409E00D46D0
:1000F000D5409D4205D31D469540491B2546954058
:1001000040191546521E002DF1DC30BDD2B201E07F
:100110000270401C491EFBD270470022F6E710B562
:1001200013460A4604461946FFF7F0FF204610BD65
:10013000064C0125064E05E0E36807CC2B430C3C3A
:1001400098471034B442F7D3FFF7B6FF38180008C9
:100150005818000810B5024800F02BF810BD000038
:100160005800002010B504460068054940181421C5
:10017000FFF7B6FF800020640248E06310BD000076
:10018000F8FFFDBF0000024030B5056C0124AC4013
:10019000C56B6C60046863604368102B036803D010
:1001A00099600068C26030BD9A600068C16030BD6F
:1001B0007047F0B4C16B0D6801680C680422066CCE
:1001C0001346B3402B420DD063070BD50B689B063B
:1001D00002D40B6893430B60016C8A40C16B4A6088
:1001E000C16A19E00227B74002462F40012320329E
:1001F000002F15D0A70713D50C68A40604D40C68EB
:100200000A25AC430C605370036C02219940C36B08
:10021000596000211170816A002916D0F0BC08478E
:100220000827B7402F4210D024070ED50C680E25A2
:10023000AC430C60046C1946A140C46B61608363DD
:10024000537000211170016BE6E7F0BC70470000AD
:1002500070B5040024D00220214620310D4648709C
:10026000226811680F48A368014060682669184336
:10027000E3683343184363691843A3691843E36988
:100280001843084310602046FFF76CFF0020A0626F
:10029000E06220636063A06301216970287070BD13
:1002A000012070BD0FC0FFFFF8B504468C4620301A
:1002B00001780025012909D0012606704178002720
:1002C000012905D0077002252846F8BD0220F8BD97
:1002D00002214170A7632068016849084900016054
:1002E00061462046FFF750FFE06A00282068016859
:1002F00002D00E22114306E00A2211430160206859
:100300000168042291430160206801683143016063
:10031000DAE731B500F0B6F8009C0546601C00D065
:10032000641C00F0AFF8401BA042FAD338BD0000B7
:10033000F8B500238DE001249C40A44622407DD0E6
:100340004C68022C01D0122C0CD1DC08A400271818
:100350003C6A5D07ED0E0F26AE40B4430E69AE4019
:1003600026433E6205685E000324B4400F79A5432E
:10037000BF07BF0FB7402F4307604D68012D05D061
:10038000022D03D0112D01D0122D0ED18568CF681A
:10039000A543B7402F43876047686546AF430D7953
:1003A000ED06ED0F9D403D434560C568A5438C6853
:1003B000B4402C43C4604C68E40049D5284CA5697E
:1003C00001263543A561A4699D0834400094254C5D
:1003D000AD002F19BC689D072E0F0F25B540AC430B
:1003E0000925ED06A84201D100250FE01E4DA842C7
:1003F00001D101250AE01D4DA84201D1022505E0E9
:100400001B4DA84201D1032500E00525B540254339
:10041000BD60184C25684E689543F60300D515431A
:10042000256065684E689543B60300D51543656041
:10043000A5684E689543F60202D500E008E0154332
:10044000A560E5684E689543B60200D51543E560A2
:100450005B1C0A681446DC4000D06CE7F8BD000065
:10046000001002400000014000040048000800485D
:10047000000C004800040140002A01D0816170474F
:10048000816270470148006870470000100000203A
:1004900002480168491C01607047000010000020FC
:1004A00010B506480168102211430160002000F0D9
:1004B00007F800F017F8002010BD000000200240EF
:1004C00010B5044600F0C6F87D21C900FFF708FE0C
:1004D00000F0ACFA00222146501E00F021F8002066
:1004E00010BD000008B508488169012211438161EF
:1004F000816911400091C26901040A43C261C06967
:100500000840009008BD000000100240C106C90E5E
:1005100001208840014908607047000000E100E0C8
:1005200010B500F07DFE10BDF8B5054644480E46F6
:100530000068C007C00FB0420AD2414801684908AC
:100540004900314301600068C007C00FB0425CD170
:1005500028783C4C800705D56068F0218843A9685D
:10056000084360602878C0073FD06868012813D02E
:100570002168022813D08907002946DA61688908B2
:10058000890001436160FFF77DFF69680746012923
:100590000DD0022917D024E021688903ECE78901F6
:1005A000EAE7FFF76FFFC11B2748814217D8606851
:1005B0000007800F0128F4D117E0FFF763FFC11B8C
:1005C000214881420BD860680007800F0228F4D1CF
:1005D0000BE0FFF757FFC11B1B48814201D90320E5
:1005E000F8BD60680007800FF3D115480168C9079E
:1005F000C90FB1420BD90168490849003143016074
:100600000068C007C00FB04201D00120F8BD2878B3
:10061000400706D56068072109028843E968084356
:10062000606000F01DF86168084A0906090F515C16
:10063000C840074908600020FFF742FF0020F8BDCE
:100640000020024000100240881300002818000813
:1006500014000020014800687047000014000020CA
:1006600010B512A30FCB88B06C460FC413A30FCBE9
:100670000FC416494A680C20134603401448042B43
:100680000FD0082B0DD193021B0F6C46E45CC96A96
:1006900004AB0907090F595CD20304D5FFF720FD0D
:1006A000604308B010BD0B486043FAE7020304053D
:1006B000060708090A0B0C0D0E0F101001020304A7
:1006C00005060708090A0B0C0D0E0F10001002405A
:1006D00000127A0000093D00FEB504460078D04DB6
:1006E000C00747D068680007800F012807D06868F6
:1006F0000007800F022809D16868C00306D5286862
:10070000800337D5606800287ED033E0012062681E
:100710000004012A11D08100002A01D0052A10D03E
:100720002A6882432A602868884328606068002815
:1007300014D0FFF7A7FE06460CE0296801432960A4
:10074000F4E72A680A432A60F7E7FFF79BFE801B5D
:1007500064286FD828688003F7D50BE0FFF792FE76
:10076000064604E0FFF78EFE801B6428F1D8286857
:100770008003F7D420780126800700283BDA6868D8
:100780000007800F07D068680007800F022809D192
:100790006868C00306D42868800715D5E06801287A
:1007A00032D111E0E0680028286815D03043286075
:1007B000FFF768FE074604E0FFF764FEC01B02284F
:1007C000C7D828688007F7D52868F82188432169A9
:1007D000C900084328600EE0400840002860FFF789
:1007E00051FE074604E0FFF74DFEC01B0228B0D8BB
:1007F00028688007F7D42078000724D5E06900280E
:10080000686A10D0304300E008E16862FFF73AFE02
:10081000074604E0FFF736FEC01B022899D8686A35
:100820008007F7D50FE0400840006862FFF72AFE16
:10083000074605E09DE0FFF725FEC01B022888D88B
:10084000686A8007F7D4207804274007002860DA18
:1008500000200190E869C00008D4E969B8060143A6
:10086000E961E96901400120009101906D4801684A
:10087000C90511D40168821511430160FFF702FE1A
:10088000009005E0FFF7FEFD0099401A642870D83B
:1008900064480068C005F5D5A06801280AD0002882
:1008A00001D0052810D0286A400840002862286A34
:1008B000B84301E0286A30432862A068002812D0BB
:1008C000FFF7E0FD00900AE0286A38432862F1E76C
:1008D000FFF7D8FD0099411A5348814249D8286A48
:1008E0008007F5D50DE0FFF7CDFD009006E0FFF79E
:1008F000C9FD0099411A4C4881423AD8286A8007BC
:10090000F5D40198002804D0E9690120000781434B
:10091000E9612078C00635D5606901280CD0401DFA
:10092000686B23D038436863686B40084000686395
:10093000FFF7A8FD064622E0686B38436863686BE2
:1009400030436863FFF79EFD064604E0FFF79AFD1B
:10095000801B02285BD8686B8007F7D5686BF8218D
:100960008843A169C900084368630BE0B843686322
:10097000F4E74CE0FFF786FD801B022847D8686B40
:100980008007F7D4206A002846D069680907890FD4
:10099000022943D0012636060228286805D0B04334
:1009A0002860FFF76FFD044633E0B0432860FFF78F
:1009B00069FD074604E0FFF765FDC01B022826D845
:1009C00028688001F7D4E86AE16A00090001084359
:1009D000E862616AA06A084369683D221204914393
:1009E00008436860286830432860FFF74BFD0446E1
:1009F00004E0FFF747FD001B022808D828688001A3
:100A0000F7D509E0FFF73EFD001B022801D90320BE
:100A1000FEBD28688001F5D40020FEBD0120FEBD8A
:100A2000001002400070004088130000094910B512
:100A3000401E884201D9012010BD074C606103218E
:100A4000081F00F0EDFB0020A061072020610020BE
:100A500010BD0000FFFFFF0000E000E0704770479E
:100A600070B502462032137F012B1BD00123137770
:100A700002245477046865687026B543656004688D
:100A800065680E68354365600468A5688026B543CF
:100A9000A5600068846849680C438460537700202F
:100AA000107770BD022070BD70B5040005D02546DA
:100AB0002035687F002802D006E0012070BD0020AC
:100AC0002877204600F00AF802206877211D206868
:100AD00000F028FC01206877002070BD38B505467D
:100AE00000681B49884231D11A48C26902210A4371
:100AF000C261C069194C084000901748206010205E
:100B000060608021E1600020A06049002161606197
:100B10002020A06103200003E0612046FFF798FB3E
:100B2000002801D0FFF744FB6C62AC630022114641
:100B300010206562FFF7F4FC1020FFF7E7FC08487F
:100B4000E0622068016804221143016038BD0000A2
:100B50000004004000100240440002405800002001
:100B60007D170008F8B5054604462035287F012882
:100B700017D001272F7702206877226890687726A0
:100B8000FF23B0431B02984390600868502837D079
:100B90000EDC202857D006DC00284ED0102840D18B
:100BA0004EE00220F8BD302850D0402839D13CE03A
:100BB00060282DD0702817D001221203801A0ED081
:100BC00090422ED1CB684A688968206800F018FCF2
:100BD00020688168012292031143816021E020682E
:100BE0008168C908C900F8E7CB684A688968206845
:100BF00000F006FC21688868B0433043886010E04C
:100C0000CA684968206800F0F1FC5021206806E0BD
:100C1000CA684968206800F0FAFC6021206800F08A
:100C2000FAFB6F7700202877F8BDCA68496820680A
:100C300000F0DCFC40212068F1E700212068EEE7AD
:100C400010212068EBE720212068E8E730212068A8
:100C5000E5E77047704770B50446006801690025F4
:100C6000C9438907002915DBC168C943890711D425
:100C7000E91E0161012020772068806980072046F5
:100C800002D0FFF7E7FF04E000F0BEF8204600F0D6
:100C90003FF9257720680169C943490717D4C1681E
:100CA000C943490713D40421C943016102202077B5
:100CB000206880698005800F204602D0FFF7CAFFB8
:100CC00004E000F0A1F8204600F022F92577206822
:100CD0000169C943090716D4C168C943090712D479
:100CE0000821C9430161042020772068C06980077A
:100CF000204602D0FFF7AEFF04E000F085F8204662
:100D000000F006F9257720680169C943C90617D4A0
:100D1000C168C943C90613D41021C9430161082021
:100D200020772068C0698005800F204602D0FFF739
:100D300091FF04E000F068F8204600F0E9F825771C
:100D400020680169C943C90708D1C168C943C907F7
:100D500004D1891E0161204600F0CAF920680169AA
:100D6000C943090609D4C168C943090605D48021CD
:100D7000C94301612046FFF771FE20680169C9433C
:100D8000490609D4C168C943490605D44021C9436D
:100D90000161204600F0ADF920680169C943890668
:100DA00009D4C168C943890605D42021C94301611A
:100DB0002046FFF754FE70BD10B586B004461421DE
:100DC0006846FFF7AAF90E492068884215D10D48F8
:100DD000426949130A434261406908400590402036
:100DE00000900220019002900320039001200490C3
:100DF00009206946C006FFF79BFA06B010BD000047
:100E000000040040001002407047F8B50646044652
:100E10002036307F0D4601280DD00120307702208A
:100E200070770427002A08D0042A16D0082A2AD06E
:100E30000C2A4DD137E00220F8BD206800F0F4FA0A
:100E40002068816908221143816120688169B94362
:100E50008161206881692A6912E0206800F020FB26
:100E6000206882690121C9020A4382612068816980
:100E70000122920291438161206881692A691202EC
:100E80001143816124E0206800F044FB2068C269BE
:100E900008210A43C2612068C169B943C161206861
:100EA000C1692A6912E0206800F070FB2068C169FE
:100EB0000122D2021143C1612068C2690121890265
:100EC0008A43C2612068C1692A6912021143C16163
:100ED0000120707700203077F8BD70B5040005D090
:100EE00025462035687F002802D006E0012070BD2D
:100EF00000202877204600F00AF802206877211D9C
:100F0000206800F00FFA01206877002070BD70475C
:100F10000B4910B588420BD10A4C6078022808D0E2
:100F2000012000F097FBA068402801D102206070EA
:100F300010BD0021024800F08BF80020F7E7000008
:100F4000180000200400002070B504460E46203032
:100F5000417F1546022903D0417F012902D009E0D3
:100F6000022070BD002D03D1002B01D0012070BDE7
:100F70000221417731483249002E06D0042E13D089
:100F8000082E3CD00C2E1FD148E0626A9062606A45
:100F90000163226829463432606AFFF785F92068C8
:100FA000C168012252020DE0A26A9062A06A016348
:100FB000226829463832A06AFFF776F92068C168AE
:100FC000012292021143C16001223146206800F0E3
:100FD000E5F91C492068884205D01B49884202D0A7
:100FE0001A49884204D1416C0122D2031143416461
:100FF00020680168012211430160002070BDE26A8F
:101000009062E06A0163226829463C32E06AFFF799
:101010004BF92068C1680122D202D3E7226B9062AB
:10102000206B0163226829464032206BFFF73CF9B0
:101030002068C16801221203C4E70000B31300084E
:10104000F1130008002C0140004401400048014019
:1010500030B502680446002906D0042908D00829C2
:1010600036D00C2909D137E0D06801235B0202E0B9
:10107000D06801239B029843D0600022206800F0D2
:101080008DF9184A164B20689110984205D0164BDE
:10109000984202D0154B98420AD1036A134207D1F5
:1010A000036A0B4204D1436C0125ED03AB43436457
:1010B0002068036A134206D1026A0A4203D101681A
:1010C000490849000160012020346077002030BDCC
:1010D000D0680123DB02CEE7D06801231B03CAE7F7
:1010E000002C014011110000004401400048014063
:1010F00070477047FEE7000008B5084841690122C3
:1011000011434161406910400022009011460B20BC
:10111000FFF706FA0B20FFF7F9F908BD00100240AF
:1011200010B586B014216846FEF7F7FF12484269F1
:10113000012189050A43426142690A4005924269D8
:1011400049110A434261406909240840E4060590B8
:10115000012210212046FFF78FF910200090012076
:101160000190002002900320039069462046FFF77B
:10117000DFF806B010BD00000010024010B58EB0C0
:1011800000240794089409940A940B941C2168463F
:101190000C94FEF7C2FF1F491F4812C00460846010
:1011A0003B21046141600838FFF77EFC002801D034
:1011B000FEF7FEFF01200003079007A91648FFF77E
:1011C000D1FC002801D0FEF7F3FF1348FFF785FE9E
:1011D000002801D0FEF7ECFF0B940BA90E480C94ED
:1011E000FFF73EFC002801D0FEF7E2FF60200090F0
:1011F000019402940022694604940748FFF705FE13
:10120000002801D0FEF7D4FF0348FFF7D5FD0EB04C
:1012100010BD0000000400401800002070470000CE
:101220008307FF22DB0E9A408907090E99400028A8
:101230000BDA0007000F0838830808489B001818CD
:10124000C36993430B43C3617047830804489B0001
:101250001B181868904308431860704700ED00E0C1
:1012600000E400E07047704710B5FFF711F910BDBA
:1012700030B591B030216846FEF74FFF00240120C1
:10128000009001900E94000409900F9400010D94B9
:1012900002250A900C9408950B946846FFF71CFAF7
:1012A00007200C900E9401210D950F940CA8FFF7C8
:1012B0003BF911B030BD0000134801680122114311
:1012C00001604168114A114041600168104A1140B3
:1012D00001600168012292049143016041683F224C
:1012E000120491434160C16A09090901C162016B9D
:1012F000FF22143291430163416B49084900416365
:101300000021816070470000001002400CB8FF0807
:10131000FFFFF6FE10B50248FFF79DFC10BD000070
:101320001800002070B50268174B184E984201D083
:10133000B04203D17024A2434C682243144C154D93
:10134000984208D0B04206D0134EB04203D0A0421B
:1013500001D0A84204D103263602B243CE683243FC
:101360008026B2434E69324302608A68C2620A68CC
:101370008262984203D0A04201D0A84201D10969FB
:1013800001630121416170BD002C01400004004057
:1013900000440140004801400020004010B50123F6
:1013A000046A8B409C430462036A8A4013430362CD
:1013B00010BD10B5446A01213D221155626A824276
:1013C00001D121770EE0A16A814201D1022008E01B
:1013D000E16A814201D1042003E0216B814201D105
:1013E000082020772046FFF793FD0020207710BDCE
:1013F00010B5406A01223D210A54FFF72AFC10BDB6
:1014000030B58468FF252D021B021343AC430B4308
:101410002343836030BD826870239A430A430721C7
:101420000A43826070470000F0B5026A5208520019
:101430000262056A436882697024A24392080C68BC
:1014400092001443022295438A68134E2A43114D99
:10145000A84204D0B04202D0104FB84206D10827AB
:10146000BA43CF681743042297433A46A84204D0B0
:10147000B04202D0094DA84206D103252D02AB434C
:101480004D691D438B692B43436084614968416307
:101490000262F0BD002C01400044014000480140C0
:1014A00070B5026A10239A430262046A4368826933
:1014B00073252D02AA430D682D0215432022944363
:1014C0008A6812012243104CA04208D11446CA680F
:1014D0008026B443120122434024A24305E00B4C72
:1014E000A04202D00A4CA04208D10324A402A34384
:1014F0004C69A4001C438B699B00234343608561B6
:1015000049688163026270BD002C014000440140C3
:101510000048014070B5026AFF2301339A4302621A
:10152000046A4368C2697025AA4392080D68920054
:1015300015430122520294438A6812022243104C3E
:10154000A04207D1C414A243CC682402224306154A
:10155000B24305E00B4CA04202D00B4CA04208D194
:1015600003242403A3434C6924011C438B691B01FE
:1015700023434360C5614968C163026270BD0000D6
:10158000002C0140004401400048014030B5026A8F
:1015900001231B039A430262056A4268C3697324EC
:1015A0002402A3430C6824021C4301235B039D43D4
:1015B0008B681B032B430A4DA84205D0094DA84256
:1015C00002D0094DA84205D10125AD03AA434D69BA
:1015D000AD012A434260C46149680164036230BDC1
:1015E000002C0140004401400048014030B5036A2E
:1015F000046A6408640004628469F025AC43120143
:1016000022430A24A3430B438261036230BD30B5F9
:10161000036A1024A34303628469036A0F252D0320
:101620001203AC432243A024A3430901194382615E
:10163000016230BD02E008C8121F08C1002AFAD1B9
:1016400070477047002001E001C1121F002AFBD142
:101650007047000070B5060001D0022500E00125AA
:101660000D4C01E000F054F86068A84202D2A06876
:101670004028F7D36268AA4207D2A91A182041432A
:10168000424306481018FEF748FD002E02D0002005
:10169000606070BD0120FBE7040000205C010020B9
:1016A00008B5FEF7FDFEFFF7E3FDFFF739FDFFF795
:1016B00023FDFFF763FD154C2078002802D0A178A8
:1016C000002908D0617800290BD0491E6170A078EC
:1016D000401CA0700CE0401E20706078401C6070C0
:1016E00006E0A178002903D0491EA170401C20709B
:1016F000A0780090637822784021002000F04EF816
:1017000000F072F80A20FEF704FED5E70000002082
:10171000F0B5184818214368174A594385688C1852
:10172000680011462818C0394218002007210F1AF6
:1017300056780121B9400E4201D0282600E0142637
:10174000265416780E4201D0282700E014272618C8
:10175000377297780F4201D0282100E01421401CF5
:10176000C0B231740828E1D302485B1C6D1C85604F
:101770004360F0BD040000205C010020054910B565
:10178000884206D104484078022802D00020FFF7A2
:1017900061FF10BD5800002004000020F0B51D4678
:1017A00016460446471808E0402C08D22A4631461F
:1017B0002046059B00F004F8641CA742F4D8F0BD55
:1017C00010B540280AD2064C2478002C06D04400DC
:1017D0000019044C001901704270837010BD0000A4
:1017E000040000209C00002010B50C4C60780028FC
:1017F00012D10120607030210948FEF78EFC0220D2
:1018000060600020A0600120FFF724FF3023044A1D
:1018100000210448FFF798FB10BD000004000020E1
:101820005C01002018000020000000000000000003
:1018300001020304060708095818000800000020E8
:101840001800000034160008701800081800002066
:101850007805000044160008FF000000FF000000AB
:1018600000000000000000000000000000127A00EC
:04000005080000B13E
:00000001FF
