:020000040800F2
:10000000C8080020C5000008091B0008E516000804
:1000100000000000000000000000000000000000E0
:10002000000000000000000000000000531B00085A
:100030000000000000000000511B0008551B0008D4
:10004000D700000800000000D7000008D700000813
:10005000D7000008D5010008D700000839020008C1
:1000600000000000D7000008D70000087901000850
:10007000D7000008D7000008D700000800000000E3
:10008000011C00080000000000000000D70000086C
:1000900000000000D7000008D7000008D7000008C3
:1000A00000000000D700000800000000D700000892
:1000B0000348854600F04EF80048004789210008B3
:1000C000C80800200448804704480047FEE7FEE7D0
:1000D000FEE7FEE7FEE7FEE7A51B0008B10000080B
:1000E00030B50B46014600202022012409E00D46D0
:1000F000D5409D4205D31D469540491B2546954058
:1001000040191546521E002DF1DC30BD03460B434D
:100110009B0703D009E008C9121F08C0042AFAD2BD
:1001200003E00B780370401C491C521EF9D2704743
:10013000D2B201E00270401C491EFBD2704700227F
:10014000F6E710B513460A4604461946FFF7F0FFD6
:10015000204610BD064C0125064E05E0E36807CC9D
:100160002B430C3C98471034B442F7D3FFF7A4FF5D
:10017000102600083026000810B5024800F0A1F84B
:1001800010BD00003801002010B504460068054984
:1001900040181421FFF7A4FF800020640248E063A8
:1001A00010BD0000F8FFFDBF0000024030B5056C37
:1001B0000124AC40C56B6C60046863604368102B1D
:1001C000036803D099600068C26030BD9A6000681F
:1001D000C16030BD70B5154C6069154D154EC00736
:1001E0000FD02878002803D0002001F0B3FE04E0EF
:1001F0003078002801D002F02DF80120606100F075
:1002000089F9606980070FD52878002803D002207B
:1002100001F0A0FE04E03078002801D002F01AF8C6
:100220000220606100F076F970BD0000000401401A
:10023000110000201300002070B51E4C60691E4D97
:100240001E4E80060FD52878002803D0032001F029
:1002500081FE04E03078002801D001F0FBFF20206F
:10026000606100F057F9606900060FD52878002812
:1002700003D0012001F06EFE04E03078002801D0A8
:1002800001F0E8FF8020606100F044F960698005BA
:1002900006D501F09FFF01204002606100F03AF9AD
:1002A0006069400504D501208002606100F032F9E8
:1002B00070BD000000040140110000201300002068
:1002C0007047F0B4C16B0D6801680C680422066CBD
:1002D0001346B3402B420DD063070BD50B689B062A
:1002E00002D40B6893430B60016C8A40C16B4A6077
:1002F000C16A19E00227B74002462F40012320328D
:10030000002F15D0A70713D50C68A40604D40C68D9
:100310000A25AC430C605370036C02219940C36BF7
:10032000596000211170816A002916D0F0BC08477D
:100330000827B7402F4210D024070ED50C680E2591
:10034000AC430C60046C1946A140C46B61608363CC
:10035000537000211170016BE6E7F0BC704700009C
:1003600070B5040024D00220214620310D4648708B
:10037000226811680F48A368014060682669184325
:10038000E3683343184363691843A3691843E36977
:100390001843084310602046FFF7F6FE0020A062D5
:1003A000E06220636063A06301216970287070BD02
:1003B000012070BD0FC0FFFFF8B504468C46203009
:1003C00001780025012909D001260670417800270F
:1003D000012905D0077002252846F8BD0220F8BD86
:1003E00002214170A7632068016849084900016043
:1003F00061462046FFF7DAFEE06A002820680168BF
:1004000002D00E22114306E00A2211430160206847
:100410000168042291430160206801683143016052
:10042000DAE731B500F028F9009C0546601C00D0E1
:10043000641C00F021F9401BA042FAD338BD000033
:10044000F0B5002358E001229A4014460A4052D0E9
:1004500006685F000325BD40AE43AC460660DD087C
:10046000AD002D182E6AAE465D07EF0E0F25BD407C
:10047000AE4375462E6286686546AE438660456823
:10048000A5434560C4686546AC43C4609D081C4CE8
:10049000AD002D19AF689C07260F0F24B440A44669
:1004A0003C400927FF06B84201D100270FE0154F55
:1004B000B84201D101270AE0134FB84201D1022707
:1004C00005E0124FB84201D1032700E00527B740ED
:1004D000A74210D1AE686446A643AE600C4C2568B6
:1004E00095432560656895436560A5689543A5605B
:1004F000E5689543E5605B1C0A46DA40A3D1F0BD90
:10050000000001400004004800080048000C0048BA
:100510000004014070470000F8B500238DE001247D
:100520009C40A44622407DD04C68022C01D0122C65
:100530000CD1DC08A40027183C6A5D07ED0E0F26DD
:10054000AE40B4430E69AE4026433E6205685E008D
:100550000324B4400F79A543BF07BF0FB7402F4313
:1005600007604D68012D05D0022D03D0112D01D05B
:10057000122D0ED18568CF68A543B7402F43876001
:1005800047686546AF430D79ED06ED0F9D403D434D
:100590004560C568A5438C68B4402C43C4604C6872
:1005A000E40049D5284CA56901263543A561A46915
:1005B0009D0834400094254CAD002F19BC689D0760
:1005C0002E0F0F25B540AC430925ED06A84201D1F9
:1005D00000250FE01E4DA84201D101250AE01D4D66
:1005E000A84201D1022505E01B4DA84201D10325F7
:1005F00000E00525B5402543BD60184C25684E68D0
:100600009543F60300D51543256065684E6895430C
:10061000B60300D515436560A5684E689543F6029C
:1006200002D500E008E01543A560E5684E689543F3
:10063000B60200D51543E5605B1C0A681446DC4031
:1006400000D06CE7F8BD000000100240000001403F
:100650000004004800080048000C00480004014065
:100660000069084000D001207047002A01D0816154
:1006700070478162704700000148006870470000C1
:100680003000002070B5024640325378202B1CD138
:100690001378012B19D0012313702424547004689B
:1006A00025689D432560046825681E03B5432560C1
:1006B000046825680D4325600068016819430160DE
:1006C000202050700020107070BD022070BD70B5E9
:1006D000024640325378202B1BD11378012B18D0BF
:1006E000012414702423537003681D68A5431D6002
:1006F00005682B680F263602B343090219432960A7
:1007000000680168214301602020507000201070B3
:1007100070BD022070BD000070B5040006D02546F3
:10072000403568780026002802D005E0012070BD21
:100730002E70204600F04AF8242068702068016876
:100740004908490001600F21606809068843216853
:10075000086121688A680120C00382438A60E168D9
:100760000129A16808D021229202114322689160D8
:10077000E168022902D005E00143F7E70121226880
:10078000C902516021684A680F4B1A434A602168C8
:10079000CA688243CA60616920690843A169090285
:1007A00008432168C860216AE0690843216808603D
:1007B000206801680122114301606664202068708E
:1007C0002663AE70002070BD0080000210B586B0B8
:1007D000044614216846FFF7B2FC1349206888429A
:1007E00020D1124C616901204004014361616169BB
:1007F0000140032005914002009012200190012049
:100800000290032003900420049009206946C0064A
:10081000FFF782FEE169012040050143E161E169E2
:100820000140059106B010BD005400400010024088
:10083000FFB5054604464035687881B01646202845
:100840007ED10298002869D0002E67D02878012830
:100850007ED001202870FFF70FFF07462220687026
:100860002020A87000206064029961626685606340
:10087000206841680126F603B143416000970022D9
:1008800008212046049B00F079FF002804D020684E
:100890004168314341603EE021680820C86141035E
:1008A000009701222046049B00F068FF0028EED14B
:1008B00020E000F087FF0028206813D04168314312
:1008C000416020688169C943490707D4416A606A69
:1008D000421C62620170608D401E6085606C202841
:1008E00019D01BE0416A606A421C62620170608D2F
:1008F000401E6085608D049900283A462046D8D174
:1009000000F09CFF00280BD0206841683143416013
:10091000606C042802D0032005B0F0BD0120FBE785
:1009200021682020C8610097012231462046049B9F
:1009300000F024FF0028AAD120684168314300E07C
:1009400006E04160202068700020A8702870E3E76E
:100950000220E1E7FFB5054604464035687881B0DE
:100960001646202871D1029800284FD0002E4DD075
:100970002878012869D001202870FFF77DFE0746FE
:10098000212068702020A8700020606402996162B4
:1009900066856063206841680126F603B1434160C3
:1009A0000097002208212046049B00F0E7FE002863
:1009B00004D0206841683143416044E02168082048
:1009C000C861E06802280BD1009700220821204668
:1009D000049B00F0D3FE0028EBD121680820C861F9
:1009E00001210097002209042046049B00F0C6FE66
:1009F0000028DED116E000F048FF002809D020686A
:100A0000416831434160606C04281CD1012005B06D
:100A1000F0BD606A411C6162216800788862608D67
:100A2000401E6085608D049900283A462046E2D138
:100A300000F004FF00280BD020684168314341607A
:100A4000606C042802D00320E1E717E00020606416
:100A500021682020C8610097012231462046049B6E
:100A600000F08CFE0028A4D1206841683143416029
:100A7000202068700020A8702870C8E70220C6E710
:100A800002480168491C01607047000030000020E6
:100A900010B506480168102211430160002000F0E3
:100AA00007F800F017F8002010BD000000200240F9
:100AB00010B5044600F0C6F87D21C900FFF710FB11
:100AC00000F0ACFA00222146501E00F021F8002070
:100AD00010BD000008B508488169012211438161F9
:100AE000816911400091C26901040A43C261C06971
:100AF0000840009008BD000000100240C106C90E69
:100B000001208840014908607047000000E100E0D2
:100B100010B500F0FBFF10BDF8B5054644480E4681
:100B20000068C007C00FB0420AD2414801684908B6
:100B30004900314301600068C007C00FB0425CD17A
:100B400028783C4C800705D56068F0218843A96867
:100B5000084360602878C0073FD06868012813D038
:100B60002168022813D08907002946DA61688908BC
:100B7000890001436160FFF77FFD6968074601292D
:100B80000DD0022917D024E021688903ECE7890100
:100B9000EAE7FFF771FDC11B2748814217D860685B
:100BA0000007800F0128F4D117E0FFF765FDC11B96
:100BB000214881420BD860680007800F0228F4D1D9
:100BC0000BE0FFF759FDC11B1B48814201D90320EF
:100BD000F8BD60680007800FF3D115480168C907A8
:100BE000C90FB1420BD9016849084900314301607E
:100BF0000068C007C00FB04201D00120F8BD2878BE
:100C0000400706D56068072109028843E968084360
:100C1000606000F01DF86168084A0906090F515C20
:100C2000C840074908600020FFF742FF0020F8BDD8
:100C30000020024000100240881300000026000837
:100C40003400002001480068704700003400002094
:100C500010B512A30FCB88B06C460FC413A30FCBF3
:100C60000FC416494A680C20134603401448042B4D
:100C70000FD0082B0DD193021B0F6C46E45CC96AA0
:100C800004AB0907090F595CD20304D5FFF728FA12
:100C9000604308B010BD0B486043FAE70203040547
:100CA000060708090A0B0C0D0E0F101001020304B1
:100CB00005060708090A0B0C0D0E0F100010024064
:100CC00000127A0000093D00FEB504460078D04DC0
:100CD000C00747D068680007800F012807D0686800
:100CE0000007800F022809D16868C00306D528686C
:100CF000800337D5606800287ED033E00120626829
:100D00000004012A11D08100002A01D0052A10D048
:100D10002A6882432A60286888432860606800281F
:100D200014D0FFF7A9FC06460CE0296801432960AE
:100D3000F4E72A680A432A60F7E7FFF79DFC801B67
:100D400064286FD828688003F7D50BE0FFF794FC80
:100D5000064604E0FFF790FC801B6428F1D8286861
:100D60008003F7D420780126800700283BDA6868E2
:100D70000007800F07D068680007800F022809D19C
:100D80006868C00306D42868800715D5E068012884
:100D900032D111E0E0680028286815D0304328607F
:100DA000FFF76AFC074604E0FFF766FCC01B022859
:100DB000C7D828688007F7D52868F82188432169B3
:100DC000C900084328600EE0400840002860FFF793
:100DD00053FC074604E0FFF74FFCC01B0228B0D8C5
:100DE00028688007F7D42078000724D5E069002818
:100DF000686A10D0304300E008E16862FFF73CFC0D
:100E0000074604E0FFF738FCC01B022899D8686A3F
:100E10008007F7D50FE0400840006862FFF72CFC20
:100E2000074605E09DE0FFF727FCC01B022888D895
:100E3000686A8007F7D4207804274007002860DA22
:100E400000200190E869C00008D4E969B8060143B0
:100E5000E961E96901400120009101906D48016854
:100E6000C90511D40168821511430160FFF704FC24
:100E7000009005E0FFF700FC0099401A642870D844
:100E800064480068C005F5D5A06801280AD000288C
:100E900001D0052810D0286A400840002862286A3E
:100EA000B84301E0286A30432862A068002812D0C5
:100EB000FFF7E2FB00900AE0286A38432862F1E776
:100EC000FFF7DAFB0099411A5348814249D8286A52
:100ED0008007F5D50DE0FFF7CFFB009006E0FFF7A8
:100EE000CBFB0099411A4C4881423AD8286A8007C6
:100EF000F5D40198002804D0E96901200007814356
:100F0000E9612078C00635D5606901280CD0401D04
:100F1000686B23D038436863686B4008400068639F
:100F2000FFF7AAFB064622E0686B38436863686BEC
:100F300030436863FFF7A0FB064604E0FFF79CFB25
:100F4000801B02285BD8686B8007F7D5686BF82197
:100F50008843A169C900084368630BE0B84368632C
:100F6000F4E74CE0FFF788FB801B022847D8686B4A
:100F70008007F7D4206A002846D069680907890FDE
:100F8000022943D0012636060228286805D0B0433E
:100F90002860FFF771FB044633E0B0432860FFF799
:100FA0006BFB074604E0FFF767FBC01B022826D84F
:100FB00028688001F7D4E86AE16A00090001084363
:100FC000E862616AA06A084369683D22120491439D
:100FD00008436860286830432860FFF74DFB0446EB
:100FE00004E0FFF749FB001B022808D828688001AD
:100FF000F7D509E0FFF740FB001B022801D90320C9
:10100000FEBD28688001F5D40020FEBD0120FEBD94
:10101000001002400070004088130000094910B51C
:10102000401E884201D9012010BD074C6061032198
:10103000081F00F06BFD0020A06107202061002048
:1010400010BD0000FFFFFF0000E000E070477047A8
:1010500070B502462032137F012B1BD0012313777A
:1010600002245477046865687026B5436560046897
:1010700065680E68354365600468A5688026B543D9
:10108000A5600068846849680C4384605377002039
:10109000107770BD022070BD70B5040005D02546E4
:1010A0002035687F002802D006E0012070BD0020B6
:1010B0002877204600F00AF802206877211D206872
:1010C00000F0A6FD01206877002070BD38B5054608
:1010D00000681B49884231D11A48C26902210A437B
:1010E000C261C069194C0840009017482060102068
:1010F00060608021E1600020A060490021616061A2
:101100002020A06103200003E0612046FFF728F9BA
:10111000002801D0FFF7D4F86C62AC6300221146BE
:1011200010206562FFF7F4FC1020FFF7E7FC084889
:10113000E0622068016804221143016038BD0000AC
:10114000000400400010024044000240380100202A
:1011500059240008F8B5054604462035287F0128A3
:1011600017D001272F7702206877226890687726AA
:10117000FF23B0431B02984390600868502837D083
:101180000EDC202857D006DC00284ED0102840D195
:101190004EE00220F8BD302850D0402839D13CE044
:1011A00060282DD0702817D001221203801A0ED08B
:1011B00090422ED1CB684A688968206800F096FD7D
:1011C00020688168012292031143816021E0206838
:1011D0008168C908C900F8E7CB684A68896820684F
:1011E00000F084FD21688868B0433043886010E0D7
:1011F000CA684968206800F06FFE5021206806E048
:10120000CA684968206800F078FE6021206800F014
:1012100078FD6F7700202877F8BDCA684968206894
:1012200000F05AFE40212068F1E700212068EEE737
:1012300010212068EBE720212068E8E730212068B2
:10124000E5E77047704770B50446006801690025FE
:10125000C9438907002915DBC168C943890711D42F
:10126000E91E0161012020772068806980072046FF
:1012700002D0FFF7E7FF04E000F0BEF8204600F0E0
:101280003FF9257720680169C943490717D4C16828
:10129000C943490713D40421C943016102202077BF
:1012A000206880698005800F204602D0FFF7CAFFC2
:1012B00004E000F0A1F8204600F022F9257720682C
:1012C0000169C943090716D4C168C943090712D483
:1012D0000821C9430161042020772068C069800784
:1012E000204602D0FFF7AEFF04E000F085F820466C
:1012F00000F006F9257720680169C943C90617D4AB
:10130000C168C943C90613D41021C943016108202B
:1013100020772068C0698005800F204602D0FFF743
:1013200091FF04E000F068F8204600F0E9F8257726
:1013300020680169C943C90708D1C168C943C90701
:1013400004D1891E0161204600F0CAF920680169B4
:10135000C943090609D4C168C943090605D48021D7
:10136000C94301612046FFF771FE20680169C94346
:10137000490609D4C168C943490605D44021C94377
:101380000161204600F0ADF920680169C943890672
:1013900009D4C168C943890605D42021C943016124
:1013A0002046FFF754FE70BD10B586B004461421E8
:1013B0006846FEF7C4FE0E492068884215D10D48E4
:1013C000426949130A434261406908400590402040
:1013D00000900220019002900320039001200490CD
:1013E00009206946C006FFF797F806B010BD000057
:1013F00000040040001002407047F8B5064604465D
:101400002036307F0D4601280DD001203077022094
:1014100070770427002A08D0042A16D0082A2AD078
:101420000C2A4DD137E00220F8BD206800F072FC94
:101430002068816908221143816120688169B9436C
:101440008161206881692A6912E0206800F09EFCB1
:10145000206882690121C9020A438261206881698A
:101460000122920291438161206881692A691202F6
:101470001143816124E0206800F0C2FC2068C26949
:1014800008210A43C2612068C169B943C16120686B
:10149000C1692A6912E0206800F0EEFC2068C16989
:1014A0000122D2021143C1612068C269012189026F
:1014B0008A43C2612068C1692A6912021143C1616D
:1014C0000120707700203077F8BD70B5040005D09A
:1014D00025462035687F002802D006E0012070BD37
:1014E00000202877204600F00AF802206877211DA6
:1014F000206800F08DFB01206877002070BD7047E8
:101500000B4910B588420BD10A4C6078022808D0EC
:10151000012000F013FEA068402801D10220607075
:1015200010BD0021024800F08BF80020F7E7000012
:10153000F80000200000002070B504460E46203060
:10154000417F1546022903D0417F012902D009E0DD
:10155000022070BD002D03D1002B01D0012070BDF1
:101560000221417731483249002E06D0042E13D093
:10157000082E3CD00C2E1FD148E0626A9062606A4F
:101580000163226829463432606AFEF715FF20683D
:10159000C168012252020DE0A26A9062A06A016352
:1015A000226829463832A06AFEF706FF2068C16823
:1015B000012292021143C16001223146206800F0ED
:1015C00063FB1C492068884205D01B49884202D031
:1015D0001A49884204D1416C0122D203114341646B
:1015E00020680168012211430160002070BDE26A99
:1015F0009062E06A0163226829463C32E06AFEF7A5
:10160000DBFE2068C1680122D202D3E7226B906220
:10161000206B0163226829464032206BFEF7CCFE26
:101620002068C16801221203C4E700009F1C000863
:10163000DD1C0008002C014000440140004801402E
:1016400030B502680446002906D0042908D00829CC
:1016500036D00C2909D137E0D06801235B0202E0C3
:10166000D06801239B029843D0600022206800F0DC
:101670000BFB184A164B20689110984205D0164B68
:10168000984202D0154B98420AD1036A134207D1FF
:10169000036A0B4204D1436C0125ED03AB43436461
:1016A0002068036A134206D1026A0A4203D1016824
:1016B000490849000160012020346077002030BDD6
:1016C000D0680123DB02CEE7D06801231B03CAE701
:1016D000002C01401111000000440140004801406D
:1016E00070477047FEE701688A69D243920701D4C8
:1016F00000228A6200688169C943C90703D08169F1
:101700000122114381617047F7B5044600680E4617
:101710008069C043C0062CD4202725464035206868
:101720008069C04380060FD5701CF8D0002E05D00C
:10173000FEF7A2FF0299401AB042F0D96F70002064
:10174000A87028700320FEBD21681020C8612068A1
:10175000C7612046FFF7C7FF20684168064A11406D
:101760004160042060646F700020A8702870012020
:10177000FEBD0020FEBD000000E800FEF8B51C46DE
:1017800017460E46054611E0601C0FD0002C05D010
:10179000FEF772FF0699401AA04207D92020403573
:1017A00068700020A87028700320F8BD286881693F
:1017B0003046884304D00020B842E5D00020F8BD70
:1017C0000120F9E7F7B500272026054604464035F5
:1017D0002AE02046029A0199FFF796FF002801D0DF
:1017E0000120FEBD20688069C04380060BD42068BC
:1017F000C66120684168104A1140416067646E709C
:10180000AF702F70ECE70198002806D0FEF734FF88
:101810000299411A0198814206D9606C3043606494
:101820006E702F700320FEBD20688069C0434007A2
:10183000CFD40020FEBD000000E800FE70B51646C3
:101840000D4604461AE0324629462046FFF75CFF63
:10185000002801D0012070BD002D04D0FEF70CFF40
:10186000801BA8420AD9616C202001436164403486
:1018700060700020A0702070032070BD2068806917
:10188000C0438006DFD4002070BD70B516460D46FB
:1018900004461CE0324629462046FFF735FF002863
:1018A00001D0012070BD681C11D0002D04D0FEF7BE
:1018B000E3FE801BA8420AD9616C202001436164C9
:1018C000403460700020A0702070032070BD20683C
:1018D0008069C0438007DDD4002070BD38B509247D
:1018E0000121E40689022046FEF7AAFD01214902F2
:1018F0002046FEF7A5FD114C207900F077F8104B3B
:10190000012269460F48FEF793FF2046093001780F
:10191000A2780123121D9340427819438378520024
:101920009B001A43C0781143C0000143E170642357
:101930000122E11C0348FFF70DF838BD0C00002020
:10194000FFFF00007C04002008B50848416901221F
:1019500011434161406910400022009011460B2064
:10196000FFF7D6F80B20FFF7C9F808BD00100240BA
:1019700010B586B014216846FEF7E1FB1A484269AB
:10198000012189050A43426142690A400592426980
:1019900049110A434261406909240840E406059060
:1019A000012210212046FEF760FE10200090012049
:1019B0000190002002900320039069462046FEF724
:1019C000ABFD002211460520FFF7A2F80520FFF726
:1019D00095F8002211460720FFF79AF80720FFF735
:1019E0008DF806B010BD00000010024010B51C4973
:1019F0001A4A0A601B4A4A600222002805D00128C0
:101A000005D0022805D0032825D08A6003E00420F1
:101A100000E0062088600120C8600020086148615D
:101A20008861C86108620E48FEF776FE002801D082
:101A3000FEF746FC00210A48FEF724FE002801D0EC
:101A4000FEF73EFC00210648FEF741FE002801D0CB
:101A5000FEF736FC10BD0820DCE700000054004013
:101A60007C0400200E09002010B58EB000240794DD
:101A7000089409940A940B941C2168460C94FEF770
:101A80005EFB1F491F4812C0046084603B21046153
:101A900041600838FFF700FB002801D0FEF710FC7A
:101AA00001200003079007A91648FFF753FB002801
:101AB00001D0FEF705FC1348FFF707FD002801D011
:101AC000FEF7FEFB0B940BA90E480C94FFF7C0FA2F
:101AD000002801D0FEF7F4FB6020009001940294EE
:101AE0000022694604940748FFF787FC002801D0CC
:101AF000FEF7E6FB0348FFF757FC0EB010BD0000F1
:101B000000040040F8000020704700008307FF2217
:101B1000DB0E9A408907090E994000280BDA00076E
:101B2000000F0838830808489B001818C3699343BE
:101B30000B43C3617047830804489B001B18186857
:101B4000904308431860704700ED00E000E400E0B7
:101B50007047704710B5FEF793FF10BD30B591B0D8
:101B600030216846FEF7EBFA002401200090019036
:101B70000E94000409900F9400010D9402250A9020
:101B80000C9408950B946846FFF79EF807200C907C
:101B90000E9401210D950F940CA8FEF7BDFF11B016
:101BA00030BD000013480168012211430160416803
:101BB000114A114041600168104A114001600168FA
:101BC000012292049143016041683F221204914333
:101BD0004160C16A09090901C162016BFF22143227
:101BE00091430163416B49084900416300218160D1
:101BF00070470000001002400CB8FF08FFFFF6FE1F
:101C000010B50248FFF71FFB10BD0000F8000020D0
:101C100070B50268174B184E984201D0B04203D1FC
:101C20007024A2434C682243144C154D984208D0AE
:101C3000B04206D0134EB04203D0A04201D0A84219
:101C400004D103263602B243CE6832438026B24323
:101C50004E69324302608A68C2620A6882629842B0
:101C600003D0A04201D0A84201D10969016301213A
:101C7000416170BD002C014000040040004401405F
:101C8000004801400020004010B50123046A8B4049
:101C90009C430462036A8A401343036210BD10B57B
:101CA000446A01213D221155626A824201D12177A5
:101CB0000EE0A16A814201D1022008E0E16A81427E
:101CC00001D1042003E0216B814201D1082020775B
:101CD0002046FFF715FC0020207710BD10B5406AA4
:101CE00001223D210A54FFF7ACFA10BD30B58468DB
:101CF000FF252D021B021343AC430B432343836098
:101D000030BD826870239A430A4307210A438260E8
:101D100070470000F0B5026A520852000262056A7C
:101D2000436882697024A24392080C6892001443AD
:101D3000022295438A68134E2A43114DA84204D0CB
:101D4000B04202D0104FB84206D10827BA43CF683C
:101D50001743042297433A46A84204D0B04202D027
:101D6000094DA84206D103252D02AB434D691D4301
:101D70008B692B4343608461496841630262F0BD13
:101D8000002C0140004401400048014070B5026A47
:101D900010239A430262046A4368826973252D0204
:101DA000AA430D682D021543202294438A6812012C
:101DB0002243104CA04208D11446CA688026B4437E
:101DC000120122434024A24305E00B4CA04202D062
:101DD0000A4CA04208D10324A402A3434C69A400E6
:101DE0001C438B699B002343436085614968816381
:101DF000026270BD002C01400044014000480140D7
:101E000070B5026AFF2301339A430262046A436891
:101E1000C2697025AA4392080D68920015430122F9
:101E2000520294438A6812022243104CA04207D106
:101E3000C414A243CC68240222430615B24305E031
:101E40000B4CA04202D00B4CA04208D10324240327
:101E5000A3434C6924011C438B691B01234343604A
:101E6000C5614968C163026270BD0000002C014079
:101E7000004401400048014030B5026A01231B03C1
:101E80009A430262056A4268C36973242402A34329
:101E90000C6824021C4301235B039D438B681B03D6
:101EA0002B430A4DA84205D0094DA84202D0094D46
:101EB000A84205D10125AD03AA434D69AD012A43CE
:101EC0004260C46149680164036230BD002C014076
:101ED000004401400048014030B5036A046A6408C8
:101EE000640004628469F025AC43120122430A2491
:101EF000A3430B438261036230BD30B5036A1024F3
:101F0000A34303628469036A0F252D031203AC43C4
:101F10002243A024A343090119438261016230BD19
:101F200002E008C8121F08C1002AFAD170477047A2
:101F3000002001E001C1121F002AFBD1704710B53B
:101F40000446FEF799FB0419FEF796FBA042FBD16D
:101F500010BD0000FEB5304C05466079002859D010
:101F6000FEF78AFB01460C202C4A68432746861858
:101F70000D37785D8200B150401CC0B20321FEF7DE
:101F8000AFF879550F46481C0321FEF7A9F88800E1
:101F90003058B90001907158431AB81C03210093BE
:101FA000FEF79EF88800315801981D4F081AAE00C0
:101FB000009BF1190022022B02D0032B0DD019E057
:101FC000022802D0032804D014E04878607003206F
:101FD0000BE0C8786070012007E0022802D00328D7
:101FE00005D007E0B85D60700220A07002E088783C
:101FF0006070A2706078042800D0257020780428D2
:1020000008D06271092000221021C006FEF72DFBC6
:102010000120E071FEBD00000C0000204C040020F7
:10202000E0250008F8B50C464349054649780129E2
:1020300004D0022904D0032905D118E0C11C00E016
:10204000811C8D07AD0F002687003B481430C05916
:1020500081880068FEF704FB01280AD0002D10D00B
:10206000012D19D0022D44D0032D39D14CE0411C53
:10207000E7E731490120093148553220FEF7D1F90F
:1020800032E02168A08888610120FFF758FF2168AD
:10209000A0888862022009E02168A0888861012068
:1020A000FFF74DFF2168A08888620120FFF747FFF6
:1020B0002168A08888610120FFF741FF2168A0887E
:1020C00088620120FFF73BFF2168A088886101201A
:1020D000FFF735FF2168A08888620320FFF72FFFF4
:1020E000761CF6B2052EB0D3A1882068FEF7A8F9B9
:1020F000F8BD2168A08888610120FFF720FF2168D2
:10210000A0888862022009E02168A08888610120F7
:10211000FFF715FF2168A08888620120FFF70FFFF5
:102120002168A08888610120FFF709FF2168A08845
:1021300088620220C6E700000C00002070B506008F
:1021400001D0162500E00B250D4C01E000F04CF805
:102150006068A84202D2A0684028F7D36268AA4209
:1021600007D2A91A18204143424306481018FDF728
:10217000E6FF002E01D0002000E00B20606070BD63
:10218000000000203C020020FEF782FCFFF7E6FC86
:10219000FFF7EEFBFFF7D8FBFFF766FC00F0CCF98A
:1021A0000520FEF73EF900F0A9F8074CC0222346AF
:1021B00006490748FEF73CFB0028F7D1034800F02A
:1021C00065F900F0D1F9F1E7FFFF000038000020C9
:1021D0007C04002003480179491C017101218171AF
:1021E000704700000C000020F0B518481821436823
:1021F000174A594385688C18680011462818C03959
:102200004218002007210F1A56780121B9400E42CA
:1022100001D0282600E01426265416780E4201D05C
:10222000282700E014272618377297780F4201D02C
:10223000282100E01421401CC0B231740828E1D3E9
:1022400002485B1C6D1C85604360F0BD00000020EF
:102250003C02002001490020887170470C000020DA
:1022600010B50446818886B00068FEF7E9F81421AD
:102270006846FDF764FFA0880090054801900120A2
:10228000029069462068FEF747F906B010BD0000CD
:102290000000211010B50446818886B00068FEF762
:1022A000CFF814216846FDF74AFFA0880090054842
:1022B00001900020029069462068FEF72DF906B0D3
:1022C00010BD00000000111010B50446818886B0D2
:1022D0000068FEF7B5F814216846FDF730FFA088C6
:1022E0000090012001900020029003200390694695
:1022F0002068FEF711F906B010BD000070B51E4C45
:10230000012060710020E071042121706170A170D2
:10231000E0701A48FFF7BEFF1948FFF7D5FF0925FF
:102320000122ED0691022846FEF79FF91548FFF7B6
:1023300097FFE0790028FCD001246402214628465A
:10234000FEF77EF80F48FFF7BFFF00222146284620
:10235000FEF78BF90120FEF764F80122214628469A
:10236000FEF783F921462846FEF76AF800F00CF8DC
:10237000FFF7B4FA70BD00000C000020A82500088B
:10238000D8250008D0250008F0B585B02E48FFF705
:102390009BFF2E4C09252078ED06002806D0012849
:1023A00007D0022840D0032808D140E0012211467E
:1023B00001E0012280212846FEF757F9012109207A
:1023C00000228902C006FEF750F92148FFF748FFB6
:1023D0000026A6711F4B35460FCB009001A80EC0FA
:1023E0006F46E07900280ED020792072A6712078FF
:1023F000A84204D0A80039582846FFF713FE6D1CE8
:10240000EDB2042DEDD32078002813D0012814D08C
:10241000022815D0032805D1002220210920C0065A
:10242000FEF723F905B0F0BD01220221C3E7012226
:102430002021C0E700220121F0E700228021EDE702
:1024400000220221EAE70000A82500080C00002075
:10245000D8250008F0250008054910B5884206D1A6
:1024600004484078022802D00020FFF767FE10BD24
:10247000380100200000002010B5C0210248FDF7FF
:102480005EFE00F071F810BD7C010020F8B5054635
:1024900027480078012809D0022820D003282ED010
:1024A000C02229462348FDF731FEF8BD0024072746
:1024B0000026F000C0194100401840198378427886
:1024C00001782046641CE4B200F03AF8761CB6B2FB
:1024D000082EEED37F1E3FB2002FE9DAF8BD0024AC
:1024E0004026600020184019837842780178301B1C
:1024F00000F026F8641CA4B2402CF2D3F8BD0024EE
:1025000027460726F000C01941004018401983787B
:10251000427801782046641CE4B200F011F8761E7F
:1025200036B2002EEEDA7F1CBFB2082FE9D3F8BD19
:102530000D0000207C01002010B5FFF79DFF10BDAD
:1025400010B540280AD2064C2478002C06D044004E
:102550000019044C001901704270837010BD000016
:10256000000000207C01002010B50C4C6078002891
:1025700013D10120607030210948FDF7E0FD0220F1
:1025800060600020A0600120FFF7D8FD21231B011F
:10259000034A00210348FEF7CFFF10BD00000020D2
:1025A0003C020020F800002000000048A3000000CA
:1025B0000000004801000000000000480200000088
:1025C00000000048800000000000004820000000DB
:1025D0000000004800020000000000480004000065
:1025E00002010003030201000003020101000302D3
:1025F000B0250008C0250008B8250008C825000837
:1026000000000000000000000102030406070809A2
:10261000302600080000002038000000201F0008BD
:10262000682600083800002090080000301F0008CD
:102630000A00000000000000000000000404040084
:10264000000000000000000000000000000000008A
:10265000B0250008C0250008B8250008C8250008D6
:082660000000000000127A00E6
:04000005080000B13E
:00000001FF
