:020000040800F2
:10000000B0080020C500000801180008B914000855
:1000100000000000000000000000000000000000E0
:100020000000000000000000000000004B18000865
:100030000000000000000000491800084D180008EA
:10004000D700000800000000D7000008D700000813
:10005000D7000008D5010008D700000839020008C1
:1000600000000000D7000008D70000087901000850
:10007000D7000008D7000008D700000800000000E3
:10008000F91800080000000000000000D700000878
:1000900000000000D7000008D7000008D7000008C3
:1000A00000000000D700000800000000D700000892
:1000B0000348854600F04EF800480047411D0008FF
:1000C000B00800200448804704480047FEE7FEE7E8
:1000D000FEE7FEE7FEE7FEE79D180008B100000816
:1000E00030B50B46014600202022012409E00D46D0
:1000F000D5409D4205D31D469540491B2546954058
:1001000040191546521E002DF1DC30BD03460B434D
:100110009B0703D009E008C9121F08C0042AFAD2BD
:1001200003E00B780370401C491C521EF9D2704743
:10013000D2B201E00270401C491EFBD2704700227F
:10014000F6E710B513460A4604461946FFF7F0FFD6
:10015000204610BD064C0125064E05E0E36807CC9D
:100160002B430C3C98471034B442F7D3FFF7A4FF5D
:10017000F01E0008101F000810B5024800F0A1F89A
:1001800010BD00002001002010B50446006805499C
:1001900040181421FFF7A4FF800020640248E063A8
:1001A00010BD0000F8FFFDBF0000024030B5056C37
:1001B0000124AC40C56B6C60046863604368102B1D
:1001C000036803D099600068C26030BD9A6000681F
:1001D000C16030BD70B5154C6069154D154EC00736
:1001E0000FD02878002803D0002001F025FD04E07E
:1001F0003078002801D001F005FE0120606100F098
:1002000010F9606980070FD52878002803D00220F4
:1002100001F012FD04E03078002801D001F0F2FD79
:100220000220606100F0FDF870BD00000004014094
:100230000F0000201100002070B51E4C60691E4D9B
:100240001E4E80060FD52878002803D0032001F029
:10025000F3FC04E03078002801D001F0D3FD202029
:10026000606100F0DEF8606900060FD5287800288C
:1002700003D0012001F0E0FC04E03078002801D038
:1002800001F0C0FD8020606100F0CBF8606980055E
:1002900006D501F079FD01204002606100F0C1F84F
:1002A0006069400504D501208002606100F0B9F862
:1002B00070BD0000000401400F000020110000206C
:1002C0007047F0B4C16B0D6801680C680422066CBD
:1002D0001346B3402B420DD063070BD50B689B062A
:1002E00002D40B6893430B60016C8A40C16B4A6077
:1002F000C16A19E00227B74002462F40012320328D
:10030000002F15D0A70713D50C68A40604D40C68D9
:100310000A25AC430C605370036C02219940C36BF7
:10032000596000211170816A002916D0F0BC08477D
:100330000827B7402F4210D024070ED50C680E2591
:10034000AC430C60046C1946A140C46B61608363CC
:10035000537000211170016BE6E7F0BC704700009C
:1003600070B5040024D00220214620310D4648708B
:10037000226811680F48A368014060682669184325
:10038000E3683343184363691843A3691843E36977
:100390001843084310602046FFF7F6FE0020A062D5
:1003A000E06220636063A06301216970287070BD02
:1003B000012070BD0FC0FFFFF8B504468C46203009
:1003C00001780025012909D001260670417800270F
:1003D000012905D0077002252846F8BD0220F8BD86
:1003E00002214170A7632068016849084900016043
:1003F00061462046FFF7DAFEE06A002820680168BF
:1004000002D00E22114306E00A2211430160206847
:100410000168042291430160206801683143016052
:10042000DAE77047F8B500238DE001249C40A4462C
:1004300022407DD04C68022C01D0122C0CD1DC085B
:10044000A40027183C6A5D07ED0E0F26AE40B443AA
:100450000E69AE4026433E6205685E000324B44048
:100460000F79A543BF07BF0FB7402F4307604D6803
:10047000012D05D0022D03D0112D01D0122D0ED14A
:100480008568CF68A543B7402F43876047686546B6
:10049000AF430D79ED06ED0F9D403D434560C568C6
:1004A000A5438C68B4402C43C4604C68E40049D533
:1004B000284CA56901263543A561A4699D083440EF
:1004C0000094254CAD002F19BC689D072E0F0F25F9
:1004D000B540AC430925ED06A84201D100250FE047
:1004E0001E4DA84201D101250AE01D4DA84201D1AF
:1004F000022505E01B4DA84201D1032500E005259A
:10050000B5402543BD60184C25684E689543F603F9
:1005100000D51543256065684E689543B60300D540
:1005200015436560A5684E689543F60202D500E064
:1005300008E01543A560E5684E689543B60200D50E
:100540001543E5605B1C0A681446DC4000D06CE78C
:10055000F8BD000000100240000001400004004807
:1005600000080048000C004800040140002A01D0A7
:1005700081617047816270470148006870470000E0
:100580001800002070B5024640325378202B1CD151
:100590001378012B19D0012313702424547004689C
:1005A00025689D432560046825681E03B5432560C2
:1005B000046825680D4325600068016819430160DF
:1005C000202050700020107070BD022070BD70B5EA
:1005D000024640325378202B1BD11378012B18D0C0
:1005E000012414702423537003681D68A5431D6003
:1005F00005682B680F263602B343090219432960A8
:1006000000680168214301602020507000201070B4
:1006100070BD022070BD000070B5040006D02546F4
:10062000403568780026002802D005E0012070BD22
:100630002E70204600F04AF8242068702068016877
:100640004908490001600F21606809068843216854
:10065000086121688A680120C00382438A60E168DA
:100660000129A16808D021229202114322689160D9
:10067000E168022902D005E00143F7E70121226881
:10068000C902516021684A680F4B1A434A602168C9
:10069000CA688243CA60616920690843A169090286
:1006A00008432168C860216AE0690843216808603E
:1006B000206801680122114301606664202068708F
:1006C0002663AE70002070BD0080000210B586B0B9
:1006D000044614216846FFF732FD1349206888421A
:1006E00020D1124C616901204004014361616169BC
:1006F000014003200591400200901220019001204A
:100700000290032003900420049009206946C0064B
:10071000FFF788FEE169012040050143E161E169DD
:100720000140059106B010BD005400400010024089
:10073000FFB5054604464035687881B01646202846
:100740007ED10298002869D0002E67D02878012831
:100750007ED001202870FFF70FFF07462220687027
:100760002020A87000206064029961626685606341
:10077000206841680126F603B143416000970022DA
:1007800008212046049B00F0E3FE002804D02068E6
:100790004168314341603EE021680820C86141035F
:1007A000009701222046049B00F0D2FE0028EED1E3
:1007B00020E000F0F1FE0028206813D041683143AA
:1007C000416020688169C943490707D4416A606A6A
:1007D000421C62620170608D401E6085606C202842
:1007E00019D01BE0416A606A421C62620170608D30
:1007F000401E6085608D049900283A462046D8D175
:1008000000F006FF00280BD02068416831434160AA
:10081000606C042802D0032005B0F0BD0120FBE786
:1008200021682020C8610097012231462046049BA0
:1008300000F08EFE0028AAD120684168314300E014
:1008400006E04160202068700020A8702870E3E76F
:100850000220E1E702480168491C0160704700007E
:100860001800002010B506480168102211430160ED
:10087000002000F007F800F017F8002010BD00007D
:100880000020024010B5044600F0C6F87D21C900E2
:10089000FFF726FC00F0ACFA00222146501E00F0C3
:1008A00021F8002010BD000008B508488169012228
:1008B00011438161816911400091C26901040A43B9
:1008C000C261C0690840009008BD000000100240ED
:1008D000C106C90E01208840014908607047000028
:1008E00000E100E010B500F08DFF10BDF8B5054641
:1008F00044480E460068C007C00FB0420AD24148C3
:10090000016849084900314301600068C007C00F11
:10091000B0425CD128783C4C800705D56068F02156
:100920008843A968084360602878C0073FD068689A
:10093000012813D02168022813D08907002946DA3C
:1009400061688908890001436160FFF715FE6968E5
:10095000074601290DD0022917D024E02168890318
:10096000ECE78901EAE7FFF707FEC11B2748814250
:1009700017D860680007800F0128F4D117E0FFF74F
:10098000FBFDC11B214881420BD860680007800F26
:100990000228F4D10BE0FFF7EFFDC11B1B48814299
:1009A00001D90320F8BD60680007800FF3D1154816
:1009B0000168C907C90FB1420BD90168490849004C
:1009C000314301600068C007C00FB04201D0012070
:1009D000F8BD2878400706D56068072109028843DA
:1009E000E9680843606000F01DF86168084A09067C
:1009F000090F515CC840074908600020FFF742FF1B
:100A00000020F8BD002002400010024088130000C2
:100A1000E01E00081C00002001480068704700002C
:100A20001C00002010B512A30FCB88B06C460FC479
:100A300013A30FCB0FC416494A680C20134603407A
:100A40001448042B0FD0082B0DD193021B0F6C46BA
:100A5000E45CC96A04AB0907090F595CD20304D5E9
:100A6000FFF73EFB604308B010BD0B486043FAE758
:100A700002030405060708090A0B0C0D0E0F1010DF
:100A80000102030405060708090A0B0C0D0E0F10DE
:100A90000010024000127A0000093D00FEB5044635
:100AA0000078D04DC00747D068680007800F012844
:100AB00007D068680007800F022809D16868C00362
:100AC00006D52868800337D5606800287ED033E0DB
:100AD000012062680004012A11D08100002A01D09F
:100AE000052A10D02A6882432A6028688843286033
:100AF0006068002814D0FFF73FFD06460CE0296827
:100B000001432960F4E72A680A432A60F7E7FFF700
:100B100033FD801B64286FD828688003F7D50BE06D
:100B2000FFF72AFD064604E0FFF726FD801B642838
:100B3000F1D828688003F7D42078012680070028A0
:100B40003BDA68680007800F07D068680007800FED
:100B5000022809D16868C00306D42868800715D523
:100B6000E068012832D111E0E0680028286815D03B
:100B700030432860FFF700FD074604E0FFF7FCFC68
:100B8000C01B0228C7D828688007F7D52868F82135
:100B900088432169C900084328600EE040084000EE
:100BA0002860FFF7E9FC074604E0FFF7E5FCC01BFF
:100BB0000228B0D828688007F7D42078000724D509
:100BC000E0690028686A10D0304300E008E16862FC
:100BD000FFF7D2FC074604E0FFF7CEFCC01B02285B
:100BE00099D8686A8007F7D50FE04008400068622E
:100BF000FFF7C2FC074605E09DE0FFF7BDFCC01B08
:100C0000022888D8686A8007F7D42078042740072C
:100C1000002860DA00200190E869C00008D4E96982
:100C2000B8060143E961E9690140012000910190A2
:100C30006D480168C90511D401688215114301602E
:100C4000FFF79AFC009005E0FFF796FC0099401A28
:100C5000642870D864480068C005F5D5A0680128EC
:100C60000AD0002801D0052810D0286A400840008A
:100C70002862286AB84301E0286A30432862A068E5
:100C8000002812D0FFF778FC00900AE0286A384369
:100C90002862F1E7FFF770FC0099411A534881423E
:100CA00049D8286A8007F5D50DE0FFF765FC00906C
:100CB00006E0FFF761FC0099411A4C4881423AD89E
:100CC000286A8007F5D40198002804D0E96901203A
:100CD00000078143E9612078C00635D560690128A5
:100CE0000CD0401D686B23D038436863686B4008A4
:100CF00040006863FFF740FC064622E0686B38431B
:100D00006863686B30436863FFF736FC064604E0AF
:100D1000FFF732FC801B02285BD8686B8007F7D591
:100D2000686BF8218843A169C900084368630BE038
:100D3000B8436863F4E74CE0FFF71EFC801B022811
:100D400047D8686B8007F7D4206A002846D06968C6
:100D50000907890F022943D0012636060228286890
:100D600005D0B0432860FFF707FC044633E0B043EA
:100D70002860FFF701FC074604E0FFF7FDFBC01BFE
:100D8000022826D828688001F7D4E86AE16A0009B9
:100D900000010843E862616AA06A084369683D226D
:100DA0001204914308436860286830432860FFF7C5
:100DB000E3FB044604E0FFF7DFFB001B022808D832
:100DC00028688001F7D509E0FFF7D6FB001B022851
:100DD00001D90320FEBD28688001F5D40020FEBDA6
:100DE0000120FEBD0010024000700040881300008A
:100DF000094910B5401E884201D9012010BD074C99
:100E000060610321081F00F0FDFC0020A0610720A5
:100E10002061002010BD0000FFFFFF0000E000E0A7
:100E20007047704770B502462032137F012B1BD0EC
:100E30000123137702245477046865687026B5434C
:100E40006560046865680E68354365600468A56878
:100E50008026B543A5600068846849680C438460B7
:100E600053770020107770BD022070BD70B504006C
:100E700005D025462035687F002802D006E00120F5
:100E800070BD00202877204600F00AF8022068771D
:100E9000211D206800F038FD01206877002070BD1A
:100EA00038B5054600681B49884231D11A48C269E5
:100EB00002210A43C261C069194C084000901748DA
:100EC0002060102060608021E1600020A060490067
:100ED000216160612020A06103200003E0612046C1
:100EE000FFF73EFA002801D0FFF7EAF96C62AC6325
:100EF0000022114610206562FFF7F4FC1020FFF776
:100F0000E7FC0848E06220680168042211430160A0
:100F100038BD0000000400400010024044000240C0
:100F200020010020111E0008F8B5054604462035B2
:100F3000287F012817D001272F77022068772268A1
:100F400090687726FF23B0431B029843906008689F
:100F5000502837D00EDC202857D006DC00284ED091
:100F6000102840D14EE00220F8BD302850D0402853
:100F700039D13CE060282DD0702817D0012212030F
:100F8000801A0ED090422ED1CB684A6889682068BA
:100F900000F028FD206881680122920311438160DE
:100FA00021E020688168C908C900F8E7CB684A6871
:100FB0008968206800F016FD21688868B0433043D6
:100FC000886010E0CA684968206800F001FE50217E
:100FD000206806E0CA684968206800F00AFE6021BF
:100FE000206800F00AFD6F7700202877F8BDCA68F6
:100FF0004968206800F0ECFD40212068F1E70021FD
:101000002068EEE710212068EBE720212068E8E760
:1010100030212068E5E77047704770B504460068E6
:1010200001690025C9438907002915DBC168C94347
:10103000890711D4E91E01610120207720688069A9
:101040008007204602D0FFF7E7FF04E000F0BEF87B
:10105000204600F03FF9257720680169C943490718
:1010600017D4C168C943490713D40421C943016196
:1010700002202077206880698005800F204602D0FA
:10108000FFF7CAFF04E000F0A1F8204600F022F9C3
:10109000257720680169C943090716D4C168C94387
:1010A000090712D40821C943016104202077206870
:1010B000C0698007204602D0FFF7AEFF04E000F0D1
:1010C00085F8204600F006F9257720680169C943B4
:1010D000C90617D4C168C943C90613D41021C9432E
:1010E0000161082020772068C0698005800F2046B4
:1010F00002D0FFF791FF04E000F068F8204600F00E
:10110000E9F8257720680169C943C90708D1C16892
:10111000C943C90704D1891E0161204600F0CAF9FC
:1011200020680169C943090609D4C168C943090691
:1011300005D48021C94301612046FFF771FE206874
:101140000169C943490609D4C168C943490605D4A0
:101150004021C9430161204600F0ADF920680169D2
:10116000C943890609D4C168C943890605D4202129
:10117000C94301612046FFF754FE70BD10B586B02B
:10118000044614216846FEF7DAFF0E4920688842BB
:1011900015D10D48426949130A434261406908402C
:1011A00005904020009002200190029003200390BF
:1011B0000120049009206946C006FFF733F906B004
:1011C00010BD000000040040001002407047F8B558
:1011D000064604462036307F0D4601280DD00120FA
:1011E0003077022070770427002A08D0042A16D00E
:1011F000082A2AD00C2A4DD137E00220F8BD2068F9
:1012000000F004FC20688169082211438161206894
:101210008169B9438161206881692A6912E0206887
:1012200000F030FC206882690121C9020A43826112
:10123000206881690122920291438161206881695D
:101240002A6912021143816124E0206800F054FCF5
:101250002068C26908210A43C2612068C169B94394
:10126000C1612068C1692A6912E0206800F080FC31
:101270002068C1690122D2021143C1612068C2699C
:10128000012189028A43C2612068C1692A69120268
:101290001143C1610120707700203077F8BD70B52F
:1012A000040005D025462035687F002802D006E0DE
:1012B000012070BD00202877204600F00AF80220A7
:1012C0006877211D206800F01FFB0120687700204F
:1012D00070BD70470B4910B588420BD10A4C60783D
:1012E000022808D0012000F005FDA068402801D1A7
:1012F0000220607010BD0021024800F08BF8002031
:10130000F7E70000E00000200000002070B5044670
:101310000E462030417F1546022903D0417F012926
:1013200002D009E0022070BD002D03D1002B01D0B6
:10133000012070BD0221417731483249002E06D08C
:10134000042E13D0082E3CD00C2E1FD148E0626A28
:101350009062606A0163226829463432606AFFF74E
:101360002BF82068C168012252020DE0A26A906247
:10137000A06A0163226829463832A06AFFF71CF888
:101380002068C168012292021143C16001223146E6
:10139000206800F0F5FA1C492068884205D01B49F6
:1013A000884202D01A49884204D1416C0122D203FA
:1013B000114341642068016801221143016000204B
:1013C00070BDE26A9062E06A0163226829463C329D
:1013D000E06AFEF7F1FF2068C1680122D202D3E77C
:1013E000226B9062206B0163226829464032206B99
:1013F000FEF7E2FF2068C16801221203C4E7000083
:1014000097190008D5190008002C0140004401403C
:101410000048014030B502680446002906D004297E
:1014200008D0082936D00C2909D137E0D06801232B
:101430005B0202E0D06801239B029843D060002247
:10144000206800F09DFA184A164B206891109842C7
:1014500005D0164B984202D0154B98420AD1036A28
:10146000134207D1036A0B4204D1436C0125ED03FB
:10147000AB4343642068036A134206D1026A0A42FE
:1014800003D10168490849000160012020346077D8
:10149000002030BDD0680123DB02CEE7D0680123F5
:1014A0001B03CAE7002C0140111100000044014059
:1014B0000048014070477047FEE701688A69D243DF
:1014C000920701D400228A6200688169C943C90772
:1014D00003D081690122114381617047F7B5044649
:1014E00000680E468069C043C0062CD420272546DC
:1014F000403520688069C04380060FD5701CF8D045
:10150000002E05D0FFF738F80299401AB042F0D902
:101510006F700020A87028700320FEBD2168102085
:10152000C8612068C7612046FFF7C7FF206841688F
:10153000064A11404160042060646F700020A8706A
:1015400028700120FEBD0020FEBD000000E800FE66
:10155000F8B51C4617460E46054611E0601C0FD034
:10156000002C05D0FFF708F80699401AA04207D9C9
:101570002020403568700020A87028700320F8BD36
:10158000286881693046884304D00020B842E5D0FD
:101590000020F8BD0120F9E7F7B500272026054611
:1015A000044640352AE02046029A0199FFF796FF4B
:1015B000002801D00120FEBD20688069C04380065C
:1015C0000BD42068C66120684168104A1140416010
:1015D00067646E70AF702F70ECE70198002806D03A
:1015E000FEF7CAFF0299411A0198814206D9606C40
:1015F000304360646E702F700320FEBD20688069E8
:10160000C0434007CFD40020FEBD000000E800FE2C
:1016100070B516460D4604461AE032462946204665
:10162000FFF75CFF002801D0012070BD002D04D021
:10163000FEF7A2FF801BA8420AD9616C202001435B
:101640006164403460700020A0702070032070BD81
:1016500020688069C0438006DFD4002070BD000090
:1016600008B50848416901221143416140691040B1
:101670000022009011460B20FFF734F90B20FFF7F2
:1016800027F908BD0010024010B586B01421684645
:10169000FEF755FD1A484269012189050A43426156
:1016A00042690A400592426949110A434261406910
:1016B00009240840E4060590012210212046FEF787
:1016C00055FF10200090012001900020029003207F
:1016D000039069462046FEF7A5FE0022114605202C
:1016E000FFF700F90520FFF7F3F800221146072065
:1016F000FFF7F8F80720FFF7EBF806B010BD000081
:101700000010024010B514481249016013494160AD
:10171000022181600121C16000210161416181617B
:10172000C1610162FEF778FF002801D0FEF7C8FD15
:1017300000210948FEF726FF002801D0FEF7C0FD72
:1017400000210548FEF743FF002801D0FEF7B8FD51
:1017500010BD000000540040640400200E09002069
:1017600010B58EB000240794089409940A940B9441
:101770001C2168460C94FEF7E2FC1F491F4812C06A
:10178000046084603B21046141600838FFF76EFB10
:10179000002801D0FEF794FD01200003079007A95F
:1017A0001648FFF7C1FB002801D0FEF789FD13485A
:1017B000FFF775FD002801D0FEF782FD0B940BA901
:1017C0000E480C94FFF72EFB002801D0FEF778FDA1
:1017D0006020009001940294002269460494074816
:1017E000FFF7F5FC002801D0FEF76AFD0348FFF77C
:1017F000C5FC0EB010BD000000040040E000002059
:10180000704700008307FF22DB0E9A408907090E0C
:10181000994000280BDA0007000F083883080848B1
:101820009B001818C36993430B43C3617047830837
:1018300004489B001B1818689043084318607047C1
:1018400000ED00E000E400E07047704710B5FFF7DE
:1018500001F810BD30B591B030216846FEF76FFC3D
:1018600000240120009001900E94000409900F9430
:1018700000010D9402250A900C9408950B9468467B
:10188000FFF70CF907200C900E9401210D950F9491
:101890000CA8FFF72BF811B030BD00001348016809
:1018A0000122114301604168114A11404160016801
:1018B000104A1140016001680122920491430160C5
:1018C00041683F22120491434160C16A090909013C
:1018D000C162016BFF22143291430163416B4908DD
:1018E0004900416300218160704700000010024000
:1018F0000CB8FF08FFFFF6FE10B50248FFF78DFB9E
:1019000010BD0000E000002070B50268174B184EB3
:10191000984201D0B04203D17024A2434C682243C4
:10192000144C154D984208D0B04206D0134EB04228
:1019300003D0A04201D0A84204D103263602B2430C
:10194000CE6832438026B2434E69324302608A68D1
:10195000C2620A688262984203D0A04201D0A842C3
:1019600001D1096901630121416170BD002C014071
:1019700000040040004401400048014000200040B5
:1019800010B50123046A8B409C430462036A8A40B9
:101990001343036210BD10B5446A01213D22115565
:1019A000626A824201D121770EE0A16A814201D1AF
:1019B000022008E0E16A814201D1042003E0216BAA
:1019C000814201D1082020772046FFF783FC0020C8
:1019D000207710BD10B5406A01223D210A54FFF75F
:1019E0001AFB10BD30B58468FF252D021B0213437E
:1019F000AC430B432343836030BD826870239A431A
:101A00000A4307210A43826070470000F0B5026A6A
:101A1000520852000262056A436882697024A24338
:101A200092080C6892001443022295438A68134E70
:101A30002A43114DA84204D0B04202D0104FB84200
:101A400006D10827BA43CF681743042297433A4682
:101A5000A84204D0B04202D0094DA84206D10325C5
:101A60002D02AB434D691D438B692B434360846159
:101A7000496841630262F0BD002C0140004401400E
:101A80000048014070B5026A10239A430262046A5A
:101A90004368826973252D02AA430D682D02154300
:101AA000202294438A6812012243104CA04208D19C
:101AB0001446CA688026B443120122434024A2433C
:101AC00005E00B4CA04202D00A4CA04208D10324EE
:101AD000A402A3434C69A4001C438B699B002343CD
:101AE0004360856149688163026270BD002C0140DA
:101AF000004401400048014070B5026AFF230133F1
:101B00009A430262046A4368C2697025AA43920834
:101B10000D68920015430122520294438A68120212
:101B20002243104CA04207D1C414A243CC68240223
:101B300022430615B24305E00B4CA04202D00B4CE9
:101B4000A04208D103242403A3434C6924011C436D
:101B50008B691B0123434360C5614968C16302620D
:101B600070BD0000002C01400044014000480140CD
:101B700030B5026A01231B039A430262056A426878
:101B8000C36973242402A3430C6824021C43012369
:101B90005B039D438B681B032B430A4DA84205D072
:101BA000094DA84202D0094DA84205D10125AD0337
:101BB000AA434D69AD012A434260C461496801648A
:101BC000036230BD002C0140004401400048014048
:101BD00030B5036A046A6408640004628469F0250D
:101BE000AC43120122430A24A3430B4382610362E4
:101BF00030BD30B5036A1024A34303628469036ACD
:101C00000F252D031203AC432243A024A343090153
:101C100019438261016230BD02E008C8121F08C189
:101C2000002AFAD170477047002001E001C1121F5D
:101C3000002AFBD170470000FEB52B4C0546E0782A
:101C4000002850D0FEF798FC01460C20274A684334
:101C50008618E71D785D8200B150401CC0B2032198
:101C6000FEF73EFA79550F46481C0321FEF738FA75
:101C700088003058B90001907158431AB81C0321EC
:101C80000093FEF72DFA880031580198184E081A73
:101C9000AA00009B9119022B02D0032B09D011E05E
:101CA000022802D0032802D00CE0487809E0C87866
:101CB00007E0022802D0032802D003E0B05C00E075
:101CC000887860706078042800D025702078042817
:101CD00009D00020E070024609201021C006FEF75E
:101CE00045FC01206071FEBD0C0000203404002082
:101CF000C01E000870B5060001D0162500E00B25B7
:101D00000D4C01E000F048F86068A84202D2A068DB
:101D10004028F7D36268AA4207D2A91A1820414383
:101D2000424306481018FEF70AFA002E01D00020A0
:101D300000E00B20606070BD000000202402002045
:101D4000FEF790FDFFF786FDFFF79EFCFFF788FC8E
:101D5000FFF706FD00F080F80220FFF7D3FC074CE8
:101D6000C022234606490748FEF7E2FC0028F7D1C7
:101D7000034800F067F800F073F8F1E7FFFF000098
:101D8000200000206404002002488178491C8170F2
:101D9000704700000C000020F0B518481821436877
:101DA000174A594385688C18680011462818C039AD
:101DB0004218002007210F1A56780121B9400E421F
:101DC00001D0282600E01426265416780E4201D0B1
:101DD000282700E014272618377297780F4201D081
:101DE000282100E01421401CC0B231740828E1D33E
:101DF00002485B1C6D1C85604360F0BD0000002044
:101E00002402002001490020087170470C000020C6
:101E1000054910B5884206D104484078022802D00E
:101E20000020FFF767FF10BD200100200000002008
:101E300010B5C0210248FEF782F900F011F810BD7C
:101E40006401002010B50146C0220248FEF75EF989
:101E500010BD00006401002010B5FFF7E9FF10BDC0
:101E600010B50C4C6078002813D10120607030212F
:101E70000948FEF764F9022060600020A06001209C
:101E8000FFF738FF21231B01034A00210348FFF716
:101E90003DFA10BD0000002024020020E0000020D8
:101EA000000000480100000000000048020000009F
:101EB00000000048800000000000004820000000F2
:101EC00002000103030102000002030101030002FA
:101ED000A01E0008B01E0008A81E0008B81E0008BA
:101EE00000000000000000000102030406070809CA
:101EF000101F00080000002020000000181C00082F
:101F0000301F00082000002090080000281C000856
:101F10000A000000000000000000000003000000B4
:101F200000000000000000000000000000127A0025
:04000005080000B13E
:00000001FF
