:020000040800F2
:1000000000B500209D010008CF3100089D2900089F
:10001000CD310008A103000885450008000000005C
:10002000000000000000000000000000453D000846
:10003000390400080000000001320008473D0008B4
:10004000B7010008B7010008B7010008B7010008B0
:10005000B7010008B7010008B7010008B7010008A0
:100060006D040008B70100088D040008B7010008FE
:10007000B7010008B7010008B7010008B701000880
:10008000B7010008B7010008B7010008B701000870
:10009000B7010008B7010008B7010008AD04000867
:1000A000B7010008B7010008B7010008B701000850
:1000B000B7010008B7010008B7010008B701000840
:1000C000B7010008B7010008B70100083D3C00086F
:1000D000B701000879450008B7010008B70100081A
:1000E0003D040008B7010008B7010008B701000887
:1000F000B7010008B7010008B7010008B701000800
:10010000B7010008B7010008B7010008B7010008EF
:10011000B7010008B7010008B7010008B7010008DF
:10012000A5030008B7010008B7010008B1030008E3
:10013000B7010008B7010008B7010008B7010008BF
:10014000B7010008B7010008B7010008B7010008AF
:10015000B7010008B7010008B7010008B70100089F
:10016000B7010008B7010008B7010008B70100088F
:10017000B7010008B7010008B7010008000000003F
:10018000B7010008B7010008DFF80CD000F07AF8DA
:1001900000480047815B000800B500200648804702
:1001A00006480047FEE7FEE7FEE7FEE7FEE7FEE75C
:1001B000FEE7FEE7FEE7FEE7D13D00088901000803
:1001C0002DE9F05F0546002092469B46884606468C
:1001D000814640241BE0284641464746224600F01F
:1001E00041F853465A46C01A914110D31146184659
:1001F000224600F028F82D1A67EB01084F462246E8
:100200000120002100F01FF817EB00094E41201ECD
:10021000A4F10104DFDC484631462A464346BDE8E6
:10022000F09FD2B201E000F8012B491EFBD27047CB
:100230000022F6E710B513460A4604461946FFF7B2
:10024000F0FF204610BD202A04DB203A00FA02F11C
:10025000002070479140C2F1200320FA03F31943B4
:1002600090407047202A04DB203A21FA02F0002156
:10027000704721FA02F3D040C2F1200291400843B6
:1002800019467047064C074D06E0E06840F0010350
:1002900094E8070098471034AC42F6D3FFF778FF94
:1002A0000C7800082C78000870B58D1810F8014BF8
:1002B00014F0030201D110F8012B231106D110F81C
:1002C000013B03E010F8016B01F8016B521EF9D1FC
:1002D000ABB110F8012B04F00C048A1A0C2C03D0DB
:1002E000A2EB84129B1C08E010F8014BA2EB042245
:1002F000F8E712F8014B01F8014B5B1EF9D5A94252
:10030000D4D3002070BD00000146014801F0BDBB00
:100310002413002010B5044801F0C9FB042801D0C3
:10032000012010BD002010BD2413002038B501208D
:100330008DF800009DF80000012801D0012038BD93
:10034000064801F0CAFB040006D14FF400610348DF
:1003500001F072FA00B10124204638BD24130020B8
:1003600038B50024009313460A460146034801F0BD
:1003700043FC00B10124204638BD000024130020B6
:1003800038B50024009313460A460146034801F09D
:100390000DFD00B10124204638BD000024130020CB
:1003A000FEE70000014800F0C7B80000601400201C
:1003B000014800F0C1B800000014002001681823B3
:1003C000CAB2103AB2FBF3F2054B6FF30901032AEC
:1003D0009B5CC36500D9091D816508467047000014
:1003E0006875000810B5014600208B698A6A4FF0D5
:1003F000C07453B1B3F5005F15D072B1012A0CD0AF
:10040000022A0AD0032A09D104E01AB1012A06D02F
:10041000022A03D1C96AC90100D5012010BDC96AE9
:10042000A142FAD010BD002AF7D0012AF2D0022A48
:10043000F3D0032AF3D010BD7047000010B50A4C6A
:100440002068400505D506F0D3FE2015206000F099
:1004500065FA2068000506D54FF400602060BDE80D
:10046000104000F05BBA10BD143C014010B5064CC2
:100470002068400707D502F0B7FE04202060BDE8E1
:10048000104000F04BBA10BD143C014010B5064CB2
:100490002068C00607D506F0B5FD10202060BDE835
:1004A000104000F03BBA10BD143C014010B5064CA2
:1004B0002068800507D506F081FE60152060BDE844
:1004C000104000F02BBA10BD143C014070470022D0
:1004D000AFF3008030B50E4B054601205C7A002C4E
:1004E00014D1587A1C54587A03EB800045605D7A29
:1004F00003F108002A54587A421C5A7230300870AE
:100500003A2048702F208870CC70002030BD000049
:1005100094AF002090F83510022903D08021416566
:1005200001207047052180F835100068016821F02E
:1005300001010160002070472DE9F84304464FF0A7
:100540000009CDF8009063484FF41651A56D00687E
:10055000B0FBF1F72E6894F85C10082000FA01F166
:1005600031420FD021680A6852070BD50A6822F081
:1005700004020A6094F85C108840A860606D40F046
:100580000100606594F85C104FF0010808FA01F072
:10059000304208D021684969090604D5A860606D19
:1005A00040F00200606594F85C10042088403042FE
:1005B00008D021680968890704D5A860606D40F0FB
:1005C0000400606594F85C1010208840304218D018
:1005D00021680968090714D5A860206801684903E3
:1005E00004D50068000308D5A16C07E00168C905BF
:1005F00003D4016821F008010160216C09B1204693
:10060000884794F85C1020208840304231D021681F
:100610000968C9062DD5A86094F83500052820681A
:10062000016806D0490347D5006800031DD4616CFA
:100630001CE021F0160101602068416921F0800171
:100640004161206C08B9A06C20B12068016821F0DC
:100650000801016094F85C103F208840A86084F88D
:10066000349084F83580216D1FE0E16B09B120469C
:100670008847606D00282BD0606DC00714D005201E
:1006800084F835002068016821F0010101600098BC
:10069000401C0090B84203D820680068C007F6D11B
:1006A00084F8349084F83580E16C002910D001B0D2
:1006B0002046BDE8F04308470168C905D5D4016864
:1006C00021F01001016084F8349084F83580CCE783
:1006D000BDE8F883180000202DE9F041044600F041
:1006E00009FA06465CB1002584F83450022084F8EB
:1006F00035002068016821F0010101600DE0012052
:10070000BDE8F08100F0F6F9801B052805D920200E
:100710006065032084F83500F2E720680068C007B0
:10072000F0D12268116820480140D4E90103184340
:10073000D4E903363343184363691843A369184364
:10074000E3691843236A18430843616A042903D103
:10075000D4E90B1319430843106020684069666AA6
:1007600020F0070130460E43012704280CD1A06A6F
:100770000643E06A40B12046FFF734FE20B1402036
:10078000606584F83570BAE7206846612046FFF757
:1007900015FE94F85C203F2191408160656584F8E6
:1007A00035700020ACE700003F8010F070B50446C3
:1007B00000F0A0F90546601C02D00448007804440B
:1007C00000F098F9401BA042FAD370BD0C00002045
:1007D0002DE9F04F0022DFF81CB101264FF00F0980
:1007E00006FA02F401EA0403A3427CD122F00307D3
:1007F0005F44D7F8088895074FEA157C09FA0CFA88
:100800000AEA0805DFF8F080404502D14FF0000801
:1008100032E0DFF8E880404502D14FF001082BE0DC
:10082000DFF8DC80404502D14FF0020824E0DFF819
:10083000D480404502D14FF003081DE0DFF8C880A6
:10084000404502D14FF0040816E0DFF8C080404573
:1008500002D14FF005080FE0DFF8B480404502D127
:100860004FF0060808E0DFF8AC80404502D14FF0B9
:10087000070801E04FF0080808FA0CF8A84515D160
:10088000D7F808C82CEA0A0CC7F808C8224D2F6808
:100890009F432F602D1D2F689F432F602D1D2F68B4
:1008A0009F432F602D1D2F689F432F6005685700C1
:1008B0000323BB409D430560D50800EB8505D5F8B3
:1008C00020C057074FEAD76809FA08F72CEA070C47
:1008D000C5F820C085689D4385604568A54345608F
:1008E000C4689C43C460521C102AFFF479AFBDE871
:1008F000F08F000000300140000002400004024080
:1009000000080240000C02400010024000140240A7
:1009100000180240001C0240003C014070470000EB
:100920002DE9F84FDFF87CB100224FF001084FF0BD
:10093000030A4FF00F090BF1040E00BF0B6808FA11
:1009400002F42340A3426ED14D68022D01D0122D36
:100950000ED1D50800EB850CDCF820505607F70EB9
:1009600009FA07F6B5430E69BE402E43CCF8206065
:10097000066855000F790AFA05FC07F0030726EA16
:100980000C06AF40374307604E68012E05D0022E9B
:1009900003D0112E01D0122E0ED18668CF6826EA20
:1009A0000C06AF40374387604668A6430C79C4F312
:1009B0000014944034434460C6688C6826EA0C06F0
:1009C000AC403443C4604C68E40065D5364C2568BF
:1009D00045F480452560246822F0030504F4804432
:1009E0000094324C2E19D6F8084895072F0F09FAB3
:1009F00007F5AC432E4DA84201D1002524E02D4D32
:100A0000A84201D101251FE02B4DA84201D10225AA
:100A10001AE02A4DA84201D1032515E0284DA8422D
:100A200002D1042510E037E0264DA84201D105256A
:100A30000AE0254DA84201D1062505E0234DA84234
:100A400001D1072500E00825BD402543C6F8085818
:100A5000DBF800405D464E689C43F60300D51C431E
:100A60002C60DEF8004075464E689C43B60300D506
:100A70001C432C600B4D08352C684E689C43F602D5
:100A800000D51C432C60074D0C352C684E689C43E8
:100A9000B60200D51C432C60521C102AFFF44EAF46
:100AA000BDE8F88F003C014044380240003001406E
:100AB000000002400004024000080240000C024016
:100AC000001002400014024000180240001C0240C6
:100AD0000069084000D001207047426931EA0202F3
:100AE00000D10904816170470AB18161704709042E
:100AF000FBE7000001488068704700000C00002000
:100B000070B504001BD094F83D00002520B984F88E
:100B10003C50204600F030FB242084F83D00206843
:100B2000016821F00101016000F0A8FC4D4A6168F4
:100B3000914201D84C4900E04C49884201D2012041
:100B400070BD4B492368B0FBF1F15E6826F03F06AB
:100B50000E435E606368934206D94FF4967359431F
:100B60004FF47A73B1FBF3F12368491C1E6A26F037
:100B70003F06314319626168914210D84900401E16
:100B8000B0FBF1F2521CC2F30B02042A01D2042082
:100B900022E0B0FBF1F0401CC0F30B001CE0A368A6
:100BA000F3B301EBC10202EB0116421EB2FBF6F2F7
:100BB000521C42F48042120549D093B301EBC102AA
:100BC00002EB0111401EB0FBF1F0401CC0F30B0022
:100BD00040F4804040F400402168CA694CF6FF733D
:100BE0009A431043C861D4E90701084321680A68A1
:100BF00022F0C00210430860D4E9030101432068D9
:100C0000826848F2FF339A4311438160D4E90501B9
:100C100008432168CA6822F0FF021043C86001E05F
:100C20000EE016E02068016841F0010101602564D2
:100C3000202084F83D00256384F83E50002070BDDC
:100C400001EB4106421EB2FBF6F2521CB3E7012053
:100C5000C2E701EB4101401EB0FBF1F0401CC0F3C4
:100C60000B00B7E7A086010080841E0000093D004C
:100C700040420F002DE9F84F1F4690468A46044631
:100C8000DDF82890FFF736FF054694F83D00202850
:100C900075D1192301226C492046009501F0DDFF32
:100CA0000028F5D194F83C00012868D0012084F890
:100CB0003C0020680168C90703D1016841F00101C7
:100CC00001602068016821F400610160222084F83D
:100CD0003D00102084F83E0000262664C4F82480DD
:100CE0006785608D20855948E0622B464A4651460B
:100CF000204601F06BFE002878D1208D544F68B15A
:100D0000012814D002282068016816D041F48061BF
:100D10000160206841698069009087E0206841692E
:100D200081690091016841F4007101607EE02068F2
:100D3000016821F480610160F0E721F480610160C5
:100D40002068016841F40061E2E7032848D80128DF
:100D50000AD0022814D04B4600223946204600957E
:100D600001F07BFFD8BB27E02A464946204601F028
:100D7000F3FFA0BB20680069616A08704DE061E084
:100D80004B46002239462046009501F066FF30BBF5
:100D90002068016841F40071016020680069616A9F
:100DA0000870606A401C6062218D491E2185618D3A
:100DB000491E618521682EE02068016821F4806168
:100DC000016020680069616A0870606A401C6062A6
:100DD000208D401E2085608D401E6085D0E705E097
:100DE0002A464946204601F0B7FF10B10120BDE870
:100DF000F88F20680069616A0870606A401C606250
:100E0000218D491E2185618D491E618521684A69B0
:100E1000D24352070AD409690170606A401C6062BB
:100E2000208D401E2085608D401E6085208D00280D
:100E30008BD1202084F83D0084F83E6084F83C602B
:100E40000020D4E70220D2E7020010000000FFFFDC
:100E5000040001002DE9F84F1F4690468A460446DB
:100E6000DDF82890FFF746FE054694F83D0020285F
:100E70007FD11923012240492046009501F0EDFE63
:100E8000002876D194F83C00012872D0012084F823
:100E90003C0020680168C90703D1016841F00101E5
:100EA00001602068016821F400610160212084F85C
:100EB0003D00102084F83E0000262664C4F82480FB
:100EC0006785608D20852D48E0622B464A46514655
:100ED000204601F0E5FD90B92068416980690090E5
:100EE00036E02A464946204601F069FF50B1206CA1
:100EF000042804D12068016841F4007101600120D8
:100F0000BDE8F88F606A216800780861606A401C5B
:100F10006062618D491E6185218D491E89B22185DE
:100F200022685369DB435B070BD451B10078106131
:100F3000606A401C6062608D401E6085208D401E8E
:100F400020852A464946204601F061FE0028CED180
:100F5000208D0028C5D154F83D0B016841F4007183
:100F60000160202004F81E09E67766770020C7E7B5
:100F7000FFE70220C4E70000020010000000FFFFAE
:100F80002DE9FF4F83B09A46DDE911979346044659
:100F9000DDF84080FFF7AEFD054694F83D002028BF
:100FA00070D11923012271492046009501F055FEA8
:100FB0000028F5D194F83C00012863D0012084F882
:100FC0003C0020680168C90703D1016841F00101B4
:100FD00001602068016821F400610160222084F82A
:100FE0003D00402084F83E0000262664C4F824809A
:100FF000A4F82A90608D20855D48E062CDE90075F7
:1010000053465A462046049901F08EFD00287CD1B3
:10101000208DD0B1012821D00228206824D0416938
:1010200080690090208D032869D801282BD0514970
:1010300002283B464FF00002009559D088462046D2
:1010400001F00BFE002860D13CE020684169816915
:101050000091016841F40071016077E02068016847
:1010600021F480610160F0E7016821F48061016092
:101070002068016841F4006101602068416980696D
:10108000009063E06FE02A463946204601F064FE96
:1010900098BB20680069616A08704EE020680168AA
:1010A00041F40071016020680069616A0870606A3B
:1010B000401C6062218D491E2185618D491E61851C
:1010C000216838E02068016821F4806101602068AF
:1010D0000069616A0870606A401C6062208D401E71
:1010E0002085608D401E60853B460022414600956C
:1010F000204601F0B2FD00B9D0E706E0FFE72A463E
:101100003946204601F028FE18B1012007B0BDE89D
:10111000F08F20680069616A0870606A401C606234
:10112000218D491E2185618D491E618521684A698D
:10113000D24352070AD409690170606A401C606298
:10114000208D401E2085608D401E6085208D0028EA
:101150007FF468AF202084F83D0084F83E6084F876
:101160003C600020D2E70220D0E70000020010001F
:101170000000FFFF04000100F0B587B00446142111
:101180006846FFF755F82768204CDFF87CC01F49F8
:1011900012220123032504261D481034674515D16A
:1011A0000F6847F002070F60096801F0020105911E
:1011B00029028DE86E006946FFF7B2FB206840F413
:1011C00000102060206800F4001019E0DFF844C02F
:1011D000674516D10F6847F002070F60096801F0F4
:1011E000020105914FF440618DE86E006946FFF7FA
:1011F00097FB206840F480002060206800F48000A5
:10120000059007B0F0BD00000054004030380240A7
:1012100000040240005800400248816802781144EE
:10122000816070470C0000200B4810B5016841F444
:1012300000710160016841F480610160016841F45E
:1012400080710160032000F06FF8002000F006F8C4
:1012500000F024F8002010BD003C024070B50D4D98
:1012600004464FF47A712878B1FBF0F00A49096816
:10127000B1FBF0F001F04CF848B9102C07D2002275
:101280002146501E00F030F800206C6070BD012037
:1012900070BD00000C000020180000200A4808B5AE
:1012A000016841F480410160006800F480400090D2
:1012B0000548001F016841F080510160006800F09E
:1012C0008050009008BD000044380240002809DB2F
:1012D00000F01F02012191404009800000F1E02050
:1012E000C0F8001170470000F0B40E4B1B680C46AC
:1012F000C3F30223C3F10705042D00D90425191DEA
:10130000072901D2002300E0DB1E012606FA05F1C1
:10131000491E214099409E40761E16403143F0BC44
:1013200003F031B90CED00E0064900F0070208684F
:101330004FF6FF03184040EA0220034A10430860BA
:10134000704700000CED00E00000FA052DE9F047C1
:101350000E46050065D0DFF81481D8F80000F7B21A
:1013600000F00F00B04207D288F80070D8F80000F3
:1013700000F00F00B04254D128683D4C810712D5CF
:10138000400703D5206840F4E0502060287800072B
:1013900003D5206840F4604020602068A96820F0F0
:1013A000F000084320602878C0072DD030496868D5
:1013B0000839012812D0022813D0032811D0096857
:1013C000890700292DDA216821F0030101432160FA
:1013D000FFF790FB814641F2883A0EE009688903E5
:1013E000EFE709688901ECE7FFF784FBA0EB09014F
:1013F000514502D90320BDE8F0872068696800F0F4
:101400000C00B0EB810FEFD1D8F80010404601F08E
:101410000F01B14207D90770006800F00F00B04219
:1014200001D00120E7E72878400705D52068E96862
:1014300020F4E050084320602878000706D5206893
:10144000296920F4604040EAC100206000F036F8CD
:101450002168084AC1F30311515CC840064908607D
:101460000020FFF7FBFE0020C5E70000003C024023
:10147000083802407075000818000020044805492B
:1014800000680968044AC1F38221515CC840704772
:1014900018000020083802408075000804480549FB
:1014A00000680968044AC1F34231515CC840704782
:1014B000180000200838024080750008154810B553
:1014C000006810F00C02144813D04110042A0FD009
:1014D000082A0ED10F4C241F2268236802F03F0215
:1014E0005B0207D52068C0F38810A0FB010106E06D
:1014F000084610BD2168C1F38811A1FB000100233B
:10150000FEF75EFE2168C1F30141491C4900B0FBB2
:10151000F1F010BD083802400024F4002DE9F84F26
:10152000050076D02878DFF8F8B2BE4CC00749D065
:10153000DBF800105846C1F38101012908D000688A
:10154000C0F3810002280AD1201D0068400206D5A0
:101550002068800336D568680028E2D032E06868E9
:10156000B0F5803F10D0B0F5A02F206810D020F447
:1015700080302060206820F4802020606868A0B15E
:10158000FFF7B8FA06460CE0206840F48030F4E734
:1015900040F480202060F7E7FFF7ACFA801B642856
:1015A00073D820688003F7D50CE0FFF7A3FA06464E
:1015B00005E000BFFFF79EFA801B6428F0D8206882
:1015C0008003F7D42878DFF8608280074FF00009A5
:1015D0003ED5DBF80010584611F00C0F09D000681A
:1015E000C0F3810002280BD18D48001F0068400223
:1015F00006D42068800715D5E868012809D111E0D4
:10160000E868B8B10120C8F80000FFF773FA064691
:1016100005E002E1FFF76EFA801B0228C0D82068BF
:101620008007F7D52068296920F0F80040EAC1005A
:1016300020600DE0C8F80090FFF75CFA064604E071
:10164000FFF758FA801B02281FD820688007F7D4BC
:101650002878000722D5724E744869696C3671B1DA
:1016600001210160FFF746FA074604E0FFF742FA5E
:10167000C01B022809D830688007F7D50EE0C0F8F3
:101680000090FFF737FA074605E083E0FFF732FAEC
:10169000C01B02287ED830688007F7D4287840071E
:1016A00068D5DFF87CA100270AF1380ADAF80000D3
:1016B000C0000BD4DAF8001041F08051CAF80010D5
:1016C000DAF80000012700F080500090584E306892
:1016D000C00510D4306840F480703060FFF70AFA1B
:1016E000009005E0FFF706FA0099401A022851D849
:1016F0003068C005F6D54A4EA868683601280FD074
:101700000528306810D020F001003060306820F0EB
:1017100004003060A868B8B1FFF7ECF900900FE062
:10172000306840F00100F4E740F004003060F7E773
:10173000FFF7E0F90099411A41F28830814264D8FC
:1017400030688007F4D50EE0FFF7D4F9009007E089
:10175000FFF7D0F90099411A41F28830814254D8FC
:1017600030688007F4D42FB1DAF8001021F08051EE
:10177000CAF80010A869C0B3DBF80010C1F38101FA
:1017800002294AD00228484607D0C8F86000FFF76F
:10179000B1F900E039E005463AE04746C8F8600094
:1017A000FFF7A8F9064604E0FFF7A4F9801B02281A
:1017B0002BD820688001F7D4D5E907010843A96A2E
:1017C0001C4A490802EB01416A6A41EA8211084356
:1017D00095F82C1040EA01611148001F01600120BA
:1017E0003866FFF787F9054605E014E0FFF782F950
:1017F000401B022809D820688001F7D50BE000BF04
:10180000FFF778F9401B022802D90320BDE8F88FC2
:1018100020688001F4D40020F8E70120F6E70000FA
:10182000083802400038024000004742800E47421C
:10183000007000400000FFFFFEB5044603200D4687
:1018400084F83400606C032820D0B5F5805F1DD08B
:10185000B5F5006F05D045B1A06B40F00060A06306
:1018600009E0204602F061F902E0204602F036F974
:10187000A16B0143A163A06B012658B1216840F21E
:10188000FF50886384F834600120FEBDA06B40F0F7
:101890008050E4E7211DD4E905700EC90095CDE91B
:1018A0000170206801F0C9FC84F834600020FEBD9E
:1018B000F0B5426E120E93090B70C2F383034B70A6
:1018C00002F003028A70426E120CCA70B0F86420F3
:1018D000120A0A7190F864204A71826E4FF6FF7303
:1018E000120E03EA0212CA80826ECB88C2F307424C
:1018F00043EA1213CB8002F00F020A72B0F868209C
:10190000C2F30722D3094B72C2F380138B72C2F366
:101910004013CB72C2F300130B7300264E73446C5A
:101920004FF4007701236CB1012C43D0026840F2E0
:10193000FF519163816B41F08051816380F83430B5
:101940000120F0BD9207120D0A6190F868200C6921
:1019500044EA82020A61C26E0C69120E44EA9214D1
:101960000C61C2F3C2040C7502F007024A75C26E24
:10197000C2F3074254098C75C2F38204CC759207F6
:10198000520F0A76B0F86C20C2F307240A7E42EAAE
:10199000D4120A760A69521C42650D7EAD1CAA401B
:1019A00042650D7A03FA05F585656D0A6A43C0E95B
:1019B00017271CE090F868209206920A0A61C26E0E
:1019C0000C69120E44EA02220A61C26E0C69C2F36B
:1019D000074214430C61B0F86C20C2F307240A6973
:1019E000521C4FEA82224265C0E916720766C4F3B0
:1019F000801201F8192F4FEA84624FEA52624A704E
:101A000010F86C2F4C7844EAD2144C7002F07F022C
:101A10008A7042684FEA12624FEAD214CC70C2F365
:101A200041140C71C2F382044C714FEA82724FEA86
:101A300012728A7142688C79C2F3074244EA9214A6
:101A40008C71C2F34014CC710E7202F001024A7222
:101A50008288C2F307224FEAD2148C72C2F3801438
:101A6000CC72C2F340140C73C2F300144C73C2F373
:101A700081048C7302F00302CA7300794FEA5000AC
:101A800008744B744FF00000F0BD426C0A60826C29
:101A90004A60C26C8A60026DCA60426D0A61826DE2
:101AA0004A61C26D8A61006EC8610020704770B5DE
:101AB0000446B0F8500000250104206801F03BFD09
:101AC00018B1A16B0143A16304E00021206801F07B
:101AD000AEFB0546C5F3432070BD70B5040004D0CD
:101AE00094F83400002510B105E0012070BD257781
:101AF000204600F037F8032084F83400204600F038
:101B000007F8A5632563012084F83400002070BD28
:101B1000FEB50025044676200095CDE901502B4600
:101B20002A462946206801F088FB0D4E46F8A05F42
:101B3000206801F094FB012535600220FEF736FE97
:101B4000204601F07AFF20B9204601F003FF00286B
:101B500005D084F83450A16B0143A1630120FEBD80
:101B600000802542F0B587B0044614216846FEF790
:101B70005FFB1D492068884233D11C48002401685E
:101B800041F400610160006800F4006005901748AE
:101B90001438016841F004010160016801F004019A
:101BA0000591016841F0080101600068022500F01C
:101BB000080005904FF4F850CDE9000502AA03266D
:101BC0000C2782E8D00069460948FEF7A9FE0420E8
:101BD000CDE9000502AA694682E8D0000548FEF773
:101BE0009FFE07B0F0BD0000002C014044380240C9
:101BF00000080240000C02402DE9F04F87B09A46E1
:101C000017460E460446DDF840B0FEF773FF00901D
:101C10003EB194F83400012807D0A06B40F000508A
:101C20000FE0A06B40F000600BE04FF00008C4F83C
:101C30003880E06D07EB0A01814204D9A06B40F0C7
:101C40000070A0637DE0032084F834002068C0F8B1
:101C50002C80606C012800D07F024FF40071206856
:101C600001F04CFB40F2FF59012530B12268C2F867
:101C70003890A16B0143A16361E04FF0FF30019008
:101C80004FEA4A200290902003900220CDE90408F8
:101C9000069501A9206801F0B4FABAF1010F06D93E
:101CA000022020633946206801F0B6FB04E025637A
:101CB0003946206801F0C9FB0028D7D140F22A3804
:101CC0002068416B11EA080F22D1406B000409D54E
:101CD0000027206801F0C7FA46F827007F1C082F6C
:101CE000F7D32036BBF1000F05D0FEF703FF0099B4
:101CF000411A5945E4D32168C1F83890A06B40F0EF
:101D00000040A06384F83450032007B0BDE8F08F92
:101D1000416BC90509D5BAF1010F06D9616C0329D8
:101D200003D001F039FC0028A0D12068416B0907DD
:101D300009D5C0F83890A06B40F0080028E084F87E
:101D400034500120E1E7416B890705D5C0F8389090
:101D5000A06B40F002001BE0416B89061AD5C0F869
:101D60003890A06B40F0200012E000BF01F07BFA39
:101D700001C6BBF1000F05D0FEF7BCFE0099411A69
:101D8000594507D32168C1F83890A06B40F0004056
:101D9000A063D4E72068416B8902E7D42168C1F8C9
:101DA000389084F834500020AFE700002DE9F04F60
:101DB00087B09A4616460D460446FEF79BFE0690EF
:101DC0003DB194F83400012807D0A06B40F00050DA
:101DD0000DE0A06B40F0006009E00020A063E26D20
:101DE00006EB0A01914204D9A06B40F00070A06399
:101DF00090E0032184F8341021688146C862606C49
:101E0000012800D076024FF40071206801F076FAC4
:101E100040F2FF58012730B12268C2F83880A16B28
:101E20000143A16317E0BAF1010F06D92020206316
:101E30003146206801F0CAFB05E0102020633146DE
:101E4000206801F0DCFB060008D02168C1F838806A
:101E5000A06B3043A06384F834705BE04FF0FF3038
:101E600000904FEA4A200190902002904846CDE928
:101E70000407CDF80C90B9466946206801F0C1F915
:101E800040F21A3B22E0406B40040AD55FF00007A5
:101E900005EB8701206801F0F9F97F1C082FF7D3C3
:101EA0002035109830B1FEF725FE0699411A10989A
:101EB00081420BD32168C1F83880A06B3043A06306
:101EC00084F83490032007B0BDE8F08F2068416BA0
:101ED00011EA0B0FD7D0416BC9050FD5BAF1010F2D
:101EE0000CD9616C032909D001F056FB30B122688E
:101EF000C2F83880A16B0143A16309E02068416BFF
:101F0000090709D5C0F83880A06B40F0080014E03C
:101F100084F834900120D6E7416B890705D5C0F8D5
:101F20003880A06B40F0020007E0416BC0F83880B9
:101F3000C90604D5A06B40F01000A063E8E784F860
:101F400034900020BFE7704790F8510070470000C0
:101F500038B5016804464A688868C043430606D518
:101F6000C30704D1D3435B0601D4216C05E083078A
:101F700008D4D3431B0605D4616C01B02046BDE8EC
:101F800030400847830603D5430601D5C30551D425
:101F9000D3439B064ED443060AD494F85130032B06
:101FA00049D0636D43F004036365CB688B6800938D
:101FB000830609D4636D43F0010363658B68009366
:101FC0000B6823F040030B60C00506D4606D40F041
:101FD00008006065206880680090606D002829D046
:101FE0002068416821F0E0014160012084F851003F
:101FF000900701D4D00722D02068416821F0030166
:102000004160114DE06C40B10565E06CFEF782FA6D
:1020100018B1606D40F040006065A06C002809D0E8
:102020000565A06CFEF776FA002803D0606D40F0DD
:102030004000606538BDC8688868009038BD20469B
:10204000FFF781FF38BD0000493C000870B504006F
:1020500005D00025A56294F8510010B106E00120DA
:1020600070BD84F85050204600F030F8022084F80B
:1020700051002068016821F040010160D4E90101AC
:102080000843D4E903121143084361690843218BD3
:1020900001F400710843E1690843216A0843A16A19
:1020A000084321680860A069042101EA1040616AC0
:1020B0000843216848602068C16921F40061C1615A
:1020C0006565012084F85100002070BD2DE9F043C2
:1020D00087B0064614216846FEF7AAF830493068F2
:1020E000884259D12F480024016841F48051016091
:1020F000006800F4805005902A481438016841F0C7
:10210000010101600068694600F001000590E020CF
:1021100000900220CDE901040320039005200490E3
:102120002148FEF7FDFB224D20484FF0C067E5E84F
:10213000020740204FF48068A5E811014FF44039B0
:1021400045F814491A48AC61C5E907496C62FEF7C5
:10215000C3FA08B1FEF7BAF9B564AE63144D13487B
:10216000603548382860C5E90174C5E903486C61E9
:10217000AC61C5E9074928466C62FEF7ADFA08B1C3
:10218000FEF7A4F9F564002211462320AE63FFF7A1
:10219000ABF82320FFF79AF807B0BDE8F083000002
:1021A00000300140443802400000024058640240C0
:1021B000001400202DE9F84F044690F85000002745
:1021C0001D461646894601280DD04FF0010B84F8B4
:1021D00050B0FEF78FFC804694F85100BA460128B3
:1021E00004D002278EE00220BDE8F88FB9F1000F7D
:1021F0007DD0002E7BD0032084F85100C4F854A079
:10220000C4F83090A686E686C4F838A0A4F83CA0AE
:10221000A4F83EA0C4F844A0C4F840A0A068B0F55B
:10222000004F04D12068016841F4804101602068BA
:102230000168490603D4016841F040010160E0688B
:10224000B0F5006F606803D030B3012E24D040E0B9
:1022500008B1012E1CD1206B21680088C86006E0FF
:1022600020688168890709D5216B0988C160206BC6
:10227000801C2063E08E401EE08609E0FEF73AFCF9
:10228000A0EB0800A84202D3681C01D031E07DB366
:10229000E08E0028E4D11FE0206B216800780873ED
:1022A00006E020688168890709D5216B09780173E8
:1022B000206B401C2063E08E401EE08609E0FEF7A4
:1022C00019FCA0EB0800A84202D3681C01D010E062
:1022D00075B1E08E0028E4D142462946204601F03F
:1022E000BBFC08B120206065A06820B107E008E0D1
:1022F000FFE7032706E02068C16880680090606DF2
:1023000000B1012784F851B084F850A038466BE73B
:1023100010B5401EB0F1807F01D3012010BD4FF0F9
:10232000E02460610F21601702F02DF90020A06108
:1023300007202061002010BD70B590F83C20012AD4
:1023400019D0012400F83C4F0222427050F83C3C66
:102350005A689D6822F070060A684968324325F081
:10236000800529435A6050F83C2C9160447000214C
:102370000170084670BD022070BD10B5040003D086
:1023800094F83D0010B107E0012010BD002084F852
:102390003C00204600F00CF8022084F83D00211D8E
:1023A000206801F03FFD012084F83D00002010BDB1
:1023B00008B500680649884208D10648016841F01E
:1023C00002010160006800F00200009008BD0000FA
:1023D000000400404038024070B5044690F83C00CC
:1023E000012817D0012584F83C50022084F83D00D4
:1023F0002068826822F0770222F47F4282600868B7
:10240000502830D00DDC20284DD005DC98B31028A2
:102410003BD148E0022070BD302844D0402834D160
:1024200039E0602828D0702806D0B0F5805F2CD025
:10243000B0F5005F29D10AE0CB68D1E9012120681D
:1024400001F061FD2068816841F0770109E0CB6807
:10245000D1E90121206801F056FD2068816841F42E
:102460008041816011E0CA684968206801F020FE5F
:102470005021206807E016E0CA684968206801F02A
:1024800028FE6021206801F048FD84F83D500020BE
:1024900084F83C0070BDCA684968206801F008FEF5
:1024A00040212068EFE7226801461046EBE7000074
:1024B00010B586B0044614216846FDF7B9FE0E49F2
:1024C0002068884215D10D480021026842F00202BE
:1024D0000260006800F002000590012000900220D8
:1024E000CDE901010321CDE9031069460448FEF757
:1024F00017FA06B010BD000000040040303802405A
:102500000004024070B5044690F83C000D460128D6
:102510000DD0012684F83C60022084F83D0042B1D1
:10252000042A18D0082A2AD00C2A4DD139E00220DA
:1025300070BD206801F0FAFC2068816941F0080153
:1025400081612068816921F00401816120688169CD
:102550002A69114311E0206801F018FD20688169A3
:1025600041F4006181612068816921F480618161A9
:10257000206881692A6941EA0221816124E020689A
:1025800001F03AFD2068C16941F00801C16120688D
:10259000C16921F00401C1612068C1692A69114340
:1025A00011E0206801F05CFD2068C16941F4006120
:1025B000C1612068C16921F48061C1612068C1697D
:1025C0002A6941EA0221C16184F83D60002084F853
:1025D0003C0070BD10B5040003D094F83D0010B16C
:1025E00007E0012010BD002084F83C00204600F0E8
:1025F0000CF8022084F83D00211D206801F012FC37
:10260000012084F83D00002010BD704710B504463D
:102610000068012201F06AFC0B492068884202D060
:102620000A49884203D1416C41F400414164206869
:10263000816801F00701062903D0016841F001011A
:102640000160002010BD00000000014000040140B6
:102650007047000070B5026804461068D16853697D
:1026600010F00F0F50D003F0010501F490763543C0
:102670005DD0C20705D0CA0503D5E26B42F0010266
:10268000E263420705D5DA0703D0E26B42F00202AB
:10269000E263820705D5DA0703D0E26B42F0040259
:1026A000E263020705D5DA0703D0E26B42F00802C5
:1026B000E263E26B002A33D0800604D5880602D597
:1026C000204601F02EFD20684069E16BC0F38010C8
:1026D000090700D428B3204601F015FD20684169A0
:1026E00049061AD5416921F040014161606BA0B1F2
:1026F0001B490165606BFDF70DFF002810D0606B72
:10270000016DBDE870400847830610D58B060ED5D5
:102710002046BDE8704001F004BD2046FFF798FF59
:1027200070BD2046FFF794FF0020E06370BD0306F4
:1027300006D50B0604D52046BDE8704001F092BED8
:102740004006F3D54806F1D5D168204621F0400176
:10275000D160202184F8391000F01FF970BD00000D
:10276000F740000870B5040004D094F83900002543
:1027700010B106E0012070BD84F83850204600F00A
:1027800023F8242084F839002068C16821F400511E
:10279000C160204601F010FD2068016921F49041DC
:1027A00001612068416921F02A0141612068C16806
:1027B00041F40051C160E563202084F8390084F8B9
:1027C0003A00002070BD000010B586B00446142108
:1027D0006846FDF72DFD17492068884228D1164824
:1027E000016841F010010160006800F010000590E0
:1027F00011481438016841F002010160006869461F
:1028000000F002000590C0200090022001900120FD
:10281000029003200390072004900848FEF780F8F8
:10282000002211462520FEF75FFD2520FEF74EFD14
:1028300006B010BD001001404438024000040240C0
:102840002DE9F843044690F83A00994616460D469D
:1028500020284FD195B18EB194F83800012849D085
:10286000012084F838000027E763222084F83A002A
:10287000FEF740F9A6858046E68531E00120BDE8F7
:10288000F883E08D401EE085A0684346B0F5805F88
:102890004FF000024FF020012046CDF8009004D008
:1028A00001F011FE98B10320E9E701F00CFE0028C9
:1028B000F9D1206900282068406803D0C1B225F80A
:1028C000011B0DE0C0F3080125F8021B08E0206998
:1028D00000282068406801D000F07F0005F8010B57
:1028E000E08D0028CDD1202084F83A0084F838709B
:1028F0000020C4E70220C2E790F83A30202B22D112
:10290000F9B1F2B190F83830012B1CD08162828588
:10291000C2850021C163222280F83A2080F8381055
:102920000168CA6842F48072CA6001684A6942F06C
:1029300001024A610068C16841F02001C1600020C5
:10294000704701207047022070470000024988420A
:1029500001D102F057BA70470015002090F83930C5
:10296000202B18D1A9B1A2B190F83830012B12D088
:1029700001628284C2840021C163212280F839204F
:1029800080F838100068C16841F08001C160002003
:10299000704701207047022070477047FEE70168CA
:1029A0004A69D24352050FD46FF480624A61002114
:1029B00040F8301F202242738173026942F0040202
:1029C0000261017301207047002070472DE9F84F24
:1029D0000446C06A1E4692460D4621680A6842F4C3
:1029E00080620A60082807D0012805D010F5803FD2
:1029F00002D0206B112804D12068016841F4807155
:102A000001604FF0011853460022414620460096CF
:102A100000F023F9F0BB206908F10109B0F5804FFF
:102A20000FD00620216800EAD51747F0F0000861B2
:102A30003346524608F10701204600F042F948BBF0
:102A400003E0E8B240F001001BE02168E8B2086151
:102A5000334652464946204600F033F9D0B9206843
:102A6000416981690091016841F4807101605346B8
:102A7000002241462046009600F0EFF850B947F09A
:102A8000F10021680861334652464946204600F06D
:102A900018F900E001E0002800D00120BDE8F88F1F
:102AA000F8B50446C06A1E460D461746082807D0EA
:102AB000012805D010F5803F02D0206B122804D1E8
:102AC0002068016841F480710160134600224FF0D4
:102AD00001112046009600F0C0F808BB2069B0F54F
:102AE000804F0ED00620216800EAD51040F0F0009B
:102AF000086133463A460B49204600F0E2F878B9BF
:102B000002E005F0FE0000E0E8B221680861054936
:102B100033463A46891F204600F0D3F8002800D0FB
:102B20000120F8BD080001002DE9F84F04460068B7
:102B300089460B9D01689846174641F48061016003
:102B40002068016841F48071016000954FF0011A1E
:102B50000022514620460A9B00F07FF8002853D1FE
:102B6000216809F0FE0008610AF1010B2B46594665
:102B700020460A9A00F0A5F8F0BB206841698069F8
:102B800000902A4620460A9900F019F940B1206CBD
:102B9000042839D12068016841F40071016033E0F4
:102BA000FEB2B8F1010F09D02168380A08612A463F
:102BB00020460A9900F003F90028E8D12068066150
:102BC0002A4620460A9900F0FAF80028DFD120684A
:102BD000016841F480710160009500225146204651
:102BE0000A9B00F03AF838B9216809F0FF0040F07C
:102BF000010008612B4600E006E0594620460A9A8B
:102C000000F05FF8002800D00120BDE8F88F70B513
:102C100016460D4604460DE02046FFF7C0FE08B1FB
:102C2000012070BD681C05D0FDF764FF801BA84221
:102C300007D835B120684069C0434007ECD4002074
:102C400070BD002044F8300F20216173A07321690A
:102C500041F0200121612073E2E72DE9F0471E4693
:102C600090460D460446C1F30747DDF8209008E082
:102C7000701C06D0FDF73EFFA0EB0900B0420FD854
:102C800076B12068012F18D0806925EA0000000481
:102C9000000C14D000214145EAD00020BDE8F087A7
:102CA000002044F8300F20216173A073216941F0A6
:102CB0002001216120730120F0E74069E5E701214F
:102CC000E9E72DE9F0479A4691460E46044600256D
:102CD0004FF02008C1F3074725E020684069C04352
:102CE000400514D42068016841F400710160216836
:102CF0006FF480604861256384F83D8084F83E501D
:102D0000206C40F00400206484F83C501FE0B9F1CE
:102D1000FF3F08D0FDF7EEFEA0EB0A0149450CD8B5
:102D2000B9F1000F09D02068012F13D0806926EA7D
:102D300000000004000C0BD0CFE744F8305F84F8AB
:102D40000D80A573206940F02000206125730120CB
:102D5000BDE8F0874069EAE72DE9F041002590469B
:102D60000E460446202717E04069C043C0060CD435
:102D700054F8301B6FF01000486144F81059677721
:102D8000A577206A2062257717E0FDF7B3FEA0EB58
:102D90000800B04208D83EB120684169C9434906DD
:102DA000E2D40020BDE8F08144F8305F6773A5737A
:102DB000206940F02000206125730120F2E770B502
:102DC00016460D4604460DE02046FFF7E8FD08B123
:102DD000012070BD681C05D0FDF78CFE801BA84249
:102DE00007D835B120684069C0430006ECD4002004
:102DF00070BD002044F8300F20216173A073216959
:102E000041F0200121612073E2E700000D4808B580
:102E1000016841F4800101600068002200F4800034
:102E2000009011463820FEF75FFA3820FEF74EFA80
:102E3000002211463B20FEF757FABDE808403B2030
:102E4000FEF744BA3038024010B504490448FDF793
:102E50003EFB0249491E087010BD0000060000201C
:102E6000547500082DE9F04387B014216846FDF73A
:102E7000DFF95F480024016841F0800101600168CA
:102E800001F080010591016841F0010101600168D4
:102E900001F001010591016841F004010160016840
:102EA00001F004010591016841F00201016001682F
:102EB00001F002010591016841F00801016001681B
:102EC00001F008010591016841F0400101600068CE
:102ED000484F00F040000590002210213846FDF7D1
:102EE00003FE012220213846FDF7FEFDDFF80881B0
:102EF000012206214046FDF7F7FDDFF80091002290
:102F000038214846FDF7F0FD042000903C48CDE90B
:102F100001043C4D69462846FDF702FD1020009053
:102F20003948CDE9010469462846FDF7F9FC30200F
:102F300001250326CDE90005CDE90246694638465C
:102F4000FDF7EEFC0620CDE90005CDE90246694615
:102F50004046FDF7E5FC700200902C48CDE90104E5
:102F600069464846FDF7DCFC1820CDE90005CDE9AF
:102F7000024669464846FDF7D3FC20200090CDE983
:102F80000154694648460394FDF7CAFCC0208DE809
:102F9000310069464846FDF7C3FC68028DE8310000
:102FA00069461B48FDF7BCFC002211460820FEF7CD
:102FB0009BF90820FEF78AF9002211460A20FEF745
:102FC00093F90A20FEF782F9002211461720FEF736
:102FD0008BF91720FEF77AF9002211462820FEF718
:102FE00083F92820FEF772F907B0BDE8F0830000EE
:102FF000303802400008024000040240000C024049
:1030000000003110000002400000211000001110EB
:10301000001802400D4810B50B4901600C49416091
:1030200000214FF480428160C0E903124161816157
:10303000C1610162FDF764FD002803D0BDE81040C6
:10304000FDF744BA10BD0000005400407C1200207F
:10305000A08601000D4810B50B4901600C49416084
:1030600000214FF480428160C0E903124161816117
:10307000C1610162FDF744FD002803D0BDE81040A6
:10308000FDF724BA10BD000000580040D012002007
:10309000A086010006480549016000214160816069
:1030A000C16001614161816170470000002C0140F5
:1030B000241300200F4810B50D4901604FF48271B0
:1030C000416000218160C1604FF400720161C0E97C
:1030D0000512C1610162416281620A21C162FEF78B
:1030E000B5FF002803D0BDE81040FDF7EFB910BDD3
:1030F00000300140A813002030B58DB000240794A3
:10310000089409940A940B941C2168460C94FDF7CA
:103110008FF81F481D4940F2E73502C040F28F6129
:1031200032C040F8104984611948FFF726F908B108
:10313000FDF7CCF94FF48050079007A91448FFF72A
:103140004BF908B1FDF7C2F91148FFF743FA08B18E
:10315000FDF7BCF90B940BA90D480C94FFF7ECF8A4
:1031600008B1FDF7B3F960200090CDE901540822C1
:10317000694607480494FFF7C5F908B1FDF7A6F9B9
:103180000348FFF795F90DB030BD00000004004082
:10319000C01400200C4810B50A4901604FF4E13119
:1031A0004160002181600C22C160C0E9041281618C
:1031B000C161FFF7D7FA002803D0BDE81040FDF742
:1031C00085B910BD0010014000150020FEE77047D2
:1031D00010B504210248FDF77BFC0249087010BDC0
:1031E00000000240D40E002010B504210248FDF773
:1031F0006FFC0249087010BD00000240D40E002090
:1032000070470A6842624A688262D1E902231A431F
:10321000D1E904310B43C16A1A4321F0F70111438C
:10322000C16200207047006800F00300704708B5D5
:10323000084414300090006808BD70B50DF1100C02
:1032400011439CE8700023431943294342683143EA
:1032500047F6FF639A430A434260002070BD032192
:10326000016000207047D0F8800070470A688260D3
:10327000D1E901231A43D1E903310B43C1681A4351
:103280006FF30B011143C160002070470968C0F85B
:1032900080100020704710B586B004463720CDE975
:1032A000001040200290002003904FF480600490B2
:1032B00069462046FFF7DAFF41F28832372120467F
:1032C00000F0B6F906B010BD10B504460A4886B045
:1032D00001432920CDE900104020029000200390F6
:1032E0004FF48060049069462046FFF7BFFF2046F8
:1032F00000F054FA06B010BD0000108010B586B082
:1033000004461020CDE900104020029000200390D8
:103310004FF48060049069462046FFF7A7FF41F212
:1033200088321021204600F083F906B010BD10B598
:1033300086B004460620CDE900104020029000200F
:1033400003904FF48060049069462046FFF78EFF9B
:1033500041F288320621204600F06AF906B010BD1D
:1033600030B585B000240546009401944FF4806088
:103370000294CDE9034069462846FFF777FF0B48E2
:103380004FF4FA510068B0FBF1F041F28831484344
:10339000401E03D24FF0004005B030BD696B0906F6
:1033A000F6D540F2FF50A8632046F5E7180000204C
:1033B00070B585B004464FF4D570009008204026C3
:1033C000CDE901060025C001CDE90350694620463C
:1033D000FFF74CFF0F484FF4FA510068B0FBF1F0D3
:1033E00041F288314843401E02D24FF000450DE0C3
:1033F000616B11F0450FF6D0606B400702D5A663F4
:10340000042503E0606B400600D5A66305B028469E
:1034100070BD00001800002010B586B004461220D0
:10342000CDE9001040200290002003904FF480600E
:10343000049069462046FFF719FF41F288321221B5
:10344000204600F0F5F806B010BD10B586B0044671
:103450001120CDE9001040200290002003904FF48D
:103460008060049069462046FFF700FF41F28832F1
:103470001121204600F0DCF806B010BD10B586B072
:1034800004460720CDE90020402002900020039050
:103490004FF48060049069462046FFF7E7FE41F252
:1034A00088320721204600F0C3F806B010BD10B5E1
:1034B00086B0044600210220CDE90010C020CDE9ED
:1034C00002014FF48060049069462046FFF7CEFE6B
:1034D000204600F03BF906B010BD10B586B004469A
:1034E0000920CDE90010C0200290002003904FF485
:1034F0008060049069462046FFF7B8FE204600F041
:1035000025F906B010BD10B586B004460021332061
:10351000CDE900104020CDE9020100010490694688
:103520002046FFF7A3FE41F288323321204600F007
:103530007FF806B010BD10B586B004460D20CDE969
:10354000001040200290002003904FF4806004900F
:1035500069462046FFF78AFE41F288320D21204657
:1035600000F066F806B010BD30B585B00C460546D3
:1035700000210320CDE900104020CDE90201000127
:10358000049069462846FFF771FE2246032128462B
:1035900000F024F905B030BD10B586B00446002116
:1035A0000C20CDE900104020CDE90201000104907B
:1035B00069462046FFF75AFE034A0C21204600F0D8
:1035C00037F806B010BD000000E1F50510B586B073
:1035D00004461920CDE900104020029000200390FD
:1035E0004FF48060049069462046FFF73FFE41F2A9
:1035F00088321921204600F01BF806B010BD10B526
:1036000086B004461820CDE900104020029000202A
:1036100003904FF48060049069462046FFF726FE31
:1036200041F288321821204600F002F806B010BDA1
:10363000444B10B51B684FF4FA54B3FBF4F35343F7
:103640005B1E02D24FF0004010BD426B12F0450FDE
:10365000F6D0426B520703D504218163084610BDA2
:10366000426BD20702D00121816303E00269D2B22A
:103670008A4201D0012010BD40F2FF518163002138
:10368000FFF7D5FD3049084201D1002010BD0028C8
:1036900002DA4FF0007010BD410001D5402010BD8E
:1036A000810001D5802010BDC10002D54FF480708B
:1036B00010BD010102D54FF4007010BD410102D5CB
:1036C0004FF4806010BDC10102D54FF4006010BD01
:1036D000010202D54FF4805010BD410202D54FF4D3
:1036E000005010BD810202D54FF4804010BDC102D0
:1036F00002D54FF4004010BD410302D54FF4003015
:1037000010BD810302D54FF4802010BDC10302D546
:103710004FF4002010BD010402D54FF4801010BDFD
:10372000410402D54FF4001010BD810402D54FF4BE
:10373000800010BD000702D54FF4000010BD4FF40B
:10374000803010BD1800002008E0FFFD12494FF442
:10375000FA520968B1FBF2F141F288325143491E35
:1037600002D24FF000407047426B12F0450FF6D086
:10377000416B490703D50421816308467047416BBB
:10378000C90703D0012181630846704740F2FF5109
:103790008163002070470000180000200E494FF49C
:1037A000FA520968B1FBF2F141F288325143491EE5
:1037B00002D24FF000407047426B12F0450FF6D036
:1037C000416B490703D5042181630846704740F2E5
:1037D000FF51816300207047180000201F4B10B577
:1037E0001B684FF4FA54B3FBF4F341F2883463439B
:1037F0005B1E02D24FF0004010BD446B14F0450F29
:10380000F6D0436B5B0703D504218163084610BDE6
:10381000436BDB0702D00121816303E00369DBB264
:103820008B4201D0012010BD40F2FF518163002185
:10383000FFF7FDFC10F4604F04D0410406D54FF4AF
:10384000005010BD000C1080002010BD000402D5F7
:103850004FF4805010BD4FF4803010BD1800002090
:1038600010B5064C01202070FCF754FD18B92078E3
:1038700020F001002070207810BD0000040000201E
:103880002DE9F04F89B00E460446FDF733F90025C7
:103890008346009501952F4608212068FFF72EFDED
:1038A000002834D1B4F8500001042068FFF7F3FC7D
:1038B00000282CD1401E4FF00808CDE90208302026
:1038C0004FF00209CDE904090120CDE9067002A9F3
:1038D0002068FFF796FC2068FFF715FE002816D138
:1038E000EA4640F22A472068416B394212D1416BC7
:1038F000890204D5FFF7B7FC4AF825006D1CFDF7D7
:10390000F9F8A0EB0B00401CEDD14FF0004009B0DE
:10391000BDE8F08F416B090703D5C0F83880082057
:10392000F5E7416B890703D5C0F838900220EEE730
:10393000416B890603D5202181630846E7E740F201
:10394000FF518163009800BA7060019800BA30603E
:103950000020DCE710B590B004460120ADF8380037
:103960002068FFF760FC002864D0606C032842D018
:103970002068FFF79CFD00285AD100212068FFF73E
:1039800056FC606704212068FFF751FCA0670821FE
:103990002068FFF74CFCE0670C212068FFF747FC2C
:1039A000C4F88000606C032825D00EA92068FFF7BA
:1039B000DBFD00283CD1606C03281CD0BDF838002A
:1039C000206501042068FFF788FD002830D1002120
:1039D0002068FFF72CFC606604212068FFF727FCB5
:1039E000A06608212068FFF722FCE0660C21206811
:1039F000FFF71DFC206704212068FFF718FC000D6D
:103A0000E06403A92046FDF753FFB4F850000023FB
:103A100002042068FFF732FD002809D104F11000EC
:103A200007C88DE8070094E80F00FFF706FC0020A8
:103A300010B010BD4FF08060FAE72DE9F843002583
:103A4000044600950068FFF78BFC00281AD1206817
:103A5000FFF7AEFC4FF080784FF6FF76D8B14FF00D
:103A60008057A5640098411C0091B0421AD00021F3
:103A70002068FFF710FC20B900212068FFF724FC24
:103A800010B13846BDE8F88300212068FFF7CFFB6E
:103A9000C00FE7D01FE00127A7640098411C0091E8
:103AA000B04201D14046EDE700212068FFF7F3FB6B
:103AB0000028E7D14FF080412068FFF705FC00287F
:103AC000E0D100212068FFF7B2FBC10FE5D0400034
:103AD00001D5676400E065640020D3E71CB50446A7
:103AE00000200090019000212068FFF7A0FB8001DA
:103AF00002D54FF400601CBD69462046FFF7C0FEAA
:103B00000028F8D10198C0030CD5B4F85000010486
:103B10002068FFF7C0FB0028EDD100212068FFF7E7
:103B200006FC1CBD4FF080601CBD1CB50446002087
:103B30000090019000212068FFF779FB800102D5F9
:103B40004FF400601CBD69462046FFF799FE00282F
:103B5000F8D1019840030CD5B4F850000104206856
:103B6000FFF799FB0028EDD102212068FFF7DFFB6A
:103B70001CBD4FF080601CBD70B5064C0546012091
:103B80002070FCF7D3FB18B92846FFF769FE2070B8
:103B9000207870BD0400002010B5124888B014468B
:103BA0000078C00702D0032008B010BDC1B10129C0
:103BB00005D0022908D003290CD00420F4E7684678
:103BC000FCF7A2FB06980AE06846FCF79DFB079805
:103BD000208005E06846FCF797FB0798400A2060C4
:103BE0000020E1E70400002070B51D461646084697
:103BF0000124A31E2A463146FCF7B2FB28B900BFB8
:103C0000FCF788FB0028FBD10024204670BDFFF79D
:103C100027BE000070B51D46164608460124A31EA7
:103C20002A463146FCF7ACFB28B900BFFCF772FB13
:103C30000028FBD10024204670BD00000148FEF79B
:103C400087B90000A813002010B5806B0021C18740
:103C5000C186FEF778F910BD38B504461248134BFB
:103C60000068B0FBF3F04FF47A735843009060683B
:103C7000B0F5827F0DD10B460092002280212046B4
:103C800000F016F870B1606D40F020006065032010
:103C900038BD009830B1401E009020688068C04355
:103CA0000006F6D5002038BD1800002000366E0151
:103CB0002DE9F0411D4617460E460446DDF81880F2
:103CC00008E0681C06D0FCF715FFA0EB0800A8422E
:103CD0000BD255B12068806836EA000030D0002051
:103CE000B842EED10020BDE8F0812068416821F0A3
:103CF000E00141606068B0F5827F0BD1A068B0F54B
:103D0000004F02D0B0F5806F04D12068016821F027
:103D100040010160A06AB0F5005F09D12068016828
:103D200021F4005101602068016841F400510160F4
:103D3000012084F85100002084F850000320D2E7CD
:103D40000120CDE77047FDF767BA000030B593B0AA
:103D500030216846FCF76CFA14210CA8FCF768FACD
:103D600019480025016841F080510160006800F0A9
:103D7000805011901548016841F48041016000684D
:103D8000022400F480401190012000900004019072
:103D90008001CDE9064004200890A820CDE909045F
:103DA00007200B906846FDF7B9FB0CA90F2081E8AE
:103DB00031004FF4A0500F90E002109005210CA8A4
:103DC000FDF7C4FA13B030BD403802400070004027
:103DD0001048016841F4700101600F48016841F02A
:103DE000010101600C4A00210832116002680B4B8E
:103DF0001A400260031D0A4A1A60026822F48022F7
:103E0000026005480C30016002495806803908609C
:103E10007047000088ED00E000380240FFFFF6FE2A
:103E200010300024F0B50268254C264D264E274F51
:103E3000274B4FF0804CA04209D0604507D0A842E4
:103E400005D0B04203D0B84201D0984204D122F04C
:103E5000700E4A6842EA0E02A0421BD0604519D09B
:103E6000A84217D0B04215D0B84213D0984211D012
:103E7000184DA8420ED0184DA8420BD0174DA8429D
:103E800008D0174DA84205D0164DA84202D0164DB5
:103E9000A84203D122F44075CA682A434D6922F032
:103EA00080022A4302608A68C2620A688262A04273
:103EB00001D0984201D10969016301214161F0BD3E
:103EC000000001400004004000080040000C0040D9
:103ED000000401400040014000440140004801400E
:103EE00000180040001C00400020004010B501F008
:103EF0001F030121046A99408C430462016A9A40BD
:103F00001143016210BD10B5846842EA032224F413
:103F10007F440A432243826010BD826822F070020F
:103F20000A4342F00701816070470000F0B5026A61
:103F300022F001020262036A42688469124E24F090
:103F400073050C682C4323F002058B682B430D4D41
:103F5000A84201D0B04205D123F00807CB683B430B
:103F600023F00403A84201D0B04205D14D6922F4E8
:103F7000407215438A692A434260846149684163FB
:103F80000362F0BD0000014000040140F0B5026A88
:103F900022F010020262026A436884690D6824F408
:103FA000E64444EA05248D6822F0200242EA051224
:103FB0000F4D104EA84201D0B04206D1CF6822F07A
:103FC000800242EA071222F04002A84201D0B04229
:103FD00007D14D6923F4406343EA85038D6943EAC1
:103FE000850343608461496881630262F0BD00001B
:103FF0000000014000040140F0B5026A22F4807222
:104000000262026A4368C46922F4007224F07305F4
:104010000C68124E2C438D6842EA05220E4DA842D0
:1040200001D0B04206D1CF6822F4006242EA0722F2
:1040300022F48062A84201D0B04207D14D6923F436
:10404000405343EA05138D6943EA05134360C46195
:104050004968C1630262F0BD0000014000040140F4
:1040600030B5026A22F480520262046A4268C3696F
:104070000D6823F4E64343EA05238D6824F40054D5
:1040800044EA0534084DA84202D0084DA84204D1A4
:104090004D6922F4804242EA85124260C361496858
:1040A0000164046230BD00000000014000040140D2
:1040B00010B5036A046A24F001040462846924F0E0
:1040C000F00444EA021423F00A020A438461026203
:1040D00010BD10B5036A23F0100303628369046AFC
:1040E00023F4704343EA023224F0A00343EA0111AF
:1040F0008261016210BD10B5806B0021C185C18451
:10410000FEF7A6FA10BD0168CA6822F49072CA6070
:1041100001684A6922F001024A61202180F83A10C0
:10412000704710B590F83A10222901D0022010BD36
:104130008168B1F5805F11D00169002901681FD045
:10414000496801F07F03816A4A1C82620B70C18D4D
:10415000491E0904090CC18518D02BE00269816A47
:10416000002A0268526805D0D2B20A80816A491CCE
:104170008162ECE7C2F308020A80816A891CF7E7D2
:104180004A68816A4B1C83620A70E0E70168CA686A
:1041900022F02002CA600168CA6822F48072CA60F4
:1041A00001684A6922F001024A61202180F83A1030
:1041B000FEF7CCFB002010BD2DE9F041044600685D
:1041C0000169E26821F44051114301612169A0684D
:1041D000E26908436169114322680843D16849F2E2
:1041E0000C6399430143D16020684169A26921F4BD
:1041F000407111434161E2696425B2F5004F97486F
:10420000974922684FF032083FD08A4201D082425B
:104210007CD1FDF743F900EBC00101EB00106168B0
:104220008900B0FBF1F6FDF739F900EBC00101EBB5
:10423000001061688900B0FBF1F0B0FBF5F06FF0A1
:104240001801484306EB800108EB0110B0FBF5F0C4
:1042500000F0F006FDF722F900EBC00101EB0010C1
:1042600061688900B0FBF1F0B0FBF5F006EB0016D9
:10427000FDF714F900EBC00101EB00106168890043
:10428000B0FBF1F7FDF70AF9D2E08A4201D0824291
:104290003DD1FDF703F900EBC00101EB00106168AF
:1042A0004900B0FBF1F0B0FBF5F00601FDF7F6F8C0
:1042B00000EBC00101EB001061684900B0FBF1F7B1
:1042C000FDF7ECF800EBC00101EB0010616849005C
:1042D000B0FBF1F0B0FBF5F06FF01801484307EBCD
:1042E000800108EBC100B0FBF5F000F0F80006EB30
:1042F0004006FDF7D3F800EBC00101EB0010616848
:104300004900B0FBF1F7FDF7C9F83CE055E0FDF7D7
:10431000B5F800EBC00101EB001061684900B0FB8B
:10432000F1F0B0FBF5F00601FDF7A8F800EBC001D5
:1043300001EB001061684900B0FBF1F7FDF79EF852
:1043400000EBC00101EB001061684900B0FBF1F027
:10435000B0FBF5F06FF01801484307EB800108EB64
:10436000C100B0FBF5F000F0F80006EB4006FDF7E9
:1043700085F800EBC00101EB001061684900B0FB5B
:10438000F1F7FDF77BF800EBC00101EB001061686D
:104390004900B0FBF1F0B0FBF5F06FF018014843B5
:1043A00007EB800108EBC100B0FBF5F000F007005F
:1043B000216830448860BDE8F081FDF75FF800EBCC
:1043C000C00101EB001061688900B0FBF1F6FDF758
:1043D00055F800EBC00101EB001061688900B0FBEB
:1043E000F1F0B0FBF5F06FF01801484306EB8001E7
:1043F00008EB0110B0FBF5F000F0F006FDF73EF819
:1044000000EBC00101EB001061688900B0FBF1F026
:10441000B0FBF5F006EB0016FDF730F800EBC0013D
:1044200001EB001061688900B0FBF1F7FDF726F899
:1044300000EBC00101EB001061688900B0FBF1F0F6
:10444000B0FBF5F06FF01801484307EB800108EB73
:104450000110B0FBF5F000F00F00A9E700140140D7
:104460000010014090F83910212901D00220704736
:104470008168B1F5805F016A0BD04A1C0262026854
:1044800009785160C18C491E0904090CC1840ED001
:1044900017E009880268C1F3080151600169002929
:1044A000016A02D0491C0162ECE7891CFBE7016844
:1044B000CA6822F08002CA600068C16841F0400109
:1044C000C160002070472DE9F041984617460E461E
:1044D0000446069D1DE0681C1BD02DB1FCF70AFBAD
:1044E000A0EB0800A84214D92068C16821F4D0715B
:1044F000C1602068416921F001014161202084F8F8
:10450000390084F83A00002084F838000320BDE820
:10451000F0812068006836EA000004D00020B8422C
:10452000D9D00020F3E70120F9E702F04DB80000F0
:1045300070B502F0BDF90E4C207808B901F06CFBA3
:104540000C4D2978607840F2E734884209D019B1DF
:10455000204602F023FC04E0002002F01FFC02F0E1
:10456000EDFD287800B12046BDE8704002F016BC91
:1045700074120020D40E00200148FEF76BB8000032
:1045800000150020FEE70907090E002804DB00F1F2
:10459000E02080F80014704700F00F0000F1E020E8
:1045A00080F8141D704702E008C8121F08C1002AD5
:1045B000FAD170477047002001E001C1121F002AA4
:1045C000FBD170472DE9F041FCF794FADFF88080C9
:1045D0000646D8F80010401A322837D3002508F1D3
:1045E0000407284601F04AFA002805EBC50007EB4E
:1045F0008004A0681DD018B9A16909B1884714E0EA
:10460000E16991B1E26890420FD9236953B994F8F6
:1046100014C0BCF1000F05D0801AB0FBF3F203FB0D
:10462000120010B9884701202075A068401CA060C6
:1046300006E010B1206A00B180470020A06020751C
:104640006D1CEDB2032DCCD3C8F80060BDE8F0813D
:104650001C00002010B504460020E070401E2063BE
:10466000204601F0BFFB08B1042010BD04F2322047
:1046700001F034FAA0F52A41553901D0032010BDCC
:1046800094F83400E92805D0EB2814D194F83600CA
:10469000902810D104F16A0001F015FA0749B1EB36
:1046A000002F06D004F1860001F00DFA044988427B
:1046B00001D1002010BD022010BD00000046415471
:1046C00046415433F0B50022144D134605EB021455
:1046D00026685EB10768BE4209D166688768BE4237
:1046E00005D1A4684669B44204D000E00123521CFD
:1046F000022AEBD3022A01D069B904E04BB902299E
:1047000007D01220F0BD05EB02108089B0F5807F44
:1047100001D00020F0BD1020F0BD000074AF0020DB
:1047200030B50021054B0C4603EB0112156885429C
:1047300000D11460491C0229F6D330BD74AF0020AB
:104740000268C06A938952895343B1FBF3F1001D9B
:1047500004C81AB1914203D3891AF8E700207047C0
:104760000068084470478269891E921E8A4201D8F7
:1047700000207047C26A408901FB0020704700009A
:10478000C1EB4112C2EB012100EB01113C20B1FB56
:10479000F0F2F0B500FB1212B1FBF0F1DFF810E11E
:1047A0004FF4B7778EF80020B1FBF0F200FB121245
:1047B000B1FBF0F018218EF80120B0FBF1F2B0FB54
:1047C000F1F401FB12028EF80220201D0721B0FB3C
:1047D000F1F201FB1200401C8EF8030000207E1E47
:1047E00064220546930005E0401C40B200F2B2711D
:1047F000002911DD8107B1F1004F0DD100F2B27136
:1048000091FBF2FC02FB1C1CBCF1000F14D191FBCC
:10481000F3FC03FB1C1179B131460D44A542E3D9E9
:1048200000F2B271AEF80610002916DD4FEA807C66
:10483000BCF1004F02D010E03946EEE791FBF2FCEC
:1048400002FB1C1CBCF1000F06D191FBF3FC03FB27
:104850001C1CBCF1000F00D13E46AD1B651B0024A3
:104860004FEA807C134E01E0012C0ED0305D854272
:1048700004D3641C2D1AE4B20C2CF5D3641C8EF8FE
:1048800005406D1C8EF80450F0BD00290CDDBCF114
:10489000004F09D191FBF2F002FB101030B991FBEF
:1048A000F3F003FB101008B11C20E0E71D20DEE749
:1048B000080F0020D37500082DE9F04105680F00AE
:1048C000804606D000F027FF022809D20120BDE86B
:1048D000F0812E6916B1A869B04207D8012605E01B
:1048E000411CF4D0A9698142F1D83E463446A869FA
:1048F000641CA04202D80224022E0AD3214640465C
:1049000000F009FF38B10128E1D0411CDFD0B442EA
:10491000EDD10020DBE74FF0FF3632462146284636
:1049200001F0C4FB30B957B122463946284601F0A0
:10493000BDFB20B101280FD001242046C7E72C6120
:10494000D5E90501891E884201D8401E6861287991
:1049500040F001002871F0E73446EEE72DE9F04120
:104960000E4624300D6804460B22202101F006FA81
:104970000020014608272A5C401C202A12D92F2A31
:104980000BD05C2A09D02E2A01D0B94214D30B2FA8
:1049900022D02E2A20D10CE0401C2B5C2F2BFBD0E8
:1049A0005C2BF9D028443060B1B12078E5281FD0C5
:1049B00020E008210B27DEE7802A03D3114B1A449D
:1049C00012F8802C10A300E05B1C93F800C0BCF12F
:1049D000000F04D09445F7D10620BDE8F081A2F184
:1049E0006103192B01D8203AD2B26254491CC2E7A4
:1049F00005202070202A01D8042000E00020E07269
:104A00000020EAE7E0750008222A2B2C3A3B3C3DC7
:104A10003E3F5B5D7C7F000010B5FCF76BF80849FA
:104A20008A68801A4FF47A72B0FBF2F04A6809780B
:104A30001044FFF7A5FE02480C30007910BD0000BD
:104A4000FC0E0020401E022812D20A4901EB001180
:104A50008889B0F5807F05D008B1401E80B288817A
:104A600010B103E00020FAE7002008600020704742
:104A70000220704774AF002010B50446FCF73AF8E6
:104A800004EB0004FCF736F8A042FBD110BD2DE981
:104A9000F04104460021056800F0E0F8002826D126
:104AA0002846E16901F09EF902001FD1206A0178D1
:104AB00099B1C17A01F03F01A171C17A09070FD400
:104AC00004F124010B2610F8013B11F8017BDB1BDC
:104AD000761E04D0002BF6D002E0042206E02BB1B3
:104AE0000021204600F006F80200D9D01046BDE8AB
:104AF000F08100002DE9F047054647690468C06968
:104B00008946203710B1B7F5001F02D30420BDE855
:104B1000F087A189B7FBF1F201FB127100295FD187
:104B2000401CE861A9694FF0000819B3A0896289A7
:104B3000B7FBF0F0521E104252D1284600F0EBFDB8
:104B4000064601281FD9701C36D0A069B04241D852
:104B5000B9F1000F12D02846A969FFF7ADFE060093
:104B60000FD0012E0FD0701C26D0204601F030FE51
:104B700010BB0AE02089B0EB571F31D8C5F81C8064
:104B8000C4E70720C3E70220C1E7A289002104F19E
:104B9000340001F0F3F84FF0000831462046FFF7EB
:104BA000E2FD4FF0010920630DE000BF84F803909F
:104BB000204601F00DFE08B10120A8E7206B08F1A6
:104BC0000108401C206361894145EFD8216BA1EBAE
:104BD0000800206331462046AE61FFF7C4FDE8615E
:104BE0006F61A089B7FBF0F100FB117020443430F5
:104BF000286200208BE770B504460021066800F0AB
:104C00002DF80DE03046E16901F0ECF850B9206A6A
:104C10000078E52809D040B101212046FFF76AFF5E
:104C20000028EFD0042807D007E03046E16901F002
:104C3000D9F8050003D00FE0072005460CE020223C
:104C40000021206A01F09AF80B2204F12401206A65
:104C500001F08AF80120F070284670BD2DE9F0417E
:104C600004680F460646B1F5001F3CD2F8063AD15B
:104C70007761B56825B92078032806D3A56A25B1E0
:104C80006089A18900FB01F812E02089B0EB571F71
:104C900029D9A06A12E0304600F03DFD0546401CCF
:104CA0001FD0022D1FD3A069A8421CD9A7EB08076B
:104CB00047452946EFD22046FFF755FDC6E9065085
:104CC00088B1A189B7FBF1F10844F061A089B7FB75
:104CD000F0F100FB11702044343030620020BDE858
:104CE000F0810120FBE70220F9E70000084910B538
:104CF0000B5C002253B901220A540A1801EB800010
:104D0000127A40680168104688470246104610BD76
:104D100094AF002030B4054C231804EB80001B7ABC
:104D2000406804691846A44630BC604794AF002030
:104D300030B4054D2C1805EB8000247A4068856856
:104D40002046AC4630BC604794AF0020044A11189E
:104D500002EB8000097A406842680846104700006C
:104D600094AF002030B4054D2C1805EB8000247A58
:104D70004068C5682046AC4630BC604794AF002010
:104D8000044800781A2803D0401CC0B201F0B8BA19
:104D900070470000DA0E002000B5002000F008F88F
:104DA000012000F005F802205DF804EBAFF300806D
:104DB00000B5034600F008F8184600F00FF8184652
:104DC0005DF804EB00F014B8034A00EBC00002EBFE
:104DD000800000218161704720000020034A00EB21
:104DE000C00002EB80000021C1617047200000205C
:104DF000034A00EBC00002EB800000210162704713
:104E0000200000202DE9F0412F4C304D20780D2856
:104E10001FD00120297804E0225C0D2A03D0401C19
:104E2000C0B28842F8D3091ACAB2171A264BFEB28A
:104E3000002107E001EB000C13F80CC003F801C0DF
:104E4000491CC9B2B142F5D3391964232048FDF792
:104E5000F7FC607843281BD0462821D0522802D086
:104E6000542813D101E0A07868706179002040EAED
:104E70000160217940EA0140E17840EA0121A0780F
:104E8000084301F08DFBFBF735FE2861BDE8F0819A
:104E9000A078E870E0782871FBF72CFE6861F5E7F0
:104EA0006088A5F805002079E871B4F80500A5F838
:104EB0000B00E079687320892881A07AA872FBF73B
:104EC00019FEA861E2E70000F09B0020D80E002048
:104ED0000015002070B5FBF70DFE1A4D0446E86979
:104EE000201AB0F57A7F2BD3EC616878D8B1FBF744
:104EF00001FE1549001B884219D22869B8B1FBF799
:104F0000F9FD124E001BB04215D2686998B1FBF74B
:104F1000F1FD001BB04202D2A869002810D1BDE803
:104F2000704001F0B5B9BDE8704001F0CDB9BDE801
:104F3000704001F001BAA878BDE8704001F0E0B916
:104F400070BD0000D80E0020E093040080EE360013
:104F500038B5044600F005FA00280CD16946204611
:104F600002F0BBF8002806D12069FFF76BFD00288E
:104F700001D10021216038BD2DE9F74181B0904673
:104F800002980090684600F03CFC040003D50B201A
:104F900004B0BDE8F0810D4E002756F824501DB135
:104FA0002846FFF7BDFB2F700198002800D007703E
:104FB00046F8240002D0B8F1010F01D00020E7E745
:104FC000002201A902A800F025FAE1E70012002062
:104FD0002DE9F74394B005000BD002F03F063246AE
:104FE000694615A800F016FA04004FF0000804D036
:104FF000F3E0092017B0BDE8F0830098049004A8FE
:10500000159900F04BFB04000ED19DF83F000006FF
:1050100001D5062408E0700801D0012100E000213C
:1050200004A8FFF74FFB044616F01C0F5DD04FF0AD
:105030000109C4B1042C10D100206B4902E0401CCE
:10504000022804D201EB00121268002AF7D10228CC
:1050500007D004A8FFF7CFFD044646F008065CB170
:10506000BBE01224B9E09DF8160010F0110F47D1F3
:10507000700701D50824B0E0300747D500F0BFFB2A
:1050800007460C9839460E3001F051FB0C98394612
:10509000163001F04CFB0C982021C1720C9900983D
:1050A00000F0FEFC074600220C99009801F02BFB53
:1050B0000C9800211C3001F03AFB009981F8039014
:1050C00017B3D1F830900022394604A801F0A6F8B1
:1050D000040009D14946009800F084FE04000098BD
:1050E000A7F1010707610DD077E0ECBB9DF8160032
:1050F000C10601D5042470E0B10703D5C00701D073
:1051000007246AE0300701D546F040060098006B9E
:1051100068620C98A862700801D0012100E00021AB
:1051200004A800F06BFC2861C0B30C99009800F053
:10513000B7FCA8600C981C3000F0C5FCC5F82C80AA
:10514000E86000992960009905F130004FF4805221
:10515000C988A9802E7585F81580C5F820800021A2
:105160008146C5F8188000E037E000F007FEB00681
:1051700035D5EE689EB3AE610098A96847898089ED
:1051800047430FE0284600F0C6FA0146012800D840
:105190000224481C03D0F61B24B105E021E00124C1
:1051A000F61B01E0BE42EDD8E961B4B900988289EE
:1051B000B6FBF2F302FB13628AB1FFF7D4FA80B1B7
:1051C000009901238A89B6FBF2F202442A624878E8
:1051D0004946FFF7ADFD10B10124C5F80080204617
:1051E00008E70224F9E7000074AF00202DE9F04F32
:1051F000884689B00021196099461546044604A9DD
:1052000001F06BFF002812D1607D00280FD1207DB6
:10521000C0070BD0A169E0680127401A4FF0020ACD
:1052200004F1300B854200D9054695E0072009B00E
:10523000BDE8F08F049BA1699889B1FBF0F200FBF7
:105240001212002A69D1B1FBF0F65889401E0640BF
:1052500011D129B1E06A28B12046FFF771FA05E0C3
:10526000A06803E02046E16900F055FA02281DD34A
:10527000411C4DD0E061E1690498FFF774FAA8B1D0
:105280003044009004988189B5FBF1F1059131B368
:10529000721841898A4201D9891B0591407841469B
:1052A000059B009AFFF744FD90BB03E084F815A02E
:1052B0000220BCE7207D00060CD5216A0098081A60
:1052C0000599884206D204998A89594600FB0280D2
:1052D00000F04AFD049886890598464332E0226A28
:1052E00000998A4217D0217D090609D5407801230B
:1052F0005946FFF737FD58B9207D00F07F00207533
:105300000498012359464078009AFFF711FD10B127
:10531000677501208BE7009820620498A169808955
:10532000B1FBF0F200FB1212861AAE4200D92E46F3
:10533000B1FBF0F200FB1210011932464046303149
:1053400000F012FDA069B0443044A061D9F800001B
:105350008119AD1BC9F80010002D7FF46BAF002040
:1053600065E7F8B50446694601F0B7FE00280ED19E
:10537000217D4A060BD508060ED50098226A012326
:10538000407804F13001FFF7EDFC08B10120F8BDD1
:10539000207D00F07F00207500F031FA0646616A3A
:1053A000009800F01FFD0028F1D1A56A2946E87A8F
:1053B00040F02000E872A268206801F0A4F905F12D
:1053C0001C00E16801F0B3F9314605F1160001F067
:1053D000AEF9002105F1120001F0B1F900980121A8
:1053E000C17001F0B1F9217D01F0BF012175F8BD57
:1053F000034610B50846064904E01C5C144205D17A
:10540000401CC0B24C88A042F7D3002010BD000061
:10541000280F00202DE9FF41002790460E460F601F
:1054200000F0EFF9050003D50B2004B0BDE8F081D2
:10543000974850F825409CB13460207808F0FE066B
:1054400020B16078FFF782FCC1070BD02770E8B26B
:10545000B8466070FFF74AFCC10708D00320E4E7B4
:105460000C20E2E70EB1400704D40020DDE71EB1B6
:10547000400701D50A20D8E7607804F10C02022128
:10548000FFF748FCF0BBA089A0F50071B1F5606F93
:105490003FD8411E08423CD1002631462046FFF746
:1054A000D9F8022822D100254FEA0D0704EB051098
:1054B00090F8F61100F5F97019B1083000F003FB0F
:1054C00000E0002047F825006D1C042DEED30025D8
:1054D00057F8256036B131462046FFF7BBF8022861
:1054E00001D203E003206D1C042DF1D3042810D059
:1054F000022878D204F13F0000F0F0FAA189884236
:1055000071D100E005E004F14A0000F0E7FA10B1C3
:1055100005E0012089E704F1580000F0D4FAE061C9
:1055200094F84450A570012D01D0022D5BD1454364
:1055300094F841006081E8B3411E084253D104F160
:10554000450000F0CBFA2081A1894909B0FBF1F2B6
:1055500001FB120070BB04F1470000F0BFFA070026
:1055600004D104F1540000F0AEFA074604F1420001
:1055700000F0B4FA010036D0A08923894009B3FBBA
:10558000F0F04A19024497422DD3B81A6789B0FB4C
:10559000F7F078B103274FF6F57C604500D8022775
:1055A00040F6F57C604500D801273244801C314428
:1055B000E26200E017E0A061C4E90861032F14D0A3
:1055C0008BB12944A162022F20D000F0010100EB31
:1055D000400001EB5000A189401E0844B0FBF1F0EF
:1055E000E169884214D90D201FE704F15E0000F044
:1055F00075FA0028F7D120890028F4D104F1600061
:1056000000F061FAA062A0698000E4E74000E2E7F0
:105610004FF0FF306061206180202071032F2CD17A
:1056200004F1640000F05AFA012826D1711C2046CA
:1056300000F0D8FB08BB84F8048004F2322000F0AC
:105640004DFAA0F52A41553917D104F1340000F084
:105650003AFA1049884210D104F5067000F033FA86
:105660000D49884209D104F5077000F02CFA6061F9
:1056700004F5087000F027FA206105482770001F24
:105680000188491C0180E1802046FFF749F8ECE6DB
:1056900000120020525261417272416173B504469A
:1056A0000568019801E0401C019001782F29FAD08B
:1056B0005C29F8D00021A16001980078202806D24A
:1056C000802084F82F002046FFF7C8FA7CBD01A98E
:1056D0002046FFF743F90028F8D12046FFF7D7F915
:1056E00094F82F1028B10428F0D14907EED40520F2
:1056F0007CBD4907FCD4A079C006F8D5A9896069AA
:10570000B0FBF1F201FB120041192846343100F0E0
:10571000C7F9A060DBE72DE9F04104680D460229D6
:105720000BD3A069A84208D920784FF0FF36012892
:1057300007D0022834D0032849D001263046BDE8DE
:10574000F081A08905EB5507B7FBF0F0616A0144D1
:10575000204600F047FB0028F0D1A089B7FBF0F10C
:1057600000FB11717F1CB7FBF0F0214491F83480ED
:10577000616A0144204600F035FB0028DED1A08993
:10578000B7FBF0F100FB1170204490F8341048EAA8
:105790000120E90701D00609D0E7C0F30B06CDE7E9
:1057A000A089616A4008B5FBF0F00144204600F092
:1057B00019FB0028C2D1A1896800B0FBF1F201FBFE
:1057C00012002044343000F089F90646B6E7A0897B
:1057D000616A8008B5FBF0F00144204600F002FB4E
:1057E0000028ABD1A189A800B0FBF1F201FB1200A7
:1057F0002044343000F067F920F070469EE7002026
:10580000704710B504464FF0FF302268002A13D0CD
:10581000114600E0491C0B78212B0ED33A2BF9D10D
:1058200012F8013B303B0A2B06D28A4204D1002BEE
:1058300002D1491C1846216010BD002010BD000097
:105840000148008870470000100F00202DE9FF4735
:10585000FBF750F95C4EB168421AB2F57A7F7DD3FE
:1058600000297BD0B06001250DF10C08CDE9008541
:1058700064242B4600225B2102945448FBF780FBF2
:105880000DF10D070097CDE9015401231A465B2164
:105890004E48FBF775FB0DF10E0ACDF800A0CDE9DF
:1058A0000154012302225B214848FBF769FB0DF1FB
:1058B0000F09CDF80090CDE90154012303225B21AB
:1058C0004248FBF75DFB03989DF80F1000BA20F0EB
:1058D000FF000843F060CDF80080CDE901540123BA
:1058E00004225B213948FBF74BFB0097CDE90154BB
:1058F000012305225B213548FBF742FBBDF80C0074
:10590000012340BA3080CDF80080CDE90154062251
:105910005B212E48FBF734FB0097CDE901540123AE
:1059200007225B212948FBF72BFBCDF800A0CDE92E
:105930000154012308225B212448FBF721FBCDF809
:105940000090CDE90154012309225B211F48FBF798
:1059500017FB039800BA20F0FF0000E031E09DF84B
:105960000F10012308433061CDF80080CDE90154C8
:105970000A225B211548FBF703FB0097CDE9015490
:1059800001230B225B211148FBF7FAFABDF80C004A
:10599000012340BA7080CDF80080CDE901540C227B
:1059A0005B210A48FBF7ECFA0097CDE9015401238B
:1059B0000D225B210548FBF7E3FABDF80C0040BA65
:1059C000B080BDE8FF870000100F00207C1200208F
:1059D00010B5FBF78FF808498A68801A4FF47A727D
:1059E000B0FBF2F04A6809781044FEF7C9FE02489D
:1059F0000C30807810BD0000FC0E0020F0B502468F
:105A00001D4BD2F80050002003EB00142668AE4274
:105A100007D166689768BE4203D1A4685669B4424C
:105A200002D0401C0228EFD3022814D1002002E04B
:105A3000401C022804D203EB00142468002CF7D188
:105A400002280ED003EB001425609568656052694A
:105A5000A2600022A281002903EB0011898902D0F3
:105A600019B10020F0BD491C01E04FF4807103EB37
:105A70000012401C9181F0BD74AF002000EBC00209
:105A8000064810B500EB820150F822008988FBF728
:105A90001FF808B1002010BD012010BD200000201B
:105AA00070B506460D4601F11A0000F017F80446DD
:105AB0003078032805D105F1140000F00FF844EA0E
:105AC0000044204670BDC178827842EA01214278C4
:105AD000007842EA012140EA0120704741780078CD
