:020000040800F2
:10000000D80700209D010008671E0008411900085C
:10001000651E0008D1030008D12C00080000000074
:100020000000000000000000000000008D26000815
:10003000D303000800000000691E00088F26000896
:10004000B7010008B7010008B7010008B7010008B0
:10005000B7010008B7010008B7010008B7010008A0
:10006000B7010008B7010008B7010008B701000890
:10007000B7010008B7010008B7010008B701000880
:10008000B7010008B7010008B7010008B701000870
:10009000B7010008B7010008B7010008B701000860
:1000A000B7010008B7010008B7010008B701000850
:1000B000B7010008B7010008B7010008B701000840
:1000C000B7010008B7010008B7010008B701000830
:1000D000B7010008B7010008B7010008B701000820
:1000E000B7010008B7010008B7010008B701000810
:1000F000B7010008B7010008B7010008B701000800
:10010000B7010008B7010008B7010008B7010008EF
:10011000B7010008B7010008B7010008B7010008DF
:10012000B7010008B7010008B7010008B7010008CF
:10013000B7010008B7010008B7010008B7010008BF
:10014000B7010008B7010008B7010008B7010008AF
:10015000B7010008B7010008B7010008B70100089F
:10016000B7010008B7010008B7010008B70100088F
:10017000B7010008B7010008B7010008000000003F
:10018000B7010008B7010008DFF80CD000F07AF8DA
:1001900000480047112D0008D80700200648804776
:1001A00006480047FEE7FEE7FEE7FEE7FEE7FEE75C
:1001B000FEE7FEE7FEE7FEE71927000889010008D1
:1001C0002DE9F05F0546002092469B46884606468C
:1001D000814640241BE0284641464746224600F01F
:1001E00041F853465A46C01A914110D31146184659
:1001F000224600F028F82D1A67EB01084F462246E8
:100200000120002100F01FF817EB00094E41201ECD
:10021000A4F10104DFDC484631462A464346BDE8E6
:10022000F09FD2B201E000F8012B491EFBD27047CB
:100230000022F6E710B513460A4604461946FFF7B2
:10024000F0FF204610BD202A04DB203A00FA02F11C
:10025000002070479140C2F1200320FA03F31943B4
:1002600090407047202A04DB203A21FA02F0002156
:10027000704721FA02F3D040C2F1200291400843B6
:1002800019467047064C074D06E0E06840F0010350
:1002900094E8070098471034AC42F6D3FFF778FF94
:1002A000982D0008B82D0008464910B54A6822F478
:1002B00040324A604A6843681A434A6001684A68A3
:1002C00022F480724A6001684A68036942EA0322A4
:1002D0004A6001684A6822F040724A6001684A68D0
:1002E00083681A434A6001688A6822F400628A605F
:1002F00001688A68C3681A438A60816A6FF0706215
:10030000D14201688A6822F070628A6001688A6856
:100310000CD0836A1A438A6001688A6822F04052CE
:100320008A6001688A68C36A1A4301E022F0405279
:100330008A6001688A6822F002028A6001688A681D
:10034000037E42EA43028A6090F820100029016887
:100350004A680FD042F400624A6001684A6822F499
:1003600060424A6001684A68174C436A04EB4333B1
:100370001A4301E022F400624A600168CA6A22F46A
:100380007002CA620168CA6A838B104C04EB035383
:100390001A43CA6201688A6822F400728A6001689E
:1003A0008A6890F8303042EA43228A6001688A689D
:1003B00022F480628A6001688A68406942EA80208B
:1003C000886010BD0023014000E0FFFF0000F0FF47
:1003D000FEE770477047000078B50024009490F85D
:1003E0003C20012A19D0012280F83C200A6807230A
:1003F0000568092A13D9EE680A3A02EB42029340D3
:100400009E43EE600B788A680A3B03EB43039A40F5
:100410000368DD682A43DA6010E0022078BD2E69A7
:1004200002EB420293409E432E610B788A6803EBF5
:1004300043039A4003681D692A431A614A681F23CF
:10044000072A13D205686E6B521E02EB820293409C
:100450009E436E630B790A885B1E92B203EB8303A3
:100460009A4003685D6B2A435A6327E005680D2AAA
:1004700012D22E6BD21F02EB820293409E432E6358
:100480000B790A88DB1F92B203EB83039A4003685F
:100490001D6B2A431A6311E0EE6A0D3A02EB8202E9
:1004A00093409E43EE620B790A880D3B92B203EBB8
:1004B00083039A400368DD6A2A43DA62164B0568B3
:1004C000144A9D4206D10D68122D03D1556845F49A
:1004D0008005556005689D4218D10B68102B01D02E
:1004E000112B13D1536843F400035360096810299A
:1004F0000CD10A490A4A0968B1FBF2F101EB81010A
:10050000490000E0491E00910029FBD180F83C40E1
:10051000002078BD00230140002001400C00002095
:1005200040420F0070B504004FF0000503D0206C6E
:10053000002610B107E0012070BD204600F01CF835
:10054000666484F83C60206CC00610D4206C20F4F3
:10055000885040F0020020642046FFF7A5FE666444
:10056000206C20F0020040F00100206400E0012532
:1005700084F83C60284670BD70B586B004461421EE
:100580006846FFF755FE1D491B4E256800231B4A90
:10059000143903241A48B54211D1156845F4807501
:1005A0001560126802F4807205920A6842F0010236
:1005B0000A60096801F001010591022113E0114E62
:1005C000B54216D1156845F480651560126802F4CD
:1005D000806205920A6842F001020A60096801F02F
:1005E000010105910121CDE900140293694600F053
:1005F0001DF806B070BD00000020014044380240E4
:10060000000002400022014070B5044600F0F0F8FE
:100610000546601C02D004480078044400F0E8F865
:10062000401BA042FAD370BD000000202DE9F84F16
:10063000DFF87CB100224FF001084FF0030A4FF0C1
:100640000F090BF1040E00BF0B6808FA02F42340F7
:10065000A3426ED14D68022D01D0122D0ED1D508C6
:1006600000EB850CDCF820505607F70E09FA07F668
:10067000B5430E69BE402E43CCF820600668550095
:100680000F790AFA05FC07F0030726EA0C06AF40CB
:10069000374307604E68012E05D0022E03D0112E7D
:1006A00001D0122E0ED18668CF6826EA0C06AF4024
:1006B000374387604668A6430C79C4F3001494401E
:1006C00034434460C6688C6826EA0C06AC40344368
:1006D000C4604C68E40065D5364C256845F4804517
:1006E0002560246822F0030504F480440094324C11
:1006F0002E19D6F8084895072F0F09FA07F5AC43CD
:100700002E4DA84201D1002524E02D4DA84201D153
:1007100001251FE02B4DA84201D102251AE02A4DE8
:10072000A84201D1032515E0284DA84202D1042595
:1007300010E037E0264DA84201D105250AE0254DFD
:10074000A84201D1062505E0234DA84201D1072585
:1007500000E00825BD402543C6F80858DBF80040F6
:100760005D464E689C43F60300D51C432C60DEF8C2
:10077000004075464E689C43B60300D51C432C6070
:100780000B4D08352C684E689C43F60200D51C437F
:100790002C60074D0C352C684E689C43B60200D582
:1007A0001C432C60521C102AFFF44EAFBDE8F88F9A
:1007B000003C01404438024000300140000002404B
:1007C0000004024000080240000C024000100240F9
:1007D0000014024000180240001C0240006908405A
:1007E00000D0012070470AB1816170470904FBE71E
:1007F00001488068704700000000002070B50400C8
:100800001BD094F83D00002520B984F83C502046C8
:1008100000F0AEF8242084F83D002068016821F043
:100820000101016000F018FA4D4A6168914201D857
:100830004C4900E04C49884201D2012070BD4B492F
:100840002368B0FBF1F15E6826F03F060E435E6060
:100850006368934206D94FF4967359434FF47A7301
:10086000B1FBF3F12368491C1E6A26F03F063143B1
:1008700019626168914210D84900401EB0FBF1F244
:10088000521CC2F30B02042A01D2042022E0B0FB66
:10089000F1F0401CC0F30B001CE0A368F3B301EBC4
:1008A000C10202EB0116421EB2FBF6F2521C42F4E8
:1008B0008042120549D093B301EBC10202EB011152
:1008C000401EB0FBF1F0401CC0F30B0040F4804030
:1008D00040F400402168CA694CF6FF739A43104304
:1008E000C861D4E90701084321680A6822F0C00200
:1008F00010430860D4E9030101432068826848F28C
:10090000FF339A4311438160D4E90501084321680C
:10091000CA6822F0FF021043C86001E00EE016E052
:100920002068016841F0010101602564202084F8FD
:100930003D00256384F83E50002070BD01EB410668
:10094000421EB2FBF6F2521CB3E70120C2E701EBF4
:100950004101401EB0FBF1F0401CC0F30B00B7E7B3
:10096000A086010080841E0000093D0040420F0067
:10097000F0B587B0044614216846FFF759FC276894
:10098000204CDFF87CC01F491222012303250426D6
:100990001D481034674515D10F6847F002070F60F6
:1009A000096801F00201059129028DE86E0069468F
:1009B000FFF73CFE206840F400102060206800F43F
:1009C000001019E0DFF844C0674516D10F6847F002
:1009D00002070F60096801F0020105914FF44061C0
:1009E0008DE86E006946FFF721FE206840F4800024
:1009F0002060206800F48000059007B0F0BD000082
:100A000000540040303802400004024000580040CA
:100A1000024881680278114481607047000000201C
:100A20000B4810B5016841F400710160016841F4A0
:100A300080610160016841F480710160032000F071
:100A400061F8002000F006F800F024F8002010BD46
:100A5000003C024070B50D4D04464FF47A71287881
:100A6000B1FBF0F00A490968B1FBF0F000F040FD7D
:100A700048B9102C07D200222146501E00F022F85F
:100A800000206C6070BD012070BD000000000020DF
:100A90000C0000200A4808B5016841F4804101605B
:100AA000006800F4804000900548001F016841F094
:100AB00080510160006800F08050009008BD000087
:100AC00044380240F0B40E4B1B680C46C3F30223BB
:100AD000C3F10705042D00D90425191D072901D2EA
:100AE000002300E0DB1E012606FA05F1491E214025
:100AF00099409E40761E16403143F0BC02F0E9B8A2
:100B00000CED00E0064900F0070208684FF6FF030D
:100B1000184040EA0220034A104308607047000072
:100B20000CED00E00000FA052DE9F0470E46050047
:100B300065D0DFF81481D8F80000F7B200F00F009C
:100B4000B04207D288F80070D8F8000000F00F001B
:100B5000B04254D128683D4C810712D5400703D5D7
:100B6000206840F4E05020602878000703D5206812
:100B700040F4604020602068A96820F0F00008433D
:100B800020602878C0072DD03049686808390128CE
:100B900012D0022813D0032811D009688907002930
:100BA0002DDA216821F0030101432160FFF720FEC7
:100BB000814641F2883A0EE009688903EFE7096847
:100BC0008901ECE7FFF714FEA0EB0901514502D9BA
:100BD0000320BDE8F0872068696800F00C00B0EBE6
:100BE000810FEFD1D8F80010404601F00F01B1425B
:100BF00007D90770006800F00F00B04201D0012053
:100C0000E7E72878400705D52068E96820F4E05038
:100C1000084320602878000706D52068296920F459
:100C2000604040EAC100206000F036F82168084AC0
:100C3000C1F30311515CC840064908600020FFF76A
:100C400009FF0020C5E70000003C024008380240D0
:100C5000802D00080C000020044805490068096840
:100C6000044AC1F38221515CC84070470C00002047
:100C700008380240902D00080448054900680968BA
:100C8000044AC1F34231515CC84070470C00002057
:100C900008380240902D0008154810B5006810F083
:100CA0000C02144813D04110042A0FD0082A0ED188
:100CB0000F4C241F2268236802F03F025B0207D515
:100CC0002068C0F38810A0FB010106E0084610BDB3
:100CD0002168C1F38811A1FB00010023FFF770FA1E
:100CE0002168C1F30141491C4900B0FBF1F010BD7E
:100CF000083802400024F4002DE9F84F050076D0B2
:100D00002878DFF8F8B2BE4CC00749D0DBF80010F5
:100D10005846C1F38101012908D00068C0F3810061
:100D200002280AD1201D0068400206D520688003F1
:100D300036D568680028E2D032E06868B0F5803FB8
:100D400010D0B0F5A02F206810D020F480302060A3
:100D5000206820F4802020606868A0B1FFF748FD7B
:100D600006460CE0206840F48030F4E740F4802030
:100D70002060F7E7FFF73CFD801B642873D82068EC
:100D80008003F7D50CE0FFF733FD064605E000BF12
:100D9000FFF72EFD801B6428F0D820688003F7D46D
:100DA0002878DFF8608280074FF000093ED5DBF835
:100DB0000010584611F00C0F09D00068C0F38100F4
:100DC00002280BD18D48001F0068400206D420681D
:100DD000800715D5E868012809D111E0E868B8B1A5
:100DE0000120C8F80000FFF703FD064605E002E118
:100DF000FFF7FEFC801B0228C0D820688007F7D5CB
:100E00002068296920F0F80040EAC10020600DE068
:100E1000C8F80090FFF7ECFC064604E0FFF7E8FC9A
:100E2000801B02281FD820688007F7D42878000785
:100E300022D5724E744869696C3671B10121016026
:100E4000FFF7D6FC074604E0FFF7D2FCC01B0228E0
:100E500009D830688007F7D50EE0C0F80090FFF79A
:100E6000C7FC074605E083E0FFF7C2FCC01B022871
:100E70007ED830688007F7D42878400768D5DFF837
:100E80007CA100270AF1380ADAF80000C0000BD470
:100E9000DAF8001041F08051CAF80010DAF80000CA
:100EA000012700F080500090584E3068C00510D4E3
:100EB000306840F480703060FFF79AFC009005E0E5
:100EC000FFF796FC0099401A022851D83068C005F7
:100ED000F6D54A4EA868683601280FD00528306834
:100EE00010D020F001003060306820F00400306045
:100EF000A868B8B1FFF77CFC00900FE0306840F0C4
:100F00000100F4E740F004003060F7E7FFF770FC01
:100F10000099411A41F28830814264D830688007D4
:100F2000F4D50EE0FFF764FC009007E0FFF760FCEB
:100F30000099411A41F28830814254D830688007C4
:100F4000F4D42FB1DAF8001021F08051CAF8001063
:100F5000A869C0B3DBF80010C1F3810102294AD0AF
:100F60000228484607D0C8F86000FFF741FC00E0BF
:100F700039E005463AE04746C8F86000FFF738FC1C
:100F8000064604E0FFF734FC801B02282BD82068BB
:100F90008001F7D4D5E907010843A96A1C4A49082A
:100FA00002EB01416A6A41EA8211084395F82C106C
:100FB00040EA01611148001F016001203866FFF717
:100FC00017FC054605E014E0FFF712FC401B022861
:100FD00009D820688001F7D50BE000BFFFF708FCB7
:100FE000401B022802D90320BDE8F88F2068800149
:100FF000F4D40020F8E70120F6E7000008380240AA
:101000000038024000004742800E47420070004016
:101010000000FFFFFEB5044603200D4684F83400AF
:10102000606C032820D0B5F5805F1DD0B5F5006F4A
:1010300005D045B1A06B40F00060A06309E02046F8
:1010400001F0FDFA02E0204601F0D2FAA16B014363
:10105000A163A06B012658B1216840F2FF5088635C
:1010600084F834600120FEBDA06B40F08050E4E7BE
:10107000211DD4E905700EC90095CDE901702068E5
:1010800000F00FFF84F834600020FEBDF0B5426E22
:10109000120E93090B70C2F383034B7002F003022C
:1010A0008A70426E120CCA70B0F86420120A0A717B
:1010B00090F864204A71826E4FF6FF73120E03EAB5
:1010C0000212CA80826ECB88C2F3074243EA12132F
:1010D000CB8002F00F020A72B0F86820C2F3072238
:1010E000D3094B72C2F380138B72C2F34013CB72DD
:1010F000C2F300130B7300264E73446C4FF4007759
:1011000001236CB1012C43D0026840F2FF5191637E
:10111000816B41F08051816380F834300120F0BD53
:101120009207120D0A6190F868200C6944EA820265
:101130000A61C26E0C69120E44EA92140C61C2F389
:10114000C2040C7502F007024A75C26EC2F3074270
:1011500054098C75C2F38204CC759207520F0A763B
:10116000B0F86C20C2F307240A7E42EAD4120A7651
:101170000A69521C42650D7EAD1CAA4042650D7A7B
:1011800003FA05F585656D0A6A43C0E917271CE077
:1011900090F868209206920A0A61C26E0C69120EDB
:1011A00044EA02220A61C26E0C69C2F30742144388
:1011B0000C61B0F86C20C2F307240A69521C4FEA94
:1011C00082224265C0E916720766C4F3801201F8F4
:1011D000192F4FEA84624FEA52624A7010F86C2F5E
:1011E0004C7844EAD2144C7002F07F028A70426854
:1011F0004FEA12624FEAD214CC70C2F341140C7160
:10120000C2F382044C714FEA82724FEA12728A7101
:1012100042688C79C2F3074244EA92148C71C2F39B
:101220004014CC710E7202F001024A728288C2F33D
:1012300007224FEAD2148C72C2F38014CC72C2F32C
:1012400040140C73C2F300144C73C2F381048C730A
:1012500002F00302CA7300794FEA500008744B741D
:101260004FF00000F0BD70B5040004D094F83400D5
:10127000002510B105E0012070BD2577204600F063
:1012800037F8032084F83400204600F007F8A563FF
:101290002563012084F83400002070BDFEB50025D0
:1012A000044676200095CDE901502B462A46294672
:1012B000206800F0F6FD0D4E46F8A05F206800F0B3
:1012C00002FE012535600220FFF79EF9204601F05D
:1012D0003EF920B9204601F0C7F8002805D084F86F
:1012E0003450A16B0143A1630120FEBD0080254263
:1012F000F0B587B0044614216846FEF799FF1D49F2
:101300002068884233D11C480024016841F4006100
:101310000160006800F40060059017481438016807
:1013200041F004010160016801F0040105910168C8
:1013300041F0080101600068022500F008000590F6
:101340004FF4F850CDE9000502AA03260C2782E8E5
:10135000D00069460948FFF769F90420CDE9000586
:1013600002AA694682E8D0000548FFF75FF907B096
:10137000F0BD0000002C014044380240000802404B
:10138000000C024070B5040005D00025A56294F859
:10139000510010B106E0012070BD84F85050204685
:1013A00000F030F8022084F851002068016821F034
:1013B00040010160D4E901010843D4E9031211435B
:1013C000084361690843218B01F400710843E16916
:1013D0000843216A0843A16A084321680860A0699C
:1013E000042101EA1040616A0843216848602068CE
:1013F000C16921F40061C1616565012084F8510073
:10140000002070BDF0B587B0044614216846FEF791
:101410000FFF3148276800223049022403250526A2
:1014200087421AD12D481430036843F48053036077
:10143000006800F480500590086840F001000860E2
:10144000086802AB00F001000590E020CDE900043F
:1014500083E86400694622481EE0204BDFF884C020
:101460001033214867451BD11F6847F480471F6030
:101470001B6803F4804305930B6843F002030B6081
:10148000096802AF01F0020105914FF46041CDE916
:10149000001487E864006946FFF7C8F807B0F0BD9C
:1014A000124EB742FAD11E6846F400461E601B6811
:1014B00003F4004305930B6843F002030B600968D3
:1014C000029201F0020105913821CDE900140621B4
:1014D000CDE903516946DFE7003001403038024072
:1014E000000002400038004000040240003C004080
:1014F00010B5401EB0F1807F01D3012010BD4FF028
:10150000E02460610F21601701F0E3FB0020A0617F
:1015100007202061002010BD70B590F83C20012A02
:1015200019D0012400F83C4F0222427050F83C3C94
:101530005A689D6822F070060A684968324325F0AF
:10154000800529435A6050F83C2C9160447000217A
:101550000170084670BD022070BD10B5040003D0B4
:1015600094F83D0010B107E0012010BD002084F880
:101570003C00204600F00CF8022084F83D00211DBC
:10158000206801F0F3F8012084F83D00002010BD30
:1015900008B500680649884208D10648016841F04C
:1015A00002010160006800F00200009008BD000028
:1015B000000400404038024070B5044690F83C00FA
:1015C000012817D0012584F83C50022084F83D0002
:1015D0002068826822F0770222F47F4282600868E5
:1015E000502830D00DDC20284DD005DC98B31028D1
:1015F0003BD148E0022070BD302844D0402834D18F
:1016000039E0602828D0702806D0B0F5805F2CD053
:10161000B0F5005F29D10AE0CB68D1E9012120684B
:1016200001F008F92068816841F0770109E0CB6892
:10163000D1E90121206801F0FDF82068816841F4BA
:101640008041816011E0CA684968206801F0C6F9EC
:101650005021206807E016E0CA684968206801F058
:10166000CEF96021206801F0EFF884F83D500020A9
:1016700084F83C0070BDCA684968206801F0AEF982
:1016800040212068EFE7226801461046EBE70000A2
:1016900030B587B0044614216846FEF7C9FD2468BA
:1016A0000021174802220123B4F1804F16D0154DB6
:1016B000AC4211D1046844F0020404600068009355
:1016C00000F002000590CDE90121CDE903120E489A
:1016D000694600BFFEF7AAFF07B030BD046844F0BA
:1016E00001040460006800F0010005904FF4004020
:1016F0000090CDE90121CDE9031369460348E9E7EC
:101700003038024000040040000402400000024063
:1017100070B5044690F83C000D4601280DD0012616
:1017200084F83C60022084F83D0042B1042A18D0BD
:10173000082A2AD00C2A4DD139E0022070BD206839
:1017400001F08AF82068816941F008018161206810
:10175000816921F004018161206881692A6911434E
:1017600011E0206801F0A8F82068816941F4006167
:1017700081612068816921F48061816120688169CB
:101780002A6941EA0221816124E0206801F0CAF857
:101790002068C16941F00801C1612068C16921F078
:1017A0000401C1612068C1692A69114311E0206800
:1017B00001F0ECF82068C16941F40061C161206862
:1017C000C16921F48061C1612068C1692A6941EA67
:1017D0000221C16184F83D60002084F83C0070BDA6
:1017E00010B5040003D094F83D0010B107E00120CB
:1017F00010BD002084F83C00204600F00DF80220C7
:1018000084F83D00211D206800F0B0FF012084F81D
:101810003D00002010BD000008B50068B0F1804F09
:1018200008D10548016841F001010160006800F03D
:101830000100009008BD00004038024070B504006F
:1018400004D094F83900002510B106E0012070BDE5
:1018500084F83850204600F023F8242084F839001A
:101860002068C16821F40051C160204601F0DAF817
:101870002068016921F4904101612068416921F0EB
:101880002A0141612068C16841F40051C160E563EB
:10189000202084F8390084F83A00002070BD000050
:1018A000F0B587B0044614216846FEF7C1FC204815
:1018B0001E4F26681E491438C02202230124032526
:1018C000BE4215D10E6846F010060E60096801F0A0
:1018D00010010591016841F002010160006869464C
:1018E00000F0020005900720CDE90350114817E0F1
:1018F000114FBE4218D10E6846F020060E600968EE
:1019000001F020010591016841F0040101600068C7
:10191000694600F0040005900820CDE9035007480F
:101920008DE81C00FEF782FE07B0F0BD00100140FC
:101930004438024000040240001401400008024004
:10194000FEE700007FB5002415480094019402943E
:101950001249039401604FF48031C0E9011404611D
:10196000047680F820400F49C0E90A140125C561BA
:10197000C46080F830404561FEF7D4FD08B1FEF741
:1019800029FD0095CDE9015469460548FEF724FD7F
:10199000002801D0FEF71EFD7FBD000000200140A1
:1019A000100000200100000F7FB5002415480094AE
:1019B000019402941249039401604FF48031C0E90C
:1019C00001140461047680F820400F49C0E90A142C
:1019D0000125C561C46080F830404561FEF7A2FD75
:1019E00008B1FEF7F7FCCDE90045694605480294C9
:1019F000FEF7F2FC002801D0FEF7ECFC7FBD0000F2
:101A000000220140580000200100000F2DE9F04F96
:101A100087B014216846FEF70BFC4D48002401688E
:101A200041F080010160016801F0800105910168C9
:101A300041F001010160016801F0010105910168B7
:101A400041F004010160016801F0040105910168A1
:101A500041F002010160016801F002010591016895
:101A600041F008010160016801F008010591016879
:101A700041F0400101600068DFF8D89000F04000BC
:101A80000590002230214846FEF7ADFEDFF8C8A0E1
:101A900041F20606002231465046FEF7A4FEDFF86A
:101AA000BCB04FF44E77002239465846FEF79BFEF5
:101AB0004FF40048002241462948FEF794FE1420C6
:101AC00000902848CDE9010469462748FEF7AEFD9D
:101AD000302000900125CDE9015469464846039421
:101AE000FEF7A4FD0096CDE90154694650460394E3
:101AF000FEF79CFD0097CDE90154694658460394D2
:101B0000FEF794FD4FF47250CDE900046946584643
:101B10000294FEF78BFD4FF40F70CDE90004694687
:101B20000F480294FEF782FD40208DE8310069469F
:101B30005846FEF77BFDCDF80080CDE9015469469B
:101B400007480394FEF772FD07B0BDE8F08F000070
:101B5000303802400008024000040240000C0240FD
:101B60000018024000001110000002400D4810B59E
:101B70000B4901600C49416000214FF480428160B3
:101B8000C0E9031241618161C1610162FEF736FE65
:101B9000002803D0BDE81040FEF71CBC10BD0000BB
:101BA00000540040A0000020A08601000D4810B5A0
:101BB0000B4901600C49416000214FF48042816073
:101BC000C0E9031241618161C1610162FEF716FE45
:101BD000002803D0BDE81040FEF7FCBB10BD00009C
:101BE00000580040F4000020A08601000E4810B507
:101BF0000C490160002141608160C1600161416167
:101C00008161FFF730FB08B1FEF7E4FB4FF40061A0
:101C10000548FFF7FFF9002803D0BDE81040FEF7A4
:101C2000D9BB10BD002C0140480100200F4810B561
:101C30000D4901604FF48271416000218160C160F3
:101C40004FF400720161C0E90512C1610162416295
:101C500081620A21C162FFF795FB002803D0BDE82D
:101C60001040FEF7B7BB10BD00300140CC01002092
:101C70000F4810B50D4901604FF482714160002199
:101C80008160C1604FF400720161C0E90512C16159
:101C90000162416281620A21C162FFF773FB002881
:101CA00003D0BDE81040FEF795BB10BD00380040E2
:101CB000240200200F4810B50D4901604FF48271D5
:101CC000416000218160C1604FF400720161C0E990
:101CD0000512C1610162416281620A21C162FFF79E
:101CE00051FB002803D0BDE81040FEF773BB10BDC8
:101CF000003C00407C02002010B58AB0002407940C
:101D00001C2168460894FEF793FA14484FF080416E
:101D1000C0E900148460C46004618461FFF760FD61
:101D200008B1FEF757FB079407A90C480894FFF782
:101D3000F3FB08B1FEF74EFB6020CDE900040294EE
:101D40000022694605480494FFF7E2FC08B1FEF75B
:101D500041FB0248FFF79CFC0AB010BDD4020020F2
:101D600010B58EB000240794089409940A940B943B
:101D70001C2168460C94FEF75BFA1D481B49C0E91C
:101D800000148460C46004618461FFF7E6FB08B15D
:101D9000FEF720FB4FF48050079007A91448FFF787
:101DA0000BFC08B1FEF716FB1148FFF719FD08B14F
:101DB000FEF710FB0B940BA90D480C94FFF7ACFB3E
:101DC00008B1FEF707FB6020CDE900040294082269
:101DD000694607480494FFF79BFC08B1FEF7FAFA3E
:101DE0000348FFF755FC0EB010BD00000004004092
:101DF000140300200C4810B50A4901604FF4E1318A
:101E00004160002181600C22C160C0E9041281613F
:101E1000C161FFF713FD002803D0BDE81040FEF7B5
:101E2000D9BA10BD00100140540300200C4810B571
:101E30000A4901604FF4E1314160002181600C22C8
:101E4000C160C0E904128161C161FFF7F7FC00289D
:101E500003D0BDE81040FEF7BDBA10BD001401402C
:101E600094030020FEE7704770470A6842624A68A0
:101E70008262D1E902231A43D1E904310B43C16ADA
:101E80001A4321F0F7011143C16200207047006836
:101E900000F00300704708B5084414300090006853
:101EA00008BD70B50DF1100C11439CE87000234380
:101EB000194329434268314347F6FF639A430A4373
:101EC0004260002070BD0321016000207047D0F8FF
:101ED000800070470A688260D1E901231A43D1E982
:101EE00003310B43C1681A436FF30B011143C16007
:101EF0000020704710B586B004463720CDE90010A9
:101F000040200290002003904FF4806004906946C6
:101F10002046FFF7DFFF41F288323721204600F0EC
:101F200021F906B010BD000010B504460A4886B07D
:101F300001432920CDE900104020029000200390A9
:101F40004FF48060049069462046FFF7C3FF2046A7
:101F500000F0BEF906B010BD0000108010B586B0CC
:101F600004461020CDE9001040200290002003908C
:101F70004FF48060049069462046FFF7ABFF41F2C2
:101F800088321021204600F0EDF806B010BD10B5E3
:101F900086B004460620CDE90010402002900020C3
:101FA00003904FF48060049069462046FFF792FF4B
:101FB00041F288320621204600F0D4F806B010BD68
:101FC00030B585B000240546009401944FF480603C
:101FD0000294CDE9034069462846FFF77BFF0B4892
:101FE0004FF4FA510068B0FBF1F041F288314843F8
:101FF000401E03D24FF0004005B030BD696B0906AA
:10200000F6D540F2FF50A8632046F5E70C0000200B
:1020100070B585B004464FF4D57000900820402676
:10202000CDE901060025C001CDE9035069462046EF
:10203000FFF750FF0F484FF4FA510068B0FBF1F082
:1020400041F288314843401E02D24FF000450DE076
:10205000616B11F0450FF6D0606B400702D5A663A7
:10206000042503E0606B400600D5A66305B0284652
:1020700070BD00000C00002010B586B0044607209B
:10208000CDE9002040200290002003904FF48060B2
:10209000049069462046FFF71DFF41F28832072170
:1020A000204600F05FF806B010BD10B586B00446BB
:1020B00000210220CDE90010C020CDE902014FF43B
:1020C0008060049069462046FFF704FF204600F038
:1020D000D7F806B010BD10B586B004460920CDE98A
:1020E0000010C0200290002003904FF48060049004
:1020F00069462046FFF7EEFE204600F0C1F806B024
:1021000010BD10B586B0044600213320CDE9001083
:102110004020CDE902010001049069462046FFF706
:10212000D9FE41F288323321204600F01BF806B078
:1021300010BD30B585B00C46054600210320CDE921
:1021400000104020CDE902010001049069462846B4
:10215000FFF7C0FE22460321284600F0D9F805B05B
:1021600030BD0000444B10B51B684FF4FA54B3FB6C
:10217000F4F353435B1E02D24FF0004010BD426B9C
:1021800012F0450FF6D0426B520703D5042181634C
:10219000084610BD426BD20702D00121816303E0E3
:1021A0000269D2B28A4201D0012010BD40F2FF5133
:1021B00081630021FFF76FFE3049084201D1002002
:1021C00010BD002802DA4FF0007010BD410001D5AB
:1021D000402010BD810001D5802010BDC10002D576
:1021E0004FF4807010BD010102D54FF4007010BD96
:1021F000410102D54FF4806010BDC10102D54FF4FA
:10220000006010BD010202D54FF4805010BD4102A4
:1022100002D54FF4005010BD810202D54FF480402A
:1022200010BDC10202D54FF4004010BD410302D5DC
:102230004FF4003010BD810302D54FF4802010BD53
:10224000C10302D54FF4002010BD010402D54FF4A4
:10225000801010BD410402D54FF4001010BD810460
:1022600002D54FF4800010BD000702D54FF40000E6
:1022700010BD4FF4803010BD0C00002008E0FFFDC1
:1022800012494FF4FA520968B1FBF2F141F2883277
:102290005143491E02D24FF000407047426B12F08A
:1022A000450FF6D0416B490703D5042181630846E9
:1022B0007047416BC90703D001218163084670470D
:1022C00040F2FF5181630020704700000C000020A5
:1022D0000E494FF4FA520968B1FBF2F141F288322B
:1022E0005143491E02D24FF000407047426B12F03A
:1022F000450FF6D0416B490703D504218163084699
:10230000704740F2FF518163002070470C000020AD
:102310001F4B10B51B684FF4FA54B3FBF4F341F2B2
:10232000883463435B1E02D24FF0004010BD446B03
:1023300014F0450FF6D0436B5B0703D5042181638E
:10234000084610BD436BDB0702D00121816303E027
:102350000369DBB28B4201D0012010BD40F2FF5176
:1023600081630021FFF797FD10F4604F04D0410412
:1023700006D54FF4005010BD000C1080002010BD99
:10238000000402D54FF4805010BD4FF4803010BDD2
:102390000C0000202DE9F04F89B00E460446FEF7F0
:1023A00027FA00258346009501952F4608212068CD
:1023B000FFF7D4FD002834D1B4F8500001042068A0
:1023C000FFF798FD00282CD1401E4FF00808CDE9FA
:1023D000020830204FF00209CDE904090120CDE9BF
:1023E000067002A92068FFF740FD2068FFF789FE0C
:1023F000002816D1EA4640F22A472068416B39424C
:1024000012D1416B890204D5FFF761FD4AF825001E
:102410006D1CFEF7EDF9A0EB0B00401CEDD14FF069
:10242000004009B0BDE8F08F416B090703D5C0F843
:1024300038800820F5E7416B890703D5C0F838904C
:102440000220EEE7416B890603D52021816308460F
:10245000E7E740F2FF518163009800BA706001988D
:1024600000BA30600020DCE710B590B004460120CF
:10247000ADF838002068FFF70AFD002864D0606CD2
:10248000032842D02068FFF710FE00285AD100210F
:102490002068FFF700FD606704212068FFF7FBFC60
:1024A000A06708212068FFF7F6FCE0670C21206890
:1024B000FFF7F1FCC4F88000606C032825D00EA95A
:1024C0002068FFF736FE00283CD1606C03281CD042
:1024D000BDF83800206501042068FFF7FCFD0028E6
:1024E00030D100212068FFF7D6FC60660421206807
:1024F000FFF7D1FCA06608212068FFF7CCFCE0665E
:102500000C212068FFF7C7FC206704212068FFF733
:10251000C2FC000DE06403A92046FEF7B7FDB4F845
:102520005000002302042068FFF7A6FD002809D10F
:1025300004F1100007C88DE8070094E80F00FFF7CA
:10254000B0FC002010B010BD4FF08060FAE72DE91C
:10255000F8430025044600950068FFF731FD002888
:102560001AD12068FFF754FD4FF080784FF6FF76C0
:10257000D8B14FF08057A5640098411C0091B0423B
:102580001AD000212068FFF7B5FC20B9002120688F
:10259000FFF7CAFC10B13846BDE8F8830021206877
:1025A000FFF779FCC00FE7D01FE00127A764009870
:1025B000411C0091B04201D14046EDE70021206866
:1025C000FFF798FC0028E7D14FF080412068FFF723
:1025D000ABFC0028E0D100212068FFF75CFCC10FB4
:1025E000E5D0400001D5676400E065640020D3E7D2
:1025F0001CB5044600200090019000212068FFF7E0
:102600004AFC800102D54FF400601CBD694620469B
:10261000FFF7C0FE0028F8D10198C0030CD5B4F82C
:10262000500001042068FFF765FC0028EDD100216F
:102630002068FFF7ACFC1CBD4FF080601CBD1CB5D2
:10264000044600200090019000212068FFF723FC41
:10265000800102D54FF400601CBD69462046FFF79B
:1026600099FE0028F8D1019840030CD5B4F8500029
:1026700001042068FFF73EFC0028EDD1022120680C
:10268000FFF785FC1CBD4FF080601CBD7047FEF756
:10269000BFB9000030B593B030216846FDF7C8FDE2
:1026A00014210CA8FDF7C4FD19480025016841F06C
:1026B00080510160006800F0805011901548016859
:1026C00041F4804101600068022400F480401190D0
:1026D00001200090000401908001CDE90640042013
:1026E0000890A820CDE9090407200B906846FEF762
:1026F00003FB0CA90F2081E831004FF4A0500F908C
:10270000E002109005210CA8FEF70EFA13B030BDC0
:1027100040380240007000401048016841F47001E8
:1027200001600F48016841F0010101600C4A00217D
:102730000832116002680B4B1A400260031D0A4AFE
:102740001A60026822F48022026005480C300160A1
:1027500002495806803908607047000088ED00E0A3
:1027600000380240FFFFF6FE10300024F0B502688A
:10277000254C264D264E274F274B4FF0804CA0422C
:1027800009D0604507D0A84205D0B04203D0B84276
:1027900001D0984204D122F0700E4A6842EA0E023B
:1027A000A0421BD0604519D0A84217D0B04215D026
:1027B000B84213D0984211D0184DA8420ED0184DEF
:1027C000A8420BD0174DA84208D0174DA84205D0FB
:1027D000164DA84202D0164DA84203D122F44075EE
:1027E000CA682A434D6922F080022A4302608A683F
:1027F000C2620A688262A04201D0984201D109698E
:10280000016301214161F0BD00000140000400406E
:1028100000080040000C004000040140004001405E
:10282000004401400048014000180040001C0040E6
:102830000020004010B5846842EA032224F47F445B
:102840000A432243826010BD826822F070020A436C
:1028500042F0070181607047F0B5026A22F0010280
:102860000262036A42688469124E24F073050C68A0
:102870002C4323F002058B682B430D4DA84201D059
:10288000B04205D123F00807CB683B4323F0040393
:10289000A84201D0B04205D14D6922F440721543DF
:1028A0008A692A4342608461496841630362F0BDDA
:1028B0000000014000040140F0B5026A22F010025D
:1028C0000262026A436884690D6824F4E64444EABB
:1028D00005248D6822F0200242EA05120F4D104EA9
:1028E000A84201D0B04206D1CF6822F0800242EA6D
:1028F000071222F04002A84201D0B04207D14D6930
:1029000023F4406343EA85038D6943EA850343600A
:102910008461496881630262F0BD000000000140EB
:1029200000040140F0B5026A22F480720262026A79
:102930004368C46922F4007224F073050C68124ED7
:102940002C438D6842EA05220E4DA84201D0B042C8
:1029500006D1CF6822F4006242EA072222F48062A4
:10296000A84201D0B04207D14D6923F4405343EA55
:1029700005138D6943EA05134360C4614968C16367
:102980000262F0BD000001400004014030B5026A5F
:1029900022F480520262046A4268C3690D6823F41B
:1029A000E64343EA05238D6824F4005444EA0534E1
:1029B000084DA84202D0084DA84204D14D6922F426
:1029C000804242EA85124260C36149680164046240
:1029D00030BD0000000001400004014010B5036A52
:1029E000046A24F001040462846924F0F00444EAD7
:1029F000021423F00A020A438461026210BD10B57A
:102A0000036A23F0100303628369046A23F47043AA
:102A100043EA023224F0A00343EA01118261016219
:102A200010BD00002DE9F041044600680169E2682C
:102A300021F44051114301612169A068E269084312
:102A40006169114322680843D16849F20C639943D4
:102A50000143D16020684169A26921F440711143AA
:102A60004161E2696425B2F5004F974897492268B1
:102A70004FF032083FD08A4201D082427CD1FEF72B
:102A8000FBF800EBC00101EB001061688900B0FBAE
:102A9000F1F6FEF7F1F800EBC00101EB0010616800
:102AA0008900B0FBF1F0B0FBF5F06FF0180148437E
:102AB00006EB800108EB0110B0FBF5F000F0F0062A
:102AC000FEF7DAF800EBC00101EB00106168890045
:102AD000B0FBF1F0B0FBF5F006EB0016FEF7CCF81A
:102AE00000EBC00101EB001061688900B0FBF1F759
:102AF000FEF7C2F8D2E08A4201D082423DD1FEF711
:102B0000BBF800EBC00101EB001061684900B0FBAD
:102B1000F1F0B0FBF5F00601FEF7AEF800EBC001F6
:102B200001EB001061684900B0FBF1F7FEF7A4F873
:102B300000EBC00101EB001061684900B0FBF1F04F
:102B4000B0FBF5F06FF01801484307EB800108EB8C
:102B5000C100B0FBF5F000F0F80006EB4006FEF710
:102B60008BF800EBC00101EB001061684900B0FB7D
:102B7000F1F7FEF781F83CE055E0FEF76DF800EB69
:102B8000C00101EB001061684900B0FBF1F0B0FB3F
:102B9000F5F00601FEF760F800EBC00101EB001054
:102BA00061684900B0FBF1F7FEF756F800EBC00191
:102BB00001EB001061684900B0FBF1F0B0FBF5F0EB
:102BC0006FF01801484307EB800108EBC100B0FB30
:102BD000F5F000F0F80006EB4006FEF73DF800EBDC
:102BE000C00101EB001061684900B0FBF1F7FEF78E
:102BF00033F800EBC00101EB001061684900B0FB45
:102C0000F1F0B0FBF5F06FF01801484307EB8001DD
:102C100008EBC100B0FBF5F000F00700216830447C
:102C20008860BDE8F081FEF717F800EBC00101EB0A
:102C3000001061688900B0FBF1F6FEF70DF800EBBB
:102C4000C00101EB001061688900B0FBF1F0B0FB3E
:102C5000F5F06FF01801484306EB800108EB011016
:102C6000B0FBF5F000F0F006FDF7F6FF00EBC00159
:102C700001EB001061688900B0FBF1F0B0FBF5F0EA
:102C800006EB0016FDF7E8FF00EBC00101EB0010BA
:102C900061688900B0FBF1F7FDF7DEFF00EBC001D2
:102CA00001EB001061688900B0FBF1F0B0FBF5F0BA
:102CB0006FF01801484307EB800108EB0110B0FBEF
:102CC000F5F000F00F00A9E70014014000100140EA
:102CD000FEE70907090E002804DB00F1E02080F878
:102CE0000014704700F00F0000F1E02080F8141D80
:102CF000704702E008C8121F08C1002AFAD17047C5
:102D00007047002001E001C1121F002AFBD170476B
:102D1000FDF786FEFFF7BEFCFEF778FEFEF766FFC6
:102D2000FEF784FFFEF7A4FFFFF764F8FEF70AFE44
:102D3000FEF73AFEFEF71AFFFEF738FFFEF7BAFF7E
:102D4000FEF7DAFFFFF70CF8FFF770F80B4C4021A5
:102D50002046FDF743FD78B1002208212046FDF70B
:102D600042FD012210212046FDF73DFD01222021D8
:102D70002046FDF738FDEAE70122EEE7000C0240AD
:102D8000000000000000000001020304060708091B
:102D90000000000001020304B82D0008000000201C
:102DA00010000000F22C0008C82D000810000020C0
:102DB000C8070000022D00080100000010000000FC
:082DC000000000000024F400F3
:040000050800018965
:00000001FF
