:020000040800F2
:10000000D00B00209D010008A3230008251C000838
:10001000A1230008D10300083D33000800000000C0
:10002000000000000000000000000000C92B0008D4
:10003000D303000800000000A5230008CB2B000814
:10004000B7010008B7010008B7010008B7010008B0
:10005000B7010008B7010008B7010008B7010008A0
:10006000B7010008B7010008B7010008B701000890
:10007000B7010008B7010008B7010008B701000880
:10008000B7010008B7010008B7010008B701000870
:10009000B7010008B7010008B7010008B701000860
:1000A000B7010008B7010008B7010008B701000850
:1000B000B7010008B7010008B7010008B701000840
:1000C000B7010008B7010008B7010008B701000830
:1000D000B701000831330008B7010008B701000874
:1000E000D5030008B7010008B7010008B7010008F0
:1000F000B7010008B7010008B7010008B701000800
:10010000B7010008B7010008B7010008B7010008EF
:10011000B7010008B7010008B7010008B7010008DF
:10012000B7010008B7010008B7010008B7010008CF
:10013000B7010008B7010008B7010008B7010008BF
:10014000B7010008B7010008B7010008B7010008AF
:10015000B7010008B7010008B7010008B70100089F
:10016000B7010008B7010008B7010008B70100088F
:10017000B7010008B7010008B7010008000000003F
:10018000B7010008B7010008DFF80CD000F07AF8DA
:1001900000480047A1340008D00B002006488047E3
:1001A00006480047FEE7FEE7FEE7FEE7FEE7FEE75C
:1001B000FEE7FEE7FEE7FEE7552C00088901000890
:1001C0002DE9F05F0546002092469B46884606468C
:1001D000814640241BE0284641464746224600F01F
:1001E00041F853465A46C01A914110D31146184659
:1001F000224600F028F82D1A67EB01084F462246E8
:100200000120002100F01FF817EB00094E41201ECD
:10021000A4F10104DFDC484631462A464346BDE8E6
:10022000F09FD2B201E000F8012B491EFBD27047CB
:100230000022F6E710B513460A4604461946FFF7B2
:10024000F0FF204610BD202A04DB203A00FA02F11C
:10025000002070479140C2F1200320FA03F31943B4
:1002600090407047202A04DB203A21FA02F0002156
:10027000704721FA02F3D040C2F1200291400843B6
:1002800019467047064C074D06E0E06840F0010350
:1002900094E8070098471034AC42F6D3FFF778FF94
:1002A0002436000844360008464910B54A6822F44E
:1002B00040324A604A6843681A434A6001684A68A3
:1002C00022F480724A6001684A68036942EA0322A4
:1002D0004A6001684A6822F040724A6001684A68D0
:1002E00083681A434A6001688A6822F400628A605F
:1002F00001688A68C3681A438A60816A6FF0706215
:10030000D14201688A6822F070628A6001688A6856
:100310000CD0836A1A438A6001688A6822F04052CE
:100320008A6001688A68C36A1A4301E022F0405279
:100330008A6001688A6822F002028A6001688A681D
:10034000037E42EA43028A6090F820100029016887
:100350004A680FD042F400624A6001684A6822F499
:1003600060424A6001684A68174C436A04EB4333B1
:100370001A4301E022F400624A600168CA6A22F46A
:100380007002CA620168CA6A838B104C04EB035383
:100390001A43CA6201688A6822F400728A6001689E
:1003A0008A6890F8303042EA43228A6001688A689D
:1003B00022F480628A6001688A68406942EA80208B
:1003C000886010BD0023014000E0FFFF0000F0FF47
:1003D000FEE7704710B50B4C2068400505D503F0CB
:1003E000C3F82015206000F04DF92068000508D5FD
:1003F00003F0A8F84FF400602060BDE8104000F062
:1004000041B910BD143C01407047000078B500248C
:10041000009490F83C20012A19D0012280F83C2059
:100420000A6807230568092A13D9EE680A3A02EB1D
:10043000420293409E43EE600B788A680A3B03EBCE
:1004400043039A400368DD682A43DA6010E0022023
:1004500078BD2E6902EB420293409E432E610B78D9
:100460008A6803EB43039A4003681D692A431A61B3
:100470004A681F23072A13D205686E6B521E02EBCF
:10048000820293409E436E630B790A885B1E92B290
:1004900003EB83039A4003685D6B2A435A6327E0AA
:1004A00005680D2A12D22E6BD21F02EB82029340F6
:1004B0009E432E630B790A88DB1F92B203EB830302
:1004C0009A4003681D6B2A431A6311E0EE6A0D3AE5
:1004D00002EB820293409E43EE620B790A880D3B49
:1004E00092B203EB83039A400368DD6A2A43DA621F
:1004F000164B0568144A9D4206D10D68122D03D192
:10050000556845F48005556005689D4218D10B6813
:10051000102B01D0112B13D1536843F40003536007
:10052000096810290CD10A490A4A0968B1FBF2F19D
:1005300001EB8101490000E0491E00910029FBD137
:1005400080F83C40002078BD00230140002001409D
:100550001400002040420F0070B504004FF0000569
:1005600003D0206C002610B107E0012070BD2046AA
:1005700000F01CF8666484F83C60206CC00610D45F
:10058000206C20F4885040F0020020642046FFF7E1
:100590008BFE6664206C20F0020040F001002064B5
:1005A00000E0012584F83C60284670BD70B586B037
:1005B000044614216846FFF73BFE1D491B4E256883
:1005C00000231B4A143903241A48B54211D1156877
:1005D00045F480751560126802F4807205920A680D
:1005E00042F001020A60096801F00101059102214F
:1005F00013E0114EB54216D1156845F480651560BB
:10060000126802F4806205920A6842F001020A60F0
:10061000096801F0010105910121CDE9001402935F
:10062000694600F031F806B070BD000000200140BE
:1006300044380240000002400022014090F835108A
:10064000022903D08021416501207047052180F8EF
:1006500035100068016821F0010101600020704739
:1006600070B5044600F0FAF80546601C02D0044854
:100670000078044400F0F2F8401BA042FAD370BDA9
:1006800008000020704700002DE9F84FDFF87CB12A
:1006900000224FF001084FF0030A4FF00F090BF151
:1006A000040E00BF0B6808FA02F42340A3426ED187
:1006B0004D68022D01D0122D0ED1D50800EB850C0E
:1006C000DCF820505607F70E09FA07F6B5430E6915
:1006D000BE402E43CCF82060066855000F790AFA18
:1006E00005FC07F0030726EA0C06AF403743076016
:1006F0004E68012E05D0022E03D0112E01D0122EED
:100700000ED18668CF6826EA0C06AF403743876073
:100710004668A6430C79C4F3001494403443446003
:10072000C6688C6826EA0C06AC403443C4604C684A
:10073000E40065D5364C256845F48045256024687D
:1007400022F0030504F480440094324C2E19D6F8AC
:10075000084895072F0F09FA07F5AC432E4DA8421C
:1007600001D1002524E02D4DA84201D101251FE033
:100770002B4DA84201D102251AE02A4DA84201D1F1
:10078000032515E0284DA84202D1042510E037E0EA
:10079000264DA84201D105250AE0254DA84201D1E8
:1007A000062505E0234DA84201D1072500E00825D4
:1007B000BD402543C6F80858DBF800405D464E684A
:1007C0009C43F60300D51C432C60DEF800407546C0
:1007D0004E689C43B60300D51C432C600B4D083576
:1007E0002C684E689C43F60200D51C432C60074DD4
:1007F0000C352C684E689C43B60200D51C432C6017
:10080000521C102AFFF44EAFBDE8F88F003C0140A7
:100810004438024000300140000002400004024021
:1008200000080240000C0240001002400014024088
:1008300000180240001C02400069084000D001205E
:100840007047426931EA020200D1090481617047B0
:100850000AB1816170470904FBE700000148806824
:10086000704700000800002070B504001BD094F809
:100870003D00002520B984F83C50204600F044F9A2
:10088000242084F83D002068016821F00101016006
:1008900000F0BCFA4D4A6168914201D84C4900E031
:1008A0004C49884201D2012070BD4B492368B0FBFE
:1008B000F1F15E6826F03F060E435E606368934286
:1008C00006D94FF4967359434FF47A73B1FBF3F1A1
:1008D0002368491C1E6A26F03F063143196261688D
:1008E000914210D84900401EB0FBF1F2521CC2F3F5
:1008F0000B02042A01D2042022E0B0FBF1F0401CDC
:10090000C0F30B001CE0A368F3B301EBC10202EBE0
:100910000116421EB2FBF6F2521C42F4804212054E
:1009200049D093B301EBC10202EB0111401EB0FBB1
:10093000F1F0401CC0F30B0040F4804040F4004054
:100940002168CA694CF6FF739A431043C861D4E921
:100950000701084321680A6822F0C00210430860BA
:10096000D4E9030101432068826848F2FF339A43C7
:1009700011438160D4E9050108432168CA6822F067
:10098000FF021043C86001E00EE016E02068016835
:1009900041F0010101602564202084F83D002563B9
:1009A00084F83E50002070BD01EB4106421EB2FBB0
:1009B000F6F2521CB3E70120C2E701EB4101401EF1
:1009C000B0FBF1F0401CC0F30B00B7E7A0860100BC
:1009D00080841E0000093D0040420F002DE9F84FC1
:1009E0001F4690468A460446DDF82890FFF736FFFA
:1009F000054694F83D0020287FD119230122404963
:100A00002046009501F090F9002876D194F83C003A
:100A1000012872D0012084F83C0020680168C907D1
:100A200003D1016841F0010101602068016821F4EF
:100A300000610160212084F83D00102084F83E0010
:100A400000262664C4F824806785608D20852D48A3
:100A5000E0622B464A465146204601F0FBF890B929
:100A6000206841698069009036E02A464946204660
:100A700001F0D9F950B1206C042804D12068016834
:100A800041F4007101600120BDE8F88F606A2168BF
:100A900000780861606A401C6062618D491E618552
:100AA000218D491E89B2218522685369DB435B078A
:100AB0000BD451B100781061606A401C6062608D97
:100AC000401E6085208D401E20852A4649462046CE
:100AD00001F004F90028CED1208D0028C5D154F8AA
:100AE0003D0B016841F400710160202004F81E09EB
:100AF000E67766770020C7E7FFE70220C4E700003B
:100B0000020010000000FFFFF0B587B0044614217A
:100B10006846FFF78DFB2768204CDFF87CC01F4933
:100B200012220123032504261D481034674515D1E0
:100B30000F6847F002070F60096801F00201059194
:100B400029028DE86E006946FFF79EFD206840F49B
:100B500000102060206800F4001019E0DFF844C0A5
:100B6000674516D10F6847F002070F60096801F06A
:100B7000020105914FF440618DE86E006946FFF770
:100B800083FD206840F480002060206800F480002D
:100B9000059007B0F0BD000000540040303802401E
:100BA0000004024000580040024881680278114465
:100BB00081607047080000200B4810B5016841F4BF
:100BC00000710160016841F480610160016841F4D5
:100BD00080710160032000F06FF8002000F006F83B
:100BE00000F024F8002010BD003C024070B50D4D0F
:100BF00004464FF47A712878B1FBF0F00A4909688D
:100C0000B1FBF0F000F04EFD48B9102C07D20022E5
:100C10002146501E00F030F800206C6070BD0120AD
:100C200070BD000008000020140000200A4808B52C
:100C3000016841F480410160006800F48040009048
:100C40000548001F016841F080510160006800F014
:100C50008050009008BD000044380240002809DBA5
:100C600000F01F02012191404009800000F1E020C6
:100C7000C0F8001170470000F0B40E4B1B680C4622
:100C8000C3F30223C3F10705042D00D90425191D60
:100C9000072901D2002300E0DB1E012606FA05F138
:100CA000491E214099409E40761E16403143F0BCBB
:100CB00002F045BB0CED00E0064900F007020868B1
:100CC0004FF6FF03184040EA0220034A1043086031
:100CD000704700000CED00E00000FA052DE9F04738
:100CE0000E46050065D0DFF81481D8F80000F7B291
:100CF00000F00F00B04207D288F80070D8F800006A
:100D000000F00F00B04254D128683D4C810712D545
:100D1000400703D5206840F4E050206028780007A1
:100D200003D5206840F4604020602068A96820F066
:100D3000F000084320602878C0072DD0304968684B
:100D40000839012812D0022813D0032811D00968CD
:100D5000890700292DDA216821F003010143216070
:100D6000FFF77CFD814641F2883A0EE0096889036D
:100D7000EFE709688901ECE7FFF770FDA0EB0901D7
:100D8000514502D90320BDE8F0872068696800F06A
:100D90000C00B0EB810FEFD1D8F80010404601F005
:100DA0000F01B14207D90770006800F00F00B04290
:100DB00001D00120E7E72878400705D52068E968D9
:100DC00020F4E050084320602878000706D520680A
:100DD000296920F4604040EAC100206000F036F844
:100DE0002168084AC1F30311515CC84006490860F4
:100DF0000020FFF7FBFE0020C5E70000003C02409A
:100E0000083802400C360008140000200448054948
:100E100000680968044AC1F38221515CC8407047E8
:100E200014000020083802401C3600080448054918
:100E300000680968044AC1F34231515CC8407047F8
:100E400014000020083802401C360008154810B570
:100E5000006810F00C02144813D04110042A0FD07F
:100E6000082A0ED10F4C241F2268236802F03F028B
:100E70005B0207D52068C0F38810A0FB010106E0E3
:100E8000084610BD2168C1F38811A1FB00010023B1
:100E9000FFF796F92168C1F30141491C4900B0FBF5
:100EA000F1F010BD083802400024F4002DE9F84F9D
:100EB000050076D02878DFF8F8B2BE4CC00749D0DC
:100EC000DBF800105846C1F38101012908D0006801
:100ED000C0F3810002280AD1201D0068400206D517
:100EE0002068800336D568680028E2D032E0686860
:100EF000B0F5803F10D0B0F5A02F206810D020F4BE
:100F000080302060206820F4802020606868A0B1D4
:100F1000FFF7A4FC06460CE0206840F48030F4E7BC
:100F200040F480202060F7E7FFF798FC801B6428DE
:100F300073D820688003F7D50CE0FFF78FFC0646D6
:100F400005E000BFFFF78AFC801B6428F0D820680A
:100F50008003F7D42878DFF8608280074FF000091B
:100F60003ED5DBF80010584611F00C0F09D0006890
:100F7000C0F3810002280BD18D48001F0068400299
:100F800006D42068800715D5E868012809D111E04A
:100F9000E868B8B10120C8F80000FFF75FFC06461A
:100FA00005E002E1FFF75AFC801B0228C0D8206848
:100FB0008007F7D52068296920F0F80040EAC100D1
:100FC00020600DE0C8F80090FFF748FC064604E0FA
:100FD000FFF744FC801B02281FD820688007F7D445
:100FE0002878000722D5724E744869696C3671B151
:100FF00001210160FFF732FC074604E0FFF72EFCF9
:10100000C01B022809D830688007F7D50EE0C0F869
:101010000090FFF723FC074605E083E0FFF71EFC86
:10102000C01B02287ED830688007F7D42878400794
:1010300068D5DFF87CA100270AF1380ADAF8000049
:10104000C0000BD4DAF8001041F08051CAF800104B
:10105000DAF80000012700F080500090584E306808
:10106000C00510D4306840F480703060FFF7F6FBA4
:10107000009005E0FFF7F2FB0099401A022851D8D2
:101080003068C005F6D54A4EA868683601280FD0EA
:101090000528306810D020F001003060306820F062
:1010A00004003060A868B8B1FFF7D8FB00900FE0EB
:1010B000306840F00100F4E740F004003060F7E7EA
:1010C000FFF7CCFB0099411A41F28830814264D885
:1010D00030688007F4D50EE0FFF7C0FB009007E012
:1010E000FFF7BCFB0099411A41F28830814254D885
:1010F00030688007F4D42FB1DAF8001021F0805165
:10110000CAF80010A869C0B3DBF80010C1F3810170
:1011100002294AD00228484607D0C8F86000FFF7E5
:101120009DFB00E039E005463AE04746C8F860001C
:10113000FFF794FB064604E0FFF790FB801B0228B4
:101140002BD820688001F7D4D5E907010843A96AA4
:101150001C4A490802EB01416A6A41EA82110843CC
:1011600095F82C1040EA01611148001F0160012030
:101170003866FFF773FB054605E014E0FFF76EFBEA
:10118000401B022809D820688001F7D50BE000BF7A
:10119000FFF764FB401B022802D90320BDE8F88F4B
:1011A00020688001F4D40020F8E70120F6E7000071
:1011B000083802400038024000004742800E474293
:1011C000007000400000FFFFFEB5044603200D46FE
:1011D00084F83400606C032820D0B5F5805F1DD002
:1011E000B5F5006F05D045B1A06B40F00060A0637D
:1011F00009E0204601F0C1FC02E0204601F096FC27
:10120000A16B0143A163A06B012658B1216840F294
:10121000FF50886384F834600120FEBDA06B40F06D
:101220008050E4E7211DD4E905700EC90095CDE991
:101230000170206801F0D3F884F834600020FEBD0E
:10124000F0B5426E120E93090B70C2F383034B701C
:1012500002F003028A70426E120CCA70B0F8642069
:10126000120A0A7190F864204A71826E4FF6FF7379
:10127000120E03EA0212CA80826ECB88C2F30742C2
:1012800043EA1213CB8002F00F020A72B0F8682012
:10129000C2F30722D3094B72C2F380138B72C2F3DD
:1012A0004013CB72C2F300130B7300264E73446CD1
:1012B0004FF4007701236CB1012C43D0026840F257
:1012C000FF519163816B41F08051816380F834302C
:1012D0000120F0BD9207120D0A6190F868200C6998
:1012E00044EA82020A61C26E0C69120E44EA921448
:1012F0000C61C2F3C2040C7502F007024A75C26E9B
:10130000C2F3074254098C75C2F38204CC7592076C
:10131000520F0A76B0F86C20C2F307240A7E42EA24
:10132000D4120A760A69521C42650D7EAD1CAA4091
:1013300042650D7A03FA05F585656D0A6A43C0E9D1
:1013400017271CE090F868209206920A0A61C26E84
:101350000C69120E44EA02220A61C26E0C69C2F3E1
:10136000074214430C61B0F86C20C2F307240A69E9
:10137000521C4FEA82224265C0E916720766C4F326
:10138000801201F8192F4FEA84624FEA52624A70C4
:1013900010F86C2F4C7844EAD2144C7002F07F02A3
:1013A0008A7042684FEA12624FEAD214CC70C2F3DC
:1013B00041140C71C2F382044C714FEA82724FEAFD
:1013C00012728A7142688C79C2F3074244EA92141D
:1013D0008C71C2F34014CC710E7202F001024A7299
:1013E0008288C2F307224FEAD2148C72C2F38014AF
:1013F000CC72C2F340140C73C2F300144C73C2F3EA
:1014000081048C7302F00302CA7300794FEA500022
:1014100008744B744FF00000F0BD70B5040004D0A8
:1014200094F83400002510B105E0012070BD257747
:10143000204600F037F8032084F83400204600F0FE
:1014400007F8A5632563012084F83400002070BDEF
:10145000FEB50025044676200095CDE901502B46C7
:101460002A462946206800F0BAFF0D4E46F8A05FD4
:10147000206800F0C6FF012535600220FFF7F0F874
:10148000204601F002FB20B9204601F08BFA00282B
:1014900005D084F83450A16B0143A1630120FEBD47
:1014A00000802542F0B587B0044614216846FEF757
:1014B000BFFE1D492068884233D11C4800240168C2
:1014C00041F400610160006800F400600590174875
:1014D0001438016841F004010160016801F0040161
:1014E0000591016841F0080101600068022500F0E3
:1014F000080005904FF4F850CDE9000502AA032634
:101500000C2782E8D00069460948FFF7BDF804209F
:10151000CDE9000502AA694682E8D0000548FFF738
:10152000B3F807B0F0BD0000002C01404438024081
:1015300000080240000C024070B5040005D00025F0
:10154000A56294F8510010B106E0012070BD84F846
:101550005050204600F030F8022084F851002068F6
:10156000016821F040010160D4E901010843D4E998
:1015700003121143084361690843218B01F4007190
:101580000843E1690843216A0843A16A08432168C6
:101590000860A069042101EA1040616A08432168DB
:1015A00048602068C16921F40061C161656501205E
:1015B00084F85100002070BDF0B587B004461421B6
:1015C0006846FEF735FE314827680022304902247C
:1015D0000325052687421AD12D481430036843F4A9
:1015E00080530360006800F480500590086840F064
:1015F00001000860086802AB00F001000590E020DF
:10160000CDE9000483E86400694622481EE0204BCF
:10161000DFF884C01033214867451BD11F6847F4A9
:1016200080471F601B6803F4804305930B6843F0F9
:1016300002030B60096802AF01F0020105914FF44B
:101640006041CDE9001487E864006946FFF71CF8A3
:1016500007B0F0BD124EB742FAD11E6846F40046FC
:101660001E601B6803F4004305930B6843F00203FC
:101670000B600968029201F0020105913821CDE961
:1016800000140621CDE903516946DFE7003001402F
:1016900030380240000002400038004000040240A0
:1016A000003C004010B5401EB0F1807F01D3012006
:1016B00010BD4FF0E02460610F21601701F03FFE84
:1016C0000020A06107202061002010BD70B590F8B7
:1016D0003C20012A19D0012400F83C4F022242701C
:1016E00050F83C3C5A689D6822F070060A684968C8
:1016F000324325F0800529435A6050F83C2C916014
:10170000447000210170084670BD022070BD10B504
:10171000040003D094F83D0010B107E0012010BD93
:10172000002084F83C00204600F00CF8022084F8E9
:101730003D00211D206801F0B7FA012084F83D002A
:10174000002010BD08B500680649884208D1064847
:10175000016841F002010160006800F002000090A1
:1017600008BD0000000400404038024070B5044647
:1017700090F83C00012817D0012584F83C50022045
:1017800084F83D002068826822F0770222F47F42CC
:1017900082600868502830D00DDC20284DD005DC50
:1017A00098B310283BD148E0022070BD302844D0C7
:1017B000402834D139E0602828D0702806D0B0F510
:1017C000805F2CD0B0F5005F29D10AE0CB68D1E969
:1017D0000121206801F0CCFA2068816841F077018E
:1017E00009E0CB68D1E90121206801F0C1FA206845
:1017F000816841F48041816011E0CA6849682068CD
:1018000001F08AFB5021206807E016E0CA684968A9
:10181000206801F092FB6021206801F0B3FA84F89F
:101820003D50002084F83C0070BDCA6849682068BB
:1018300001F072FB40212068EFE722680146104664
:10184000EBE7000030B587B0044614216846FEF788
:10185000EFFC24680021174802220123B4F1804FD5
:1018600016D0154DAC4211D1046844F00204046056
:101870000068009300F002000590CDE90121CDE958
:1018800003120E48694600BFFEF7FEFE07B030BDEA
:10189000046844F001040460006800F00100059051
:1018A0004FF400400090CDE90121CDE903136946D2
:1018B0000348E9E7303802400004004000040240D9
:1018C0000000024070B5044690F83C000D46012827
:1018D0000DD0012684F83C60022084F83D0042B11E
:1018E000042A18D0082A2AD00C2A4DD139E0022027
:1018F00070BD206801F04EFA2068816941F008014E
:1019000081612068816921F0040181612068816919
:101910002A69114311E0206801F06CFA206881699E
:1019200041F4006181612068816921F480618161F5
:10193000206881692A6941EA0221816124E02068E6
:1019400001F08EFA2068C16941F00801C161206888
:10195000C16921F00401C1612068C1692A6911438C
:1019600011E0206801F0B0FA2068C16941F400611B
:10197000C1612068C16921F48061C1612068C169C9
:101980002A6941EA0221C16184F83D60002084F89F
:101990003C0070BD10B5040003D094F83D0010B1B8
:1019A00007E0012010BD002084F83C00204600F034
:1019B0000DF8022084F83D00211D206801F074F923
:1019C000012084F83D00002010BD000008B500682B
:1019D000B0F1804F08D10548016841F00101016074
:1019E000006800F00100009008BD0000403802408F
:1019F0007047000070B5026804461068D1685369EA
:101A000010F00F0F50D003F0010501F4907635432C
:101A10005DD0C20705D0CA0503D5E26B42F00102D2
:101A2000E263420705D5DA0703D0E26B42F0020217
:101A3000E263820705D5DA0703D0E26B42F00402C5
:101A4000E263020705D5DA0703D0E26B42F0080231
:101A5000E263E26B002A33D0800604D5880602D503
:101A6000204601F092FA20684069E16BC0F38010D3
:101A7000090700D428B3204601F079FA20684169AB
:101A800049061AD5416921F040014161606BA0B15E
:101A90001B490165606BFEF7D1FD002810D0606B1B
:101AA000016DBDE870400847830610D58B060ED542
:101AB0002046BDE8704001F068BA2046FFF798FF65
:101AC00070BD2046FFF794FF0020E06370BD030661
:101AD00006D50B0604D52046BDE8704001F0F6BBE4
:101AE0004006F3D54806F1D5D168204621F04001E3
:101AF000D160202184F8391000F093F870BD000007
:101B00005F2F000870B5040004D094F83900002558
:101B100010B106E0012070BD84F83850204600F076
:101B200023F8242084F839002068C16821F400518A
:101B3000C160204601F074FA2068016921F49041E7
:101B400001612068416921F02A0141612068C16872
:101B500041F40051C160E563202084F8390084F825
:101B60003A00002070BD0000F0B587B00446142193
:101B70006846FEF75DFB2648244F26682449143842
:101B8000C022022301240325BE4222D10E6846F062
:101B900010060E60096801F010010591016841F01E
:101BA000020101600068694600F00200059007200C
:101BB000CDE903508DE81C001648FEF765FD0022B4
:101BC00011462520FFF758F82520FFF747F807B002
:101BD000F0BD114FBE42FAD10E6846F020060E60ED
:101BE000096801F020010591016841F004010160DC
:101BF0000068694600F0040005900820CDE9035014
:101C00008DE81C000548FEF73FFDE0E700100140AD
:101C10004438024000040240001401400008024021
:101C200070477047FEE701684A69D24352050FD4F6
:101C30006FF480624A61002140F8301F2022427315
:101C40008173026942F0040202610173012070474E
:101C500000207047F8B50446C06A1E460D46174678
:101C6000082807D0012805D010F5803F02D0206B4E
:101C7000122804D12068016841F480710160134684
:101C800000224FF001112046009600F04DF808BBED
:101C90002069B0F5804F0ED00620216800EAD510EB
:101CA00040F0F000086133463A460B49204600F008
:101CB0006FF878B902E005F0FE0000E0E8B22168B4
:101CC0000861054933463A46891F204600F060F80E
:101CD000002800D00120F8BD0800010070B51646AC
:101CE0000D4604460DE02046FFF79DFF08B1012098
:101CF00070BD681C05D0FEF7B1FD801BA84207D857
:101D000035B120684069C0434007ECD4002070BD65
:101D1000002044F8300F20216173A073216941F045
:101D2000200121612073E2E72DE9F0471E4690462D
:101D30000D460446C1F30747DDF8209008E0701C0B
:101D400006D0FEF78BFDA0EB0900B0420FD876B1AC
:101D50002068012F18D0806925EA00000004000CDB
:101D600014D000214145EAD00020BDE8F0870020D2
:101D700044F8300F20216173A073216941F02001E4
:101D8000216120730120F0E74069E5E70121E9E7DF
:101D90002DE9F0479A4691460E46044600254FF03D
:101DA0002008C1F3074725E020684069C04340058B
:101DB00014D42068016841F40071016021686FF457
:101DC00080604861256384F83D8084F83E50206C33
:101DD00040F00400206484F83C501FE0B9F1FF3F5C
:101DE00008D0FEF73BFDA0EB0A0149450CD8B9F13C
:101DF000000F09D02068012F13D0806926EA000067
:101E00000004000C0BD0CFE744F8305F84F80D805D
:101E1000A573206940F02000206125730120BDE8F2
:101E2000F0874069EAE770B516460D4604460DE0B6
:101E30002046FFF7F8FE08B1012070BD681C05D0F0
:101E4000FEF70CFD801BA84207D835B12068406919
:101E5000C0430006ECD4002070BD002044F8300FD1
:101E600020216173A073216941F020012161207359
:101E7000E2E700007FB50024154800940194029425
:101E80001249039401604FF48031C0E901140461E8
:101E9000047680F820400F49C0E90A140125C56185
:101EA000C46080F830404561FEF756FB08B1FEF78C
:101EB000ABFA0095CDE9015469460548FEF7A6FA4C
:101EC000002801D0FEF7A0FA7FBD000000200140ED
:101ED000D80000200100000F7FB5002415480094B1
:101EE000019402941249039401604FF48031C0E9D7
:101EF00001140461047680F820400F49C0E90A14F7
:101F00000125C561C46080F830404561FEF724FBBF
:101F100008B1FEF779FACDE9004569460548029413
:101F2000FEF774FA002801D0FEF76EFA7FBD0000BC
:101F300000220140200100200100000F2DE9F04F98
:101F400087B014216846FEF773F9504800240168F1
:101F500041F080010160016801F080010591016894
:101F600041F001010160016801F001010591016882
:101F700041F004010160016801F00401059101686C
:101F800041F002010160016801F002010591016860
:101F900041F008010160016801F008010591016844
:101FA00041F0400101600068DFF8E49000F040007B
:101FB0000590002230214846FEF74AFCDFF8D4A005
:101FC00041F20606002231465046FEF741FCDFF89A
:101FD000C8B04FF44E77002239465846FEF738FC19
:101FE0004FF40048002241462C48FEF731FC1420F3
:101FF00000902B48CDE9010469462A48FEF744FBCE
:10200000302000900125CDE90154694648460394EB
:10201000FEF73AFB0096CDE9015469465046039419
:10202000FEF732FB0097CDE9015469465846039408
:10203000FEF72AFB4FF472508DE83100694658468E
:10204000FEF722FB4FF40F708DE83100694613480C
:10205000FEF71AFB40208DE8310069465846FEF72E
:1020600013FBCDF80080CDE9015469460B48039479
:10207000FEF70AFB002211462820FEF7FDFD28206E
:10208000FEF7ECFD07B0BDE8F08F000030380240ED
:102090000008024000040240000C02400018024008
:1020A00000001110000002400D4810B50B490160FE
:1020B0000C49416000214FF480428160C0E9031265
:1020C00041618161C1610162FEF7CEFB002803D04E
:1020D000BDE81040FEF798B910BD00000054004064
:1020E00068010020A08601000D4810B50B49016071
:1020F0000C49416000214FF480428160C0E9031225
:1021000041618161C1610162FEF7AEFB002803D02D
:10211000BDE81040FEF778B910BD0000005800403F
:10212000BC010020A08601000E4810B50C490160DA
:10213000002141608160C160016141618161FFF7FF
:102140006CF908B1FEF760F94FF400610548FFF73C
:102150003BF8002803D0BDE81040FEF755B910BD8C
:10216000002C0140100200200F4810B50D490160FD
:102170004FF48271416000218160C1604FF40072B0
:102180000161C0E90512C1610162416281620A21F7
:10219000C162FFF7D1F9002803D0BDE81040FEF777
:1021A00033B910BD00300140940200200F4810B533
:1021B0000D4901604FF48271416000218160C1606E
:1021C0004FF400720161C0E90512C1610162416210
:1021D00081620A21C162FFF7AFF9002803D0BDE890
:1021E0001040FEF711B910BD00380040EC0200208D
:1021F0000F4810B50D4901604FF482714160002114
:102200008160C1604FF400720161C0E90512C161D3
:102210000162416281620A21C162FFF78DF90028E3
:1022200003D0BDE81040FEF7EFB810BD003C004001
:102230004403002010B58AB0002407941C2168468E
:102240000894FDF7F5FF14484FF08041C0E90014F1
:102250008460C46004618461FFF79CFB08B1FEF7F1
:10226000D3F8079407A90C480894FFF72FFA08B190
:10227000FEF7CAF86020CDE9000402940022694606
:1022800005480494FFF71EFB08B1FEF7BDF80248AD
:10229000FFF7D8FA0AB010BD9C03002010B58EB02D
:1022A00000240794089409940A940B941C2168460E
:1022B0000C94FDF7BDFF1D481B49C0E90014846064
:1022C000C46004618461FFF722FA08B1FEF79CF84C
:1022D0004FF48050079007A91448FFF747FA08B158
:1022E000FEF792F81148FFF755FB08B1FEF78CF89E
:1022F0000B940BA90D480C94FFF7E8F908B1FEF711
:1023000083F86020CDE9000402940822694607485A
:102310000494FFF7D7FA08B1FEF776F80348FFF701
:1023200091FA0EB010BD000000040040DC03002054
:102330000C4810B50A4901604FF4E13141600021B9
:1023400081600C22C160C0E904128161C161FFF7A4
:10235000D9FB002803D0BDE81040FEF755B810BDEA
:10236000001001401C0400200C4810B50A4901600F
:102370004FF4E1314160002181600C22C160C0E96D
:1023800004128161C161FFF7BDFB002803D0BDE8E5
:102390001040FEF739B810BD001401405C04002065
:1023A000FEE7704770470A6842624A688262D1E974
:1023B00002231A43D1E904310B43C16A1A4321F0C5
:1023C000F7011143C16200207047006800F003006C
:1023D000704708B5084414300090006808BD70B517
:1023E0000DF1100C11439CE870002343194329435D
:1023F0004268314347F6FF639A430A434260002034
:1024000070BD0321016000207047D0F88000704744
:102410000A688260D1E901231A43D1E903310B43F1
:10242000C1681A436FF30B011143C160002070476C
:1024300010B586B004463720CDE900104020029048
:10244000002003904FF48060049069462046FFF717
:10245000DFFF41F288323721204600F021F906B033
:1024600010BD000010B504460A4886B0014329207B
:10247000CDE9001040200290002003904FF48060CE
:10248000049069462046FFF7C3FF204600F0BEF9DE
:1024900006B010BD0000108010B586B004461020B4
:1024A000CDE9001040200290002003904FF480609E
:1024B000049069462046FFF7ABFF41F288321021B5
:1024C000204600F0EDF806B010BD10B586B0044609
:1024D0000620CDE9001040200290002003904FF428
:1024E0008060049069462046FFF792FF41F28832EF
:1024F0000621204600F0D4F806B010BD30B585B0F6
:1025000000240546009401944FF480600294CDE9C4
:10251000034069462846FFF77BFF0B484FF4FA510A
:102520000068B0FBF1F041F288314843401E03D20D
:102530004FF0004005B030BD696B0906F6D540F29A
:10254000FF50A8632046F5E71400002070B585B061
:1025500004464FF4D570009008204026CDE90106CE
:102560000025C001CDE9035069462046FFF750FF22
:102570000F484FF4FA510068B0FBF1F041F2883196
:102580004843401E02D24FF000450DE0616B11F050
:10259000450FF6D0606B400702D5A663042503E023
:1025A000606B400600D5A66305B0284670BD0000EC
:1025B0001400002010B586B004460720CDE90020A5
:1025C00040200290002003904FF480600490694600
:1025D0002046FFF71DFF41F288320721204600F018
:1025E0005FF806B010BD10B586B004460021022089
:1025F000CDE90010C020CDE902014FF480600490C5
:1026000069462046FFF704FF204600F0D7F806B0E1
:1026100010BD10B586B004460920CDE90010C020D9
:102620000290002003904FF4806004906946204699
:10263000FFF7EEFE204600F0C1F806B010BD10B561
:1026400086B0044600213320CDE900104020CDE9BA
:1026500002010001049069462046FFF7D9FE41F2CD
:1026600088323321204600F01BF806B010BD30B58B
:1026700085B00C46054600210320CDE9001040201E
:10268000CDE902010001049069462846FFF7C0FE2B
:1026900022460321284600F0D9F805B030BD0000DD
:1026A000444B10B51B684FF4FA54B3FBF4F3534397
:1026B0005B1E02D24FF0004010BD426B12F0450F7E
:1026C000F6D0426B520703D504218163084610BD42
:1026D000426BD20702D00121816303E00269D2B2CA
:1026E0008A4201D0012010BD40F2FF5181630021D8
:1026F000FFF76FFE3049084201D1002010BD0028CD
:1027000002DA4FF0007010BD410001D5402010BD2D
:10271000810001D5802010BDC10002D54FF480702A
:1027200010BD010102D54FF4007010BD410102D56A
:102730004FF4806010BDC10102D54FF4006010BDA0
:10274000010202D54FF4805010BD410202D54FF472
:10275000005010BD810202D54FF4804010BDC1026F
:1027600002D54FF4004010BD410302D54FF40030B4
:1027700010BD810302D54FF4802010BDC10302D5E6
:102780004FF4002010BD010402D54FF4801010BD9D
:10279000410402D54FF4001010BD810402D54FF45E
:1027A000800010BD000702D54FF4000010BD4FF4AB
:1027B000803010BD1400002008E0FFFD12494FF4E6
:1027C000FA520968B1FBF2F141F288325143491ED5
:1027D00002D24FF000407047426B12F0450FF6D026
:1027E000416B490703D50421816308467047416B5B
:1027F000C90703D0012181630846704740F2FF51A9
:102800008163002070470000140000200E494FF43F
:10281000FA520968B1FBF2F141F288325143491E84
:1028200002D24FF000407047426B12F0450FF6D0D5
:10283000416B490703D5042181630846704740F284
:10284000FF51816300207047140000201F4B10B51A
:102850001B684FF4FA54B3FBF4F341F2883463433A
:102860005B1E02D24FF0004010BD446B14F0450FC8
:10287000F6D0436B5B0703D504218163084610BD86
:10288000436BDB0702D00121816303E00369DBB204
:102890008B4201D0012010BD40F2FF518163002125
:1028A000FFF797FD10F4604F04D0410406D54FF4B4
:1028B000005010BD000C1080002010BD000402D597
:1028C0004FF4805010BD4FF4803010BD1400002034
:1028D0002DE9F04F89B00E460446FDF7BFFF0025F5
:1028E0008346009501952F4608212068FFF7D4FD07
:1028F000002834D1B4F8500001042068FFF798FD97
:1029000000282CD1401E4FF00808CDE902083020E5
:102910004FF00209CDE904090120CDE9067002A9B2
:102920002068FFF740FD2068FFF789FE002816D1D8
:10293000EA4640F22A472068416B394212D1416B86
:10294000890204D5FFF761FD4AF825006D1CFDF7EB
:1029500085FFA0EB0B00401CEDD14FF0004009B00B
:10296000BDE8F08F416B090703D5C0F83880082017
:10297000F5E7416B890703D5C0F838900220EEE7F0
:10298000416B890603D5202181630846E7E740F2C1
:10299000FF518163009800BA7060019800BA3060FE
:1029A0000020DCE710B590B004460120ADF83800F7
:1029B0002068FFF70AFD002864D0606C032842D02D
:1029C0002068FFF710FE00285AD100212068FFF789
:1029D00000FD606704212068FFF7FBFCA067082169
:1029E0002068FFF7F6FCE0670C212068FFF7F1FC98
:1029F000C4F88000606C032825D00EA92068FFF77A
:102A000036FE00283CD1606C03281CD0BDF838008D
:102A1000206501042068FFF7FCFD002830D100216B
:102A20002068FFF7D6FC606604212068FFF7D1FC20
:102A3000A06608212068FFF7CCFCE0660C21206826
:102A4000FFF7C7FC206704212068FFF7C2FC000DD8
:102A5000E06403A92046FEF7F3FBB4F8500000231E
:102A600002042068FFF7A6FD002809D104F1100038
:102A700007C88DE8070094E80F00FFF7B0FC0020BE
:102A800010B010BD4FF08060FAE72DE9F843002543
:102A9000044600950068FFF731FD00281AD1206830
:102AA000FFF754FD4FF080784FF6FF76D8B14FF026
:102AB0008057A5640098411C0091B0421AD00021B3
:102AC0002068FFF7B5FC20B900212068FFF7CAFC99
:102AD00010B13846BDE8F88300212068FFF779FC83
:102AE000C00FE7D01FE00127A7640098411C0091A8
:102AF000B04201D14046EDE700212068FFF798FC85
:102B00000028E7D14FF080412068FFF7ABFC002898
:102B1000E0D100212068FFF75CFCC10FE5D0400048
:102B200001D5676400E065640020D3E71CB5044666
:102B300000200090019000212068FFF74AFC8001EE
:102B400002D54FF400601CBD69462046FFF7C0FE69
:102B50000028F8D10198C0030CD5B4F85000010446
:102B60002068FFF765FC0028EDD100212068FFF701
:102B7000ACFC1CBD4FF080601CBD1CB504460020A1
:102B80000090019000212068FFF723FC800102D50E
:102B90004FF400601CBD69462046FFF799FE0028EF
:102BA000F8D1019840030CD5B4F850000104206816
:102BB000FFF73EFC0028EDD102212068FFF785FCDD
:102BC0001CBD4FF080601CBD7047FDF7EDBF0000DD
:102BD00030B593B030216846FDF72AFB14210CA8CC
:102BE000FDF726FB19480025016841F0805101607E
:102BF000006800F0805011901548016841F4804150
:102C000001600068022400F48040119001200090CF
:102C1000000401908001CDE9064004200890A8201E
:102C2000CDE9090407200B906846FEF73FF90CA98F
:102C30000F2081E831004FF4A0500F90E002109077
:102C400005210CA8FEF74AF813B030BD4038024009
:102C5000007000401048016841F4700101600F48A5
:102C6000016841F0010101600C4A00210832116045
:102C700002680B4B1A400260031D0A4A1A60026880
:102C800022F48022026005480C3001600249580697
:102C9000803908607047000088ED00E0003802408D
:102CA000FFFFF6FE10300024F0B50268254C264DDB
:102CB000264E274F274B4FF0804CA04209D060454D
:102CC00007D0A84205D0B04203D0B84201D0984204
:102CD00004D122F0700E4A6842EA0E02A0421BD0D4
:102CE000604519D0A84217D0B04215D0B84213D0D1
:102CF000984211D0184DA8420ED0184DA8420BD0C2
:102D0000174DA84208D0174DA84205D0164DA8422D
:102D100002D0164DA84203D122F44075CA682A4356
:102D20004D6922F080022A4302608A68C2620A6802
:102D30008262A04201D0984201D109690163012158
:102D40004161F0BD00000140000400400008004067
:102D5000000C0040000401400040014000440140DC
:102D60000048014000180040001C004000200040C6
:102D700010B5846842EA032224F47F440A432243C4
:102D8000826010BD826822F070020A4342F007019F
:102D900081607047F0B5026A22F001020262036AA4
:102DA00042688469124E24F073050C682C4323F0AA
:102DB00002058B682B430D4DA84201D0B04205D1CE
:102DC00023F00807CB683B4323F00403A84201D05B
:102DD000B04205D14D6922F4407215438A692A43F5
:102DE00042608461496841630362F0BD00000140B4
:102DF00000040140F0B5026A22F010020262026A89
:102E0000436884690D6824F4E64444EA05248D6827
:102E100022F0200242EA05120F4D104EA84201D0C6
:102E2000B04206D1CF6822F0800242EA071222F0B7
:102E30004002A84201D0B04207D14D6923F440635B
:102E400043EA85038D6943EA8503436084614968E9
:102E500081630262F0BD00000000014000040140F7
:102E6000F0B5026A22F480720262026A4368C469A1
:102E700022F4007224F073050C68124E2C438D6806
:102E800042EA05220E4DA84201D0B04206D1CF68D9
:102E900022F4006242EA072222F48062A84201D0B2
:102EA000B04207D14D6923F4405343EA05138D69BD
:102EB00043EA05134360C4614968C1630262F0BD1F
:102EC000000001400004014030B5026A22F4805243
:102ED0000262046A4268C3690D6823F4E64343EA68
:102EE00005238D6824F4005444EA0534084DA842B3
:102EF00002D0084DA84204D14D6922F4804242EA32
:102F000085124260C36149680164046230BD0000FB
:102F1000000001400004014010B5036A046A24F077
:102F200001040462846924F0F00444EA021423F0EA
:102F30000A020A438461026210BD10B5036A23F0DD
:102F4000100303628369046A23F4704343EA023284
:102F500024F0A00343EA01118261016210BD10B5A3
:102F6000806B0021C185C184FEF742FD10BD016860
:102F7000CA6822F49072CA6001684A6922F00102AC
:102F80004A61202180F83A10704710B590F83A1045
:102F9000222901D0022010BD8168B1F5805F11D0D7
:102FA0000169002901681FD0496801F07F03816A27
:102FB0004A1C82620B70C18D491E0904090CC1852F
:102FC00018D02BE00269816A002A0268526805D095
:102FD000D2B20A80816A491C8162ECE7C2F308021E
:102FE0000A80816A891CF7E74A68816A4B1C836200
:102FF0000A70E0E70168CA6822F02002CA6001682E
:10300000CA6822F48072CA6001684A6922F001022B
:103010004A61202180F83A10FEF702FE002010BD20
:103020002DE9F041044600680169E26821F440514D
:10303000114301612169A068E26908436169114394
:1030400022680843D16849F20C6399430143D16077
:1030500020684169A26921F4407111434161E2692C
:103060006425B2F5004F9748974922684FF032081F
:103070003FD08A4201D082427CD1FDF7D7FE00EBDF
:10308000C00101EB001061688900B0FBF1F6FDF7AB
:10309000CDFE00EBC00101EB001061688900B0FBC0
:1030A000F1F0B0FBF5F06FF01801484306EB80013A
:1030B00008EB0110B0FBF5F000F0F006FDF7B6FEEE
:1030C00000EBC00101EB001061688900B0FBF1F07A
:1030D000B0FBF5F006EB0016FDF7A8FE00EBC00113
:1030E00001EB001061688900B0FBF1F7FDF79EFE6F
:1030F000D2E08A4201D082423DD1FDF797FE00EB3B
:10310000C00101EB001061684900B0FBF1F0B0FBB9
:10311000F5F00601FDF78AFE00EBC00101EB00109F
:1031200061684900B0FBF1F7FDF780FE00EBC001DC
:1031300001EB001061684900B0FBF1F0B0FBF5F065
:103140006FF01801484307EB800108EBC100B0FBAA
:10315000F5F000F0F80006EB4006FDF767FE00EB27
:10316000C00101EB001061684900B0FBF1F7FDF709
:103170005DFE3CE055E0FDF749FE00EBC00101EBD0
:10318000001061684900B0FBF1F0B0FBF5F00601FA
:10319000FDF73CFE00EBC00101EB00106168490047
:1031A000B0FBF1F7FDF732FE00EBC00101EB0010C0
:1031B00061684900B0FBF1F0B0FBF5F06FF0180169
:1031C000484307EB800108EBC100B0FBF5F000F0CD
:1031D000F80006EB4006FDF719FE00EBC00101EB1D
:1031E000001061684900B0FBF1F7FDF70FFE00EB3E
:1031F000C00101EB001061684900B0FBF1F0B0FBC9
:10320000F5F06FF01801484307EB800108EBC100AF
:10321000B0FBF5F000F00700216830448860BDE89D
:10322000F081FDF7F3FD00EBC00101EB00106168D8
:103230008900B0FBF1F6FDF7E9FD00EBC00101EB01
:10324000001061688900B0FBF1F0B0FBF5F06FF0A1
:103250001801484306EB800108EB0110B0FBF5F0C4
:1032600000F0F006FDF7D2FD00EBC00101EB00100D
:1032700061688900B0FBF1F0B0FBF5F006EB0016D9
:10328000FDF7C4FD00EBC00101EB0010616889008F
:10329000B0FBF1F7FDF7BAFD00EBC00101EB001048
:1032A00061688900B0FBF1F0B0FBF5F06FF0180138
:1032B000484307EB800108EB0110B0FBF5F000F08C
:1032C0000F00A9E7001401400010014090F83910E8
:1032D000212901D0022070478168B1F5805F016A21
:1032E0000BD04A1C0262026809785160C18C491EE9
:1032F0000904090CC1840ED017E009880268C1F3E3
:103300000801516001690029016A02D0491C01626B
:10331000ECE7891CFBE70168CA6822F08002CA60FA
:103320000068C16841F04001C160002070470000A2
:103330000148FEF75FBB00001C040020FEE7090700
:10334000090E002804DB00F1E02080F8001470472B
:1033500000F00F0000F1E02080F8141D704702E03B
:1033600008C8121F08C1002AFAD170477047002010
:1033700001E001C1121F002AFBD170472DE9F04185
:10338000FDF76CFADFF880800646D8F80010401A86
:10339000322837D3002508F10407284600F036F814
:1033A000002805EBC50007EB8004A0681DD018B904
:1033B000A16909B1884714E0E16991B1E2689042DE
:1033C0000FD9236953B994F814C0BCF1000F05D08C
:1033D000801AB0FBF3F203FB120010B988470120FA
:1033E0002075A068401CA06006E010B1206A00B102
:1033F00080470020A06020756D1CEDB2032DCCD35A
:10340000C8F80060BDE8F0814C00002000EBC0026D
:10341000064810B500EB820150F822008988FDF7BC
:103420000BFA08B1002010BD012010BD5000002093
:10343000024A02EB00108160704700001C0000206F
:10344000034901EB001081880068FDF7FAB900001C
:103450001C0000202DE9F041FDF700FA0F4F054652
:103460003868281A322816D3002407F1040800BF50
:1034700008EB0416B06838B1F168691A814203D3C9
:103480002046FFF7DDFFF560641CE4B2032CEFD3A8
:10349000FDF7E4F93860BDE8F08100001800002075
:1034A0000EB5FDF789FBFFF793FBFEF747FDFEF72F
:1034B0003BFEFEF759FEFEF779FEFEF739FFFEF7F9
:1034C000D9FCFEF709FDFEF7EFFDFEF70DFEFEF756
:1034D0008FFEFEF7AFFEFEF7E1FEFEF745FF4FF46D
:1034E000FA7529460020FFF7A3FF00F02DF8144CD1
:1034F000FDF7B4F96168401AA8421CD3002064218A
:10350000CDE90010029063782278014600F034F88B
:103510002078401C10F00700207004D16078401C17
:1035200000F00700607000F049F80120FFF788FF05
:10353000FDF794F96060FFF78DFFFFF71FFFD7E7F6
:103540000000002070470000054801224280054924
:1035500000200870A1F54871088048808A80704773
:10356000BC000020BC07002002484188491C418063
:1035700070470000BC000020F0B5082ADDE90654C1
:10358000059E01D9082B15D80B4F07EB8000405C36
:1035900000EBC00101EB0011A7F5487000EBC10181
:1035A00002EBC30000EB40000844C6710572447290
:1035B00001208871F0BD0000BC0700202DE9F84310
:1035C0000024A0464FF6FF790D4D0E4E12E000BFCD
:1035D00004EBC40000EB041005EBC007FA1DC02388
:1035E00002210948CDF80090FDF7F8F9641C87F82E
:1035F0000680E4B270888442EAD3BDE8F883000014
:103600009C040020BC000020BC0100200000000041
:103610000000000001020304060708090000000082
:10362000010203044436000800000020D800000016
:103630005E3300081C370008D8000020F80A00009C
:103640006E330008000000000000000001000000D0
:1036500010000000000000000024F4000000000042
:10366000000C024008000000000000000000000004
:10367000000C0240100000000000000000000000EC
:10368000000C0240200000000000000000000000CC
:1036900000000000000C024040000000000000009C
:1036A000000000000000000000000000000000001A
:1036B0000000000000000000000C0240800000003C
:1036C00000000000000000000000000000000000FA
:1036D0000000000000000000000000000018024090
:1036E00000020000000000000000000000000000D8
:1036F00000000000000000000000000000000000CA
:1037000064000000000402400004000000040240C5
:0C37100000080000000C02400002000055
:040000050800018965
:00000001FF
