:020000040800F2
:10000000C88600209D0100089B280008F3220008F4
:100010009928000831040008D139000800000000C8
:10002000000000000000000000000000F93100089E
:10003000C904000800000000CD280008FB310008BA
:10004000B7010008B7010008B7010008B7010008B0
:10005000B7010008B7010008B7010008B7010008A0
:1000600001050008B701000821050008B7010008D4
:10007000B7010008B7010008B7010008B701000880
:10008000B7010008B7010008B7010008B701000870
:10009000B7010008B7010008B7010008B701000860
:1000A000B7010008B7010008B7010008B701000850
:1000B000B7010008B7010008B7010008B701000840
:1000C000B7010008B7010008B7010008F1300008C7
:1000D000B7010008C5390008B7010008B7010008DA
:1000E000CD040008B7010008B7010008B7010008F7
:1000F000B7010008B7010008B7010008B701000800
:10010000B7010008B7010008B7010008B7010008EF
:10011000B7010008B7010008B7010008B7010008DF
:1001200035040008B7010008B701000841040008C1
:10013000B7010008B7010008B7010008B7010008BF
:10014000B7010008B7010008B7010008B7010008AF
:10015000B7010008B7010008B7010008B70100089F
:10016000B7010008B7010008B7010008B70100088F
:10017000B7010008B7010008B7010008000000003F
:10018000B7010008B7010008DFF80CD000F07AF8DA
:1001900000480047353C0008C886002006488047D4
:1001A00006480047FEE7FEE7FEE7FEE7FEE7FEE75C
:1001B000FEE7FEE7FEE7FEE785320008890100085A
:1001C0002DE9F05F0546002092469B46884606468C
:1001D000814640241BE0284641464746224600F01F
:1001E00041F853465A46C01A914110D31146184659
:1001F000224600F028F82D1A67EB01084F462246E8
:100200000120002100F01FF817EB00094E41201ECD
:10021000A4F10104DFDC484631462A464346BDE8E6
:10022000F09FD2B201E000F8012B491EFBD27047CB
:100230000022F6E710B513460A4604461946FFF7B2
:10024000F0FF204610BD202A04DB203A00FA02F11C
:10025000002070479140C2F1200320FA03F31943B4
:1002600090407047202A04DB203A21FA02F0002156
:10027000704721FA02F3D040C2F1200291400843B6
:1002800019467047064C074D06E0E06840F0010350
:1002900094E8070098471034AC42F6D3FFF778FF94
:1002A0008C460008AC46000870B58D1810F8014B5C
:1002B00014F0030201D110F8012B231106D110F81C
:1002C000013B03E010F8016B01F8016B521EF9D1FC
:1002D000ABB110F8012B04F00C048A1A0C2C03D0DB
:1002E000A2EB84129B1C08E010F8014BA2EB042245
:1002F000F8E712F8014B01F8014B5B1EF9D5A94252
:10030000D4D3002070BD0000464910B54A6822F4DD
:1003100040324A604A6843681A434A6001684A6842
:1003200022F480724A6001684A68036942EA032243
:100330004A6001684A6822F040724A6001684A686F
:1003400083681A434A6001688A6822F400628A60FE
:1003500001688A68C3681A438A60816A6FF07062B4
:10036000D14201688A6822F070628A6001688A68F6
:100370000CD0836A1A438A6001688A6822F040526E
:100380008A6001688A68C36A1A4301E022F0405219
:100390008A6001688A6822F002028A6001688A68BD
:1003A000037E42EA43028A6090F820100029016827
:1003B0004A680FD042F400624A6001684A6822F439
:1003C00060424A6001684A68174C436A04EB433351
:1003D0001A4301E022F400624A600168CA6A22F40A
:1003E0007002CA620168CA6A838B104C04EB035323
:1003F0001A43CA6201688A6822F400728A6001683E
:100400008A6890F8303042EA43228A6001688A683C
:1004100022F480628A6001688A68406942EA80202A
:10042000886010BD0023014000E0FFFF0000F0FFE6
:10043000FEE70000014800F0AFB9000018120020EC
:10044000014800F0A9B90000B81100200168182384
:10045000CAB2103AB2FBF3F2054B6FF30901032A5B
:100460009B5CC36500D9091D816508467047000083
:100470001E46000810B5014600208B698A6A4FF0BD
:10048000C07453B1B3F5005F15D072B1012A0CD01E
:10049000022A0AD0032A09D104E01AB1012A06D09F
:1004A000022A03D1C96AC90100D5012010BDC96A59
:1004B000A142FAD010BD002AF7D0012AF2D0022AB8
:1004C000F3D0032AF3D010BD7047000010B50B4CD9
:1004D0002068400505D504F099F82015206000F04B
:1004E000A7FA2068000508D504F08EF84FF40060E4
:1004F0002060BDE8104000F09BBA10BD143C0140E4
:1005000010B5064C2068400707D502F0D3F9042047
:100510002060BDE8104000F08BBA10BD143C0140D3
:1005200010B5064C2068C00607D504F055F8102019
:100530002060BDE8104000F07BBA10BD143C0140C3
:100540007047000078B50024009490F83C20012A00
:1005500019D0012280F83C200A6807230568092A7F
:1005600013D9EE680A3A02EB420293409E43EE60D2
:100570000B788A680A3B03EB43039A400368DD6803
:100580002A43DA6010E0022078BD2E6902EB4202B5
:1005900093409E432E610B788A6803EB43039A4095
:1005A00003681D692A431A614A681F23072A13D268
:1005B00005686E6B521E02EB820293409E436E638F
:1005C0000B790A885B1E92B203EB83039A4003689F
:1005D0005D6B2A435A6327E005680D2A12D22E6B01
:1005E000D21F02EB820293409E432E630B790A884E
:1005F000DB1F92B203EB83039A4003681D6B2A430F
:100600001A6311E0EE6A0D3A02EB820293409E43B8
:10061000EE620B790A880D3B92B203EB83039A409A
:100620000368DD6A2A43DA62164B0568144A9D4264
:1006300006D10D68122D03D1556845F4800555602B
:1006400005689D4218D10B68102B01D0112B13D1D6
:10065000536843F400035360096810290CD10A4918
:100660000A4A0968B1FBF2F101EB8101490000E09F
:10067000491E00910029FBD180F83C40002078BD44
:1006800000230140002001401000002040420F00E4
:1006900070B504004FF0000503D0206C002610B1A7
:1006A00007E0012070BD204600F01CF8666484F865
:1006B0003C60206CC00610D4206C20F4885040F0C0
:1006C000020020642046FFF71FFE6664206C20F0C5
:1006D000020040F00100206400E0012584F83C6045
:1006E000284670BD70B586B0044614216846FFF7F1
:1006F0009FFD1D491B4E256800231B4A1439032406
:100700001A48B54211D1156845F480751560126814
:1007100002F4807205920A6842F001020A600968D8
:1007200001F001010591022113E0114EB54216D1ED
:10073000156845F480651560126802F480620592C0
:100740000A6842F001020A60096801F0010105919E
:100750000121CDE900140293694600F06BF906B05F
:1007600070BD0000002001404438024000000240FB
:100770000022014090F83510022903D08021416504
:1007800001207047052180F835100068016821F0CC
:1007900001010160002070472DE9F84304464FF045
:1007A0000009CDF8009063484FF41651A56D00681C
:1007B000B0FBF1F72E6894F85C10082000FA01F104
:1007C00031420FD021680A6852070BD50A6822F01F
:1007D00004020A6094F85C108840A860606D40F0E4
:1007E0000100606594F85C104FF0010808FA01F010
:1007F000304208D021684969090604D5A860606DB7
:1008000040F00200606594F85C100420884030429B
:1008100008D021680968890704D5A860606D40F098
:100820000400606594F85C1010208840304218D0B5
:1008300021680968090714D5A86020680168490380
:1008400004D50068000308D5A16C07E00168C9055C
:1008500003D4016821F008010160216C09B1204630
:10086000884794F85C1020208840304231D02168BD
:100870000968C9062DD5A86094F8350005282068B8
:10088000016806D0490347D5006800031DD4616C98
:100890001CE021F0160101602068416921F080010F
:1008A0004161206C08B9A06C20B12068016821F07A
:1008B0000801016094F85C103F208840A86084F82B
:1008C000349084F83580216D1FE0E16B09B120463A
:1008D0008847606D00282BD0606DC00714D00520BC
:1008E00084F835002068016821F00101016000985A
:1008F000401C0090B84203D820680068C007F6D1B9
:1009000084F8349084F83580E16C002910D001B06F
:100910002046BDE8F04308470168C905D5D4016801
:1009200021F01001016084F8349084F83580CCE720
:10093000BDE8F883100000202DE9F041044600F0E6
:1009400063F906465CB1002584F83450022084F82F
:1009500035002068016821F0010101600DE00120EF
:10096000BDE8F08100F050F9801B052805D9202052
:100970006065032084F83500F2E720680068C0074E
:10098000F0D12268116820480140D4E901031843DE
:10099000D4E903363343184363691843A369184302
:1009A000E3691843236A18430843616A042903D1A1
:1009B000D4E90B1319430843106020684069666A44
:1009C00020F0070130460E43012704280CD1A06A0D
:1009D0000643E06A40B12046FFF74CFD20B14020BD
:1009E000606584F83570BAE7206846612046FFF7F5
:1009F0002DFD94F85C203F2191408160656584F86D
:100A000035700020ACE700003F8010F070B5044660
:100A100000F0FAF80546601C02D00448007804444F
:100A200000F0F2F8401BA042FAD370BD0400002091
:100A3000704700002DE9F84FDFF87CB100224FF03D
:100A400001084FF0030A4FF00F090BF1040E00BF2D
:100A50000B6808FA02F42340A3426ED14D68022DC0
:100A600001D0122D0ED1D50800EB850CDCF82050FA
:100A70005607F70E09FA07F6B5430E69BE402E4336
:100A8000CCF82060066855000F790AFA05FC07F0DB
:100A9000030726EA0C06AF40374307604E68012E75
:100AA00005D0022E03D0112E01D0122E0ED1866851
:100AB000CF6826EA0C06AF40374387604668A643F6
:100AC0000C79C4F30014944034434460C6688C68C5
:100AD00026EA0C06AC403443C4604C68E40065D59B
:100AE000364C256845F480452560246822F00305CE
:100AF00004F480440094324C2E19D6F80848950727
:100B00002F0F09FA07F5AC432E4DA84201D100255D
:100B100024E02D4DA84201D101251FE02B4DA84214
:100B200001D102251AE02A4DA84201D1032515E082
:100B3000284DA84202D1042510E037E0264DA842F6
:100B400001D105250AE0254DA84201D1062505E081
:100B5000234DA84201D1072500E00825BD402543CB
:100B6000C6F80858DBF800405D464E689C43F60323
:100B700000D51C432C60DEF8004075464E689C434F
:100B8000B60300D51C432C600B4D08352C684E680D
:100B90009C43F60200D51C432C60074D0C352C6895
:100BA0004E689C43B60200D51C432C60521C102A90
:100BB000FFF44EAFBDE8F88F003C014044380240DE
:100BC00000300140000002400004024000080240E2
:100BD000000C0240001002400014024000180240C5
:100BE000001C02400069084000D0012070474269A3
:100BF00031EA020200D10904816170470AB18161C2
:100C000070470904FBE70000014880687047000056
:100C10000400002070B504001BD094F83D000025AE
:100C200020B984F83C50204600F0AEF8242084F827
:100C30003D002068016821F00101016000F026FA02
:100C40004D4A6168914201D84C4900E04C498842C4
:100C500001D2012070BD4B492368B0FBF1F15E6801
:100C600026F03F060E435E606368934206D94FF458
:100C7000967359434FF47A73B1FBF3F12368491C1F
:100C80001E6A26F03F06314319626168914210D80E
:100C90004900401EB0FBF1F2521CC2F30B02042AC1
:100CA00001D2042022E0B0FBF1F0401CC0F30B00A5
:100CB0001CE0A368F3B301EBC10202EB0116421E74
:100CC000B2FBF6F2521C42F48042120549D093B3B3
:100CD00001EBC10202EB0111401EB0FBF1F0401C20
:100CE000C0F30B0040F4804040F400402168CA6922
:100CF0004CF6FF739A431043C861D4E907010843D7
:100D000021680A6822F0C00210430860D4E9030198
:100D100001432068826848F2FF339A43114381609F
:100D2000D4E9050108432168CA6822F0FF02104394
:100D3000C86001E00EE016E02068016841F00101A2
:100D400001602564202084F83D00256384F83E502E
:100D5000002070BD01EB4106421EB2FBF6F2521CB0
:100D6000B3E70120C2E701EB4101401EB0FBF1F007
:100D7000401CC0F30B00B7E7A086010080841E0072
:100D800000093D0040420F00F0B587B00446142131
:100D90006846FFF74DFA2768204CDFF87CC01F49F2
:100DA00012220123032504261D481034674515D15E
:100DB0000F6847F002070F60096801F00201059112
:100DC00029028DE86E006946FFF734FE206840F482
:100DD00000102060206800F4001019E0DFF844C023
:100DE000674516D10F6847F002070F60096801F0E8
:100DF000020105914FF440618DE86E006946FFF7EE
:100E000019FE206840F480002060206800F4800013
:100E1000059007B0F0BD000000540040303802409B
:100E200000040240005800400248816802781144E2
:100E300081607047040000200B4810B5016841F440
:100E400000710160016841F480610160016841F452
:100E500080710160032000F06FF8002000F006F8B8
:100E600000F024F8002010BD003C024070B50D4D8C
:100E700004464FF47A712878B1FBF0F00A4909680A
:100E8000B1FBF0F000F0B6FE48B9102C07D20022FA
:100E90002146501E00F030F800206C6070BD01202B
:100EA00070BD000004000020100000200A4808B5B2
:100EB000016841F480410160006800F480400090C6
:100EC0000548001F016841F080510160006800F092
:100ED0008050009008BD000044380240002809DB23
:100EE00000F01F02012191404009800000F1E02044
:100EF000C0F8001170470000F0B40E4B1B680C46A0
:100F0000C3F30223C3F10705042D00D90425191DDD
:100F1000072901D2002300E0DB1E012606FA05F1B5
:100F2000491E214099409E40761E16403143F0BC38
:100F300002F04FBD0CED00E0064900F00702086822
:100F40004FF6FF03184040EA0220034A10430860AE
:100F5000704700000CED00E00000FA052DE9F047B5
:100F60000E46050065D0DFF81481D8F80000F7B20E
:100F700000F00F00B04207D288F80070D8F80000E7
:100F800000F00F00B04254D128683D4C810712D5C3
:100F9000400703D5206840F4E0502060287800071F
:100FA00003D5206840F4604020602068A96820F0E4
:100FB000F000084320602878C0072DD030496868C9
:100FC0000839012812D0022813D0032811D009684B
:100FD000890700292DDA216821F0030101432160EE
:100FE000FFF712FE814641F2883A0EE00968890354
:100FF000EFE709688901ECE7FFF706FEA0EB0901BE
:10100000514502D90320BDE8F0872068696800F0E7
:101010000C00B0EB810FEFD1D8F80010404601F082
:101020000F01B14207D90770006800F00F00B0420D
:1010300001D00120E7E72878400705D52068E96856
:1010400020F4E050084320602878000706D5206887
:10105000296920F4604040EAC100206000F036F8C1
:101060002168084AC1F30311515CC8400649086071
:101070000020FFF7FBFE0020C5E70000003C024017
:1010800008380240264600081000002004480549A0
:1010900000680968044AC1F38221515CC840704766
:1010A0001000002008380240364600080448054970
:1010B00000680968044AC1F34231515CC840704776
:1010C000100000200838024036460008154810B5C8
:1010D000006810F00C02144813D04110042A0FD0FD
:1010E000082A0ED10F4C241F2268236802F03F0209
:1010F0005B0207D52068C0F38810A0FB010106E061
:10110000084610BD2168C1F38811A1FB000100232E
:10111000FFF756F82168C1F30141491C4900B0FBB3
:10112000F1F010BD083802400024F4002DE9F84F1A
:10113000050076D02878DFF8F8B2BE4CC00749D059
:10114000DBF800105846C1F38101012908D000687E
:10115000C0F3810002280AD1201D0068400206D594
:101160002068800336D568680028E2D032E06868DD
:10117000B0F5803F10D0B0F5A02F206810D020F43B
:1011800080302060206820F4802020606868A0B152
:10119000FFF73AFD06460CE0206840F48030F4E7A3
:1011A00040F480202060F7E7FFF72EFD801B6428C5
:1011B00073D820688003F7D50CE0FFF725FD0646BD
:1011C00005E000BFFFF720FD801B6428F0D82068F1
:1011D0008003F7D42878DFF8608280074FF0000999
:1011E0003ED5DBF80010584611F00C0F09D000680E
:1011F000C0F3810002280BD18D48001F0068400217
:1012000006D42068800715D5E868012809D111E0C7
:10121000E868B8B10120C8F80000FFF7F5FC064601
:1012200005E002E1FFF7F0FC801B0228C0D820682F
:101230008007F7D52068296920F0F80040EAC1004E
:1012400020600DE0C8F80090FFF7DEFC064604E0E1
:10125000FFF7DAFC801B02281FD820688007F7D42C
:101260002878000722D5724E744869696C3671B1CE
:1012700001210160FFF7C8FC074604E0FFF7C4FC4A
:10128000C01B022809D830688007F7D50EE0C0F8E7
:101290000090FFF7B9FC074605E083E0FFF7B4FCD8
:1012A000C01B02287ED830688007F7D42878400712
:1012B00068D5DFF87CA100270AF1380ADAF80000C7
:1012C000C0000BD4DAF8001041F08051CAF80010C9
:1012D000DAF80000012700F080500090584E306886
:1012E000C00510D4306840F480703060FFF78CFC8B
:1012F000009005E0FFF788FC0099401A022851D8B9
:101300003068C005F6D54A4EA868683601280FD067
:101310000528306810D020F001003060306820F0DF
:1013200004003060A868B8B1FFF76EFC00900FE0D1
:10133000306840F00100F4E740F004003060F7E767
:10134000FFF762FC0099411A41F28830814264D86B
:1013500030688007F4D50EE0FFF756FC009007E0F8
:10136000FFF752FC0099411A41F28830814254D86B
:1013700030688007F4D42FB1DAF8001021F08051E2
:10138000CAF80010A869C0B3DBF80010C1F38101EE
:1013900002294AD00228484607D0C8F86000FFF763
:1013A00033FC00E039E005463AE04746C8F8600003
:1013B000FFF72AFC064604E0FFF726FC801B022804
:1013C0002BD820688001F7D4D5E907010843A96A22
:1013D0001C4A490802EB01416A6A41EA821108434A
:1013E00095F82C1040EA01611148001F01600120AE
:1013F0003866FFF709FC054605E014E0FFF704FC3A
:10140000401B022809D820688001F7D50BE000BFF7
:10141000FFF7FAFB401B022802D90320BDE8F88F32
:1014200020688001F4D40020F8E70120F6E70000EE
:10143000083802400038024000004742800E474210
:10144000007000400000FFFFFEB5044603200D467B
:1014500084F83400606C032820D0B5F5805F1DD07F
:10146000B5F5006F05D045B1A06B40F00060A063FA
:1014700009E0204601F015FE02E0204601F0EAFDF9
:10148000A16B0143A163A06B012658B1216840F212
:10149000FF50886384F834600120FEBDA06B40F0EB
:1014A0008050E4E7211DD4E905700EC90095CDE90F
:1014B0000170206801F027FA84F834600020FEBD36
:1014C000F0B5426E120E93090B70C2F383034B709A
:1014D00002F003028A70426E120CCA70B0F86420E7
:1014E000120A0A7190F864204A71826E4FF6FF73F7
:1014F000120E03EA0212CA80826ECB88C2F3074240
:1015000043EA1213CB8002F00F020A72B0F868208F
:10151000C2F30722D3094B72C2F380138B72C2F35A
:101520004013CB72C2F300130B7300264E73446C4E
:101530004FF4007701236CB1012C43D0026840F2D4
:10154000FF519163816B41F08051816380F83430A9
:101550000120F0BD9207120D0A6190F868200C6915
:1015600044EA82020A61C26E0C69120E44EA9214C5
:101570000C61C2F3C2040C7502F007024A75C26E18
:10158000C2F3074254098C75C2F38204CC759207EA
:10159000520F0A76B0F86C20C2F307240A7E42EAA2
:1015A000D4120A760A69521C42650D7EAD1CAA400F
:1015B00042650D7A03FA05F585656D0A6A43C0E94F
:1015C00017271CE090F868209206920A0A61C26E02
:1015D0000C69120E44EA02220A61C26E0C69C2F35F
:1015E000074214430C61B0F86C20C2F307240A6967
:1015F000521C4FEA82224265C0E916720766C4F3A4
:10160000801201F8192F4FEA84624FEA52624A7041
:1016100010F86C2F4C7844EAD2144C7002F07F0220
:101620008A7042684FEA12624FEAD214CC70C2F359
:1016300041140C71C2F382044C714FEA82724FEA7A
:1016400012728A7142688C79C2F3074244EA92149A
:101650008C71C2F34014CC710E7202F001024A7216
:101660008288C2F307224FEAD2148C72C2F380142C
:10167000CC72C2F340140C73C2F300144C73C2F367
:1016800081048C7302F00302CA7300794FEA5000A0
:1016900008744B744FF00000F0BD70B5040004D026
:1016A00094F83400002510B105E0012070BD2577C5
:1016B000204600F037F8032084F83400204600F07C
:1016C00007F8A5632563012084F83400002070BD6D
:1016D000FEB50025044676200095CDE901502B4645
:1016E0002A462946206801F00EF90D4E46F8A05F03
:1016F000206801F01AF9012535600220FFF786F90C
:10170000204601F056FC20B9204601F0DFFB0028FE
:1017100005D084F83450A16B0143A1630120FEBDC4
:1017200000802542F0B587B0044614216846FEF7D4
:101730007FFD1D492068884233D11C480024016880
:1017400041F400610160006800F4006005901748F2
:101750001438016841F004010160016801F00401DE
:101760000591016841F0080101600068022500F060
:10177000080005904FF4F850CDE9000502AA0326B1
:101780000C2782E8D00069460948FFF753F9042086
:10179000CDE9000502AA694682E8D0000548FFF7B6
:1017A00049F907B0F0BD0000002C01404438024068
:1017B00000080240000C0240704790F8510070474A
:1017C00038B5016804464A688868C043430606D5B0
:1017D000C30704D1D3435B0601D4216C05E0830722
:1017E00008D4D3431B0605D4616C01B02046BDE884
:1017F00030400847830603D5430601D5C30551D4BD
:10180000D3439B064ED443060AD494F85130032B9D
:1018100049D0636D43F004036365CB688B68009324
:10182000830609D4636D43F0010363658B680093FD
:101830000B6823F040030B60C00506D4606D40F0D8
:1018400008006065206880680090606D002829D0DD
:101850002068416821F0E0014160012084F85100D6
:10186000900701D4D00722D02068416821F00301FD
:101870004160114DE06C40B10565E06CFEF77AFF08
:1018800018B1606D40F040006065A06C002809D080
:101890000565A06CFEF76EFF002803D0606D40F078
:1018A0004000606538BDC8688868009038BD204633
:1018B000FFF782FF38BD0000FD30000870B504005E
:1018C00005D00025A56294F8510010B106E0012072
:1018D00070BD84F85050204600F030F8022084F8A3
:1018E00051002068016821F040010160D4E9010144
:1018F0000843D4E903121143084361690843218B6B
:1019000001F400710843E1690843216A0843A16AB0
:10191000084321680860A069042101EA1040616A57
:101920000843216848602068C16921F40061C161F1
:101930006565012084F85100002070BD2DE9F04359
:1019400087B0064614216846FEF772FC4A48D6F86E
:1019500000C04A490223032505270024844554D1A9
:1019600046481430026842F480520260006800F475
:1019700080500590086840F00100086008686946DA
:1019800000F001000590E0208DE8B9003C48FFF729
:1019900051F83D4D3B484FF0C067E5E80207402055
:1019A0004FF48068A5E811014FF4403945F8144917
:1019B0003548AC61C5E907496C62FEF7BDFF08B167
:1019C000FEF7BEFDB564AE632F4D2E486035483836
:1019D0002860C5E90174C5E903486C61AC61C5E9DB
:1019E000074928466C62FEF7A7FF08B1FEF7A8FD7D
:1019F000F564002211462320AE63FFF77DFA232011
:101A0000FFF76CFA07B0BDE8F0831C4A1F4E103296
:101A10001F48B44514D1166846F480461660126813
:101A200002F4804205920A6842F002020A600968E4
:101A300001F0020105914FF460418DE8BA0017E012
:101A4000144EB445DED1166846F40046166012689E
:101A500002F4004205920A6842F002020A60096834
:101A600001F00201059138218DE83A000621049128
:101A70006946FEF7DFFFC5E700300140303802401D
:101A80000000024058640240B811002000380040B5
:101A900000040240003C00402DE9F84F044690F855
:101AA000500000271D461646894601280DD04FF0EC
:101AB000010B84F850B0FFF7A7F8804694F8510066
:101AC000BA46012804D002278EE00220BDE8F88F34
:101AD000B9F1000F7DD0002E7BD0032084F8510097
:101AE000C4F854A0C4F83090A686E686C4F838A09E
:101AF000A4F83CA0A4F83EA0C4F844A0C4F840A0B8
:101B0000A068B0F5004F04D12068016841F480411D
:101B1000016020680168490603D4016841F0400172
:101B20000160E068B0F5006F606803D030B3012E4B
:101B300024D040E008B1012E1CD1206B2168008820
:101B4000C86006E020688168890709D5216B09888B
:101B5000C160206B801C2063E08E401EE08609E09F
:101B6000FFF752F8A0EB0800A84202D3681C01D08E
:101B700031E07DB3E08E0028E4D11FE0206B2168C6
:101B80000078087306E020688168890709D5216B11
:101B900009780173206B401C2063E08E401EE086B4
:101BA00009E0FFF731F8A0EB0800A84202D3681C57
:101BB00001D010E075B1E08E0028E4D142462946FC
:101BC000204601F0A3FA08B120206065A06820B18A
:101BD00007E008E0FFE7032706E02068C1688068A7
:101BE0000090606D00B1012784F851B084F850A0D6
:101BF00038466BE710B5401EB0F1807F01D301205D
:101C000010BD4FF0E02460610F21601701F0E1FE8C
:101C10000020A06107202061002010BD70B590F861
:101C20003C20012A19D0012400F83C4F02224270C6
:101C300050F83C3C5A689D6822F070060A68496872
:101C4000324325F0800529435A6050F83C2C9160BE
:101C5000447000210170084670BD022070BD10B5AF
:101C6000040003D094F83D0010B107E0012010BD3E
:101C7000002084F83C00204600F00CF8022084F894
:101C80003D00211D206801F027FB012084F83D0064
:101C9000002010BD08B500680649884208D10648F2
:101CA000016841F002010160006800F0020000904C
:101CB00008BD0000000400404038024070B50446F2
:101CC00090F83C00012817D0012584F83C500220F0
:101CD00084F83D002068826822F0770222F47F4277
:101CE00082600868502830D00DDC20284DD005DCFB
:101CF00098B310283BD148E0022070BD302844D072
:101D0000402834D139E0602828D0702806D0B0F5BA
:101D1000805F2CD0B0F5005F29D10AE0CB68D1E913
:101D20000121206801F03CFB2068816841F07701C7
:101D300009E0CB68D1E90121206801F031FB20687E
:101D4000816841F48041816011E0CA684968206877
:101D500001F0FAFB5021206807E016E0CA684968E4
:101D6000206801F002FC6021206801F023FB84F868
:101D70003D50002084F83C0070BDCA684968206866
:101D800001F0E2FB40212068EFE72268014610469F
:101D9000EBE7000030B587B0044614216846FEF733
:101DA00047FA24680021174802220123B4F1804F2A
:101DB00016D0154DAC4211D1046844F00204046001
:101DC0000068009300F002000590CDE90121CDE903
:101DD00003120E48694600BFFEF72CFE07B030BD67
:101DE000046844F001040460006800F001000590FC
:101DF0004FF400400090CDE90121CDE9031369467D
:101E00000348E9E730380240000400400004024083
:101E10000000024070B5044690F83C000D460128D1
:101E20000DD0012684F83C60022084F83D0042B1C8
:101E3000042A18D0082A2AD00C2A4DD139E00220D1
:101E400070BD206801F0BEFA2068816941F0080188
:101E500081612068816921F00401816120688169C4
:101E60002A69114311E0206801F0DCFA20688169D9
:101E700041F4006181612068816921F480618161A0
:101E8000206881692A6941EA0221816124E0206891
:101E900001F0FEFA2068C16941F00801C1612068C3
:101EA000C16921F00401C1612068C1692A69114337
:101EB00011E0206801F020FB2068C16941F4006155
:101EC000C1612068C16921F48061C1612068C16974
:101ED0002A6941EA0221C16184F83D60002084F84A
:101EE0003C0070BD10B5040003D094F83D0010B163
:101EF00007E0012010BD002084F83C00204600F0DF
:101F00000DF8022084F83D00211D206801F0E4F95D
:101F1000012084F83D00002010BD000008B50068D5
:101F2000B0F1804F08D10548016841F0010101601E
:101F3000006800F00100009008BD00004038024039
:101F40007047000070B5026804461068D168536994
:101F500010F00F0F50D003F0010501F490763543D7
:101F60005DD0C20705D0CA0503D5E26B42F001027D
:101F7000E263420705D5DA0703D0E26B42F00202C2
:101F8000E263820705D5DA0703D0E26B42F0040270
:101F9000E263020705D5DA0703D0E26B42F00802DC
:101FA000E263E26B002A33D0800604D5880602D5AE
:101FB000204601F002FB20684069E16BC0F380100D
:101FC000090700D428B3204601F0E9FA20684169E6
:101FD00049061AD5416921F040014161606BA0B109
:101FE0001B490165606BFEF7C5FB002810D0606BD4
:101FF000016DBDE870400847830610D58B060ED5ED
:102000002046BDE8704001F0D8BA2046FFF798FF9F
:1020100070BD2046FFF794FF0020E06370BD03060B
:1020200006D50B0604D52046BDE8704001F066BC1D
:102030004006F3D54806F1D5D168204621F040018D
:10204000D160202184F8391000F052F970BD0000F1
:102050008F35000870B5040004D094F839000025CD
:1020600010B106E0012070BD84F83850204600F021
:1020700023F8242084F839002068C16821F4005135
:10208000C160204601F0E4FA2068016921F4904122
:1020900001612068416921F02A0141612068C1681D
:1020A00041F40051C160E563202084F8390084F8D0
:1020B0003A00002070BD0000F0B587B0044614213E
:1020C0006846FEF7B5F82948274F2668274914388F
:1020D000C022022301240325BE421FD10E6846F010
:1020E00010060E60096801F010010591016841F0C9
:1020F000020101600068694600F0020005900720B7
:10210000CDE903508DE81C001948FEF793FC00222E
:1021100011462520FEF7F0FE252021E0154FBE4296
:1021200020D10E6846F020060E60096801F02001FB
:102130000591016841F0040101600068694600F002
:10214000040005900820CDE903508DE81C000A48E2
:10215000FEF770FC002211464720FEF7CDFE472017
:10216000FEF7BCFE07B0F0BD00100140443802404D
:102170000004024000140140000802402DE9F84329
:10218000044690F83A00994616460D4620284FD14D
:1021900095B18EB194F83800012849D0012084F817
:1021A00038000027E763222084F83A00FEF72CFD70
:1021B000A6858046E68531E00120BDE8F883E08D04
:1021C000401EE085A0684346B0F5805F4FF00002F6
:1021D0004FF020012046CDF8009004D001F0BFFB65
:1021E00098B10320E9E701F0BAFB0028F9D1206992
:1021F00000282068406803D0C1B225F8011B0DE01B
:10220000C0F3080125F8021B08E0206900282068B7
:10221000406801D000F07F0005F8010BE08D002838
:10222000CDD1202084F83A0084F838700020C4E72B
:102230000220C2E770472DE9F843044690F83900C0
:102240001F4616460D46202850D1A5B19EB194F8E0
:10225000380001284AD0012084F838004FF00008E7
:10226000C4F83C80212084F83900FEF7CDFCA68418
:102270008146E68426E00120BDE8F883E08C401E1C
:10228000E084A0684B46B0F5805F4FF000024FF04D
:1022900080012046009703D001F061FBE8B90DE012
:1022A00001F05DFBC8B928882168C0F308004860C8
:1022B000206908B16D1C05E0AD1C03E0216815F82C
:1022C000010B4860E08C0028D8D14B460022402109
:1022D0002046009701F043FB08B10320CCE7202003
:1022E00084F8390084F838800020C5E70220C3E76D
:1022F0007047022001F064FCFEE700007FB5002477
:1023000015480094019402941249039401604FF41B
:102310008031C0E901140461047680F820400F493F
:10232000C0E90A140125C561C46080F830404561E8
:10233000FEF7AEF908B1FEF703F90095CDE90154B7
:1023400069460548FEF7FEF8002801D0FEF7F8F8C8
:102350007FBD000000200140F40E00200100000FAE
:102360007FB5002415480094019402941249039407
:1023700001604FF48031C0E901140461047680F8F3
:1023800020400F49C0E90A140125C561C46080F8E6
:1023900030404561FEF77CF908B1FEF7D1F8CDE990
:1023A0000045694605480294FEF7CCF8002801D0A4
:1023B000FEF7C6F87FBD0000002201403C0F002060
:1023C0000100000F0D4808B5016841F4800101606B
:1023D0000068002200F48000009011463820FEF7CB
:1023E0008BFD3820FEF77AFD002211463B20FEF7D8
:1023F00083FDBDE808403B20FEF770BD3038024049
:102400002DE9F04F87B014216846FDF711FF5D48B4
:102410000024016841F080010160016801F0800141
:102420000591016841F001010160016801F00101BD
:102430000591016841F004010160016801F00401A7
:102440000591016841F002010160016801F002019B
:102450000591016841F008010160016801F008017F
:102460000591016841F0400101600068DFF81881C2
:1024700000F040000590012220214046FEF7BEFBFF
:10248000002210214046FEF7B9FBDFF80091002240
:1024900041F202014846FEF7B1FB01220421484601
:1024A000FEF7ACFBDFF8E8A04FF44E760022314691
:1024B0005046FEF7A3FB0122DFF8D8B0D703394618
:1024C0005846FEF79BFB142000903348CDE90104E9
:1024D00069463248FEF7AEFA302000900125CDE97A
:1024E0000154694640460394FEF7A4FA41F20600FF
:1024F0000090CDE90154694648460394FEF79AFAE4
:102500000096CDE90154694650460394FEF792FACD
:102510004FF472508DE8310069465046FEF78AFA52
:102520004FF40F708DE8310069465846FEF782FA85
:1025300040208DE8310069465046FEF77BFA00974F
:10254000CDE90154694658460394FEF773FA002218
:1025500011460820FEF7D0FC0820FEF7BFFC002241
:1025600011460A20FEF7C8FC0A20FEF7B7FC00223D
:1025700011462820FEF7C0FC2820FEF7AFFC07B06C
:10258000BDE8F08F303802400008024000040240ED
:10259000000C024000180240000031100000024010
:1025A0000D4810B50B4901600C49416000214FF402
:1025B00080428160C0E9031241618161C1610162B1
:1025C000FEF728FB002803D0BDE81040FDF7B8BF98
:1025D00010BD000000540040840F0020A0860100C0
:1025E0000D4810B50B4901600C49416000214FF4C2
:1025F00080428160C0E9031241618161C161016271
:10260000FEF708FB002803D0BDE81040FDF798BF97
:1026100010BD000000580040D80F0020A086010027
:102620000E4810B50C490160002141608160C16015
:10263000016141618161FFF730F808B1FDF780FF6A
:102640004FF400610548FEF7FFFE002803D0BDE807
:102650001040FDF775BF10BD002C01402C1000206C
:102660000F4810B50D4901604FF48271416000219F
:102670008160C1604FF400720161C0E90512C1615F
:102680000162416281620A21C162FFF717F90028E5
:1026900003D0BDE81040FDF753BF10BD003001402E
:1026A000B01000200F4810B50D4901604FF4827141
:1026B000416000218160C1604FF400720161C0E996
:1026C0000512C1610162416281620A21C162FFF7A4
:1026D000F5F8002803D0BDE81040FDF731BF10BD6C
:1026E00000380040081100200F4810B50D49016066
:1026F0004FF48271416000218160C1604FF400722B
:102700000161C0E90512C1610162416281620A2171
:10271000C162FFF7D3F8002803D0BDE81040FDF7F1
:102720000FBF10BD003C00406011002010B58AB002
:10273000002407941C2168460894FDF779FD14488D
:102740004FF08041C0E900148460C460046184617A
:10275000FFF7C8FB08B1FDF7F3FE079407A90C4883
:102760000894FFF75BFA08B1FDF7EAFE6020CDE9B7
:10277000000402940022694605480494FFF74AFBCE
:1027800008B1FDF7DDFE0248FFF704FB0AB010BDFB
:102790007812002010B58EB0002407940894099494
:1027A0000A940B941C2168460C94FDF741FD1D48CA
:1027B0001B49C0E900148460C46004618461FFF7B0
:1027C0004EFA08B1FDF7BCFE4FF48050079007A900
:1027D0001448FFF773FA08B1FDF7B2FE1148FFF78E
:1027E00081FB08B1FDF7ACFE0B940BA90D480C94CE
:1027F000FFF714FA08B1FDF7A3FE6020CDE900044D
:1028000002940822694607480494FFF703FB08B1C5
:10281000FDF796FE0348FFF7BDFA0EB010BD0000AD
:1028200000040040B81200200C4810B50A490160AD
:102830004FF4E1314160002181600C22C160C0E9A8
:1028400004128161C161FFF705FC002803D0BDE8D7
:102850001040FDF775BE10BD00100140F8120020B9
:102860000C4810B50A4901604FF4E1314160002184
:1028700081600C22C160C0E904128161C161FFF76F
:10288000E9FB002803D0BDE81040FDF759BE10BD9C
:102890000014014038130020FEE7704710B50421F2
:1028A0000248FEF79FF90249087010BD000002407F
:1028B000E000002010B504210248FEF793F9024918
:1028C000087010BD00000240E000002070470A6858
:1028D00042624A688262D1E902231A43D1E9043193
:1028E0000B43C16A1A4321F0F7011143C162002072
:1028F0007047006800F00300704708B508441430C2
:102900000090006808BD70B50DF1100C11439CE8F3
:1029100070002343194329434268314347F6FF635C
:102920009A430A434260002070BD032101600020E9
:102930007047D0F8800070470A688260D1E90123AF
:102940001A43D1E903310B43C1681A436FF30B01FA
:102950001143C1600020704710B586B0044637208F
:10296000CDE9001040200290002003904FF48060D9
:10297000049069462046FFF7DFFF41F28832372195
:10298000204600F021F906B010BD000010B5044645
:102990000A4886B001432920CDE90010402002906A
:1029A000002003904FF48060049069462046FFF7B2
:1029B000C3FF204600F0BEF906B010BD0000108035
:1029C00010B586B004461020CDE9001040200290DA
:1029D000002003904FF48060049069462046FFF782
:1029E000ABFF41F288321021204600F0EDF806B02E
:1029F00010BD10B586B004460620CDE90010402079
:102A00000290002003904FF48060049069462046B5
:102A1000FFF792FF41F288320621204600F0D4F8F9
:102A200006B010BD30B585B0002405460094019471
:102A30004FF480600294CDE9034069462846FFF7D1
:102A40007BFF0B484FF4FA510068B0FBF1F041F204
:102A500088314843401E03D24FF0004005B030BDDE
:102A6000696B0906F6D540F2FF50A8632046F5E7EA
:102A70001000002070B585B004464FF4D57000906A
:102A800008204026CDE901060025C001CDE903500C
:102A900069462046FFF750FF0F484FF4FA5100688F
:102AA000B0FBF1F041F288314843401E02D24FF0B2
:102AB00000450DE0616B11F0450FF6D0606B4007EB
:102AC00002D5A663042503E0606B400600D5A6632B
:102AD00005B0284670BD00001000002010B586B07B
:102AE00004460720CDE900204020029000200390FA
:102AF0004FF48060049069462046FFF71DFF41F2C5
:102B000088320721204600F05FF806B010BD10B5EE
:102B100086B0044600210220CDE90010C020CDE996
:102B200002014FF48060049069462046FFF704FFDD
:102B3000204600F0D7F806B010BD10B586B00446A8
:102B40000920CDE90010C0200290002003904FF42E
:102B50008060049069462046FFF7EEFE204600F0B4
:102B6000C1F806B010BD10B586B004460021332070
:102B7000CDE900104020CDE9020100010490694632
:102B80002046FFF7D9FE41F288323321204600F07B
:102B90001BF806B010BD30B585B00C4605460021C7
:102BA0000320CDE900104020CDE90201000104908E
:102BB00069462846FFF7C0FE22460321284600F05A
:102BC000D9F805B030BD0000444B10B51B684FF478
:102BD000FA54B3FBF4F353435B1E02D24FF00040B0
:102BE00010BD426B12F0450FF6D0426B520703D571
:102BF00004218163084610BD426BD20702D0012137
:102C0000816303E00269D2B28A4201D0012010BD83
:102C100040F2FF5181630021FFF76FFE3049084207
:102C200001D1002010BD002802DA4FF0007010BD65
:102C3000410001D5402010BD810001D5802010BD8C
:102C4000C10002D54FF4807010BD010102D54FF4D0
:102C5000007010BD410102D54FF4806010BDC1016C
:102C600002D54FF4006010BD010202D54FF4805030
:102C700010BD410202D54FF4005010BD810202D5B3
:102C80004FF4804010BDC10202D54FF4004010BD8A
:102C9000410302D54FF4003010BD810302D54FF43B
:102CA000802010BDC10302D54FF4002010BD0104E7
:102CB00002D54FF4801010BD410402D54FF400102E
:102CC00010BD810402D54FF4800010BD000702D56D
:102CD0004FF4000010BD4FF4803010BD10000020F4
:102CE00008E0FFFD12494FF4FA520968B1FBF2F116
:102CF00041F288325143491E02D24FF000407047E2
:102D0000426B12F0450FF6D0416B490703D5042101
:102D1000816308467047416BC90703D00121816375
:102D20000846704740F2FF51816300207047000061
:102D3000100000200E494FF4FA520968B1FBF2F17D
:102D400041F288325143491E02D24FF00040704791
:102D5000426B12F0450FF6D0416B490703D50421B1
:102D600081630846704740F2FF518163002070473D
:102D7000100000201F4B10B51B684FF4FA54B3FB32
:102D8000F4F341F2883463435B1E02D24FF00040FB
:102D900010BD446B14F0450FF6D0436B5B0703D5B1
:102DA00004218163084610BD436BDB0702D001217B
:102DB000816303E00369DBB28B4201D0012010BDC7
:102DC00040F2FF5181630021FFF797FD10F4604F3F
:102DD00004D0410406D54FF4005010BD000C108003
:102DE000002010BD000402D54FF4805010BD4FF4F8
:102DF000803010BD100000202DE9F04F89B00E4644
:102E00000446FDF701FF00258346009501952F46F6
:102E100008212068FFF7D4FD002834D1B4F8500011
:102E200001042068FFF798FD00282CD1401E4FF0C8
:102E30000808CDE9020830204FF00209CDE9040965
:102E40000120CDE9067002A92068FFF740FD206847
:102E5000FFF789FE002816D1EA4640F22A4720688B
:102E6000416B394212D1416B890204D5FFF761FDF4
:102E70004AF825006D1CFDF7C7FEA0EB0B00401CB7
:102E8000EDD14FF0004009B0BDE8F08F416B09076C
:102E900003D5C0F838800820F5E7416B890703D5D2
:102EA000C0F838900220EEE7416B890603D5202157
:102EB00081630846E7E740F2FF518163009800BA5A
:102EC0007060019800BA30600020DCE710B590B067
:102ED00004460120ADF838002068FFF70AFD0028FD
:102EE00064D0606C032842D02068FFF710FE0028F1
:102EF0005AD100212068FFF700FD60670421206897
:102F0000FFF7FBFCA06708212068FFF7F6FCE067ED
:102F10000C212068FFF7F1FCC4F88000606C0328E6
:102F200025D00EA92068FFF736FE00283CD1606C42
:102F300003281CD0BDF83800206501042068FFF785
:102F4000FCFD002830D100212068FFF7D6FC606628
:102F500004212068FFF7D1FCA06608212068FFF754
:102F6000CCFCE0660C212068FFF7C7FC2067042139
:102F70002068FFF7C2FC000DE06403A92046FEF7BD
:102F80009FFAB4F85000002302042068FFF7A6FD62
:102F9000002809D104F1100007C88DE8070094E863
:102FA0000F00FFF7B0FC002010B010BD4FF08060A4
:102FB000FAE72DE9F8430025044600950068FFF77D
:102FC00031FD00281AD12068FFF754FD4FF08078BA
:102FD0004FF6FF76D8B14FF08057A5640098411C9A
:102FE0000091B0421AD000212068FFF7B5FC20B94B
:102FF00000212068FFF7CAFC10B13846BDE8F8830D
:1030000000212068FFF779FCC00FE7D01FE00127FF
:10301000A7640098411C0091B04201D14046EDE701
:1030200000212068FFF798FC0028E7D14FF080418D
:103030002068FFF7ABFC0028E0D100212068FFF7F3
:103040005CFCC10FE5D0400001D5676400E0656419
:103050000020D3E71CB50446002000900190002119
:103060002068FFF74AFC800102D54FF400601CBDC8
:1030700069462046FFF7C0FE0028F8D10198C0033A
:103080000CD5B4F8500001042068FFF765FC002857
:10309000EDD100212068FFF7ACFC1CBD4FF0806033
:1030A0001CBD1CB504460020009001900021206842
:1030B000FFF723FC800102D54FF400601CBD694678
:1030C0002046FFF799FE0028F8D1019840030CD55F
:1030D000B4F8500001042068FFF73EFC0028EDD151
:1030E00002212068FFF785FC1CBD4FF080601CBDED
:1030F0000148FEF765BB0000B010002010B5806BE2
:103100000021C187C186FEF757FB10BD38B50446C4
:103110001248134B0068B0FBF3F04FF47A73584336
:1031200000906068B0F5827F0DD10B4600920022BE
:103130008021204600F016F870B1606D40F020004C
:103140006065032038BD009830B1401E00902068B3
:103150008068C0430006F6D5002038BD100000206E
:1031600000366E012DE9F0411D4617460E46044615
:10317000DDF8188008E0681C06D0FDF745FDA0EBDF
:103180000800A8420BD255B12068806836EA0000DA
:1031900030D00020B842EED10020BDE8F081206898
:1031A000416821F0E00141606068B0F5827F0BD199
:1031B000A068B0F5004F02D0B0F5806F04D1206850
:1031C000016821F040010160A06AB0F5005F09D1FB
:1031D0002068016821F4005101602068016841F411
:1031E00000510160012084F85100002084F8500053
:1031F0000320D2E70120CDE77047FDF715BE0000A0
:1032000030B593B030216846FDF712F814210CA8B0
:10321000FDF70EF819480025016841F08051016062
:10322000006800F0805011901548016841F4804119
:1032300001600068022400F4804011900120009099
:10324000000401908001CDE9064004200890A820E8
:10325000CDE9090407200B906846FDF767FF0CA92C
:103260000F2081E831004FF4A0500F90E002109041
:1032700005210CA8FDF772FE13B030BD40380240A6
:10328000007000401048016841F4700101600F486F
:10329000016841F0010101600C4A0021083211600F
:1032A00002680B4B1A400260031D0A4A1A6002684A
:1032B00022F48022026005480C3001600249580661
:1032C000803908607047000088ED00E00038024057
:1032D000FFFFF6FE10300024F0B50268254C264DA5
:1032E000264E274F274B4FF0804CA04209D0604517
:1032F00007D0A84205D0B04203D0B84201D09842CE
:1033000004D122F0700E4A6842EA0E02A0421BD09D
:10331000604519D0A84217D0B04215D0B84213D09A
:10332000984211D0184DA8420ED0184DA8420BD08B
:10333000174DA84208D0174DA84205D0164DA842F7
:1033400002D0164DA84203D122F44075CA682A4320
:103350004D6922F080022A4302608A68C2620A68CC
:103360008262A04201D0984201D109690163012122
:103370004161F0BD00000140000400400008004031
:10338000000C0040000401400040014000440140A6
:103390000048014000180040001C00400020004090
:1033A00010B5846842EA032224F47F440A4322438E
:1033B000826010BD826822F070020A4342F0070169
:1033C00081607047F0B5026A22F001020262036A6E
:1033D00042688469124E24F073050C682C4323F074
:1033E00002058B682B430D4DA84201D0B04205D198
:1033F00023F00807CB683B4323F00403A84201D025
:10340000B04205D14D6922F4407215438A692A43BE
:1034100042608461496841630362F0BD000001407D
:1034200000040140F0B5026A22F010020262026A52
:10343000436884690D6824F4E64444EA05248D68F1
:1034400022F0200242EA05120F4D104EA84201D090
:10345000B04206D1CF6822F0800242EA071222F081
:103460004002A84201D0B04207D14D6923F4406325
:1034700043EA85038D6943EA8503436084614968B3
:1034800081630262F0BD00000000014000040140C1
:10349000F0B5026A22F480720262026A4368C4696B
:1034A00022F4007224F073050C68124E2C438D68D0
:1034B00042EA05220E4DA84201D0B04206D1CF68A3
:1034C00022F4006242EA072222F48062A84201D07C
:1034D000B04207D14D6923F4405343EA05138D6987
:1034E00043EA05134360C4614968C1630262F0BDE9
:1034F000000001400004014030B5026A22F480520D
:103500000262046A4268C3690D6823F4E64343EA31
:1035100005238D6824F4005444EA0534084DA8427C
:1035200002D0084DA84204D14D6922F4804242EAFB
:1035300085124260C36149680164046230BD0000C5
:10354000000001400004014010B5036A046A24F041
:1035500001040462846924F0F00444EA021423F0B4
:103560000A020A438461026210BD10B5036A23F0A7
:10357000100303628369046A23F4704343EA02324E
:1035800024F0A00343EA01118261016210BD10B56D
:10359000806B0021C185C184FEF7D2FC10BD01689B
:1035A000CA6822F49072CA6001684A6922F0010276
:1035B0004A61202180F83A10704710B590F83A100F
:1035C000222901D0022010BD8168B1F5805F11D0A1
:1035D0000169002901681FD0496801F07F03816AF1
:1035E0004A1C82620B70C18D491E0904090CC185F9
:1035F00018D02BE00269816A002A0268526805D05F
:10360000D2B20A80816A491C8162ECE7C2F30802E7
:103610000A80816A891CF7E74A68816A4B1C8362C9
:103620000A70E0E70168CA6822F02002CA600168F7
:10363000CA6822F48072CA6001684A6922F00102F5
:103640004A61202180F83A10FEF7F4FD002010BDF9
:103650002DE9F041044600680169E26821F4405117
:10366000114301612169A068E2690843616911435E
:1036700022680843D16849F20C6399430143D16041
:1036800020684169A26921F4407111434161E269F6
:103690006425B2F5004F9748974922684FF03208E9
:1036A0003FD08A4201D082427CD1FDF7FFFC00EB83
:1036B000C00101EB001061688900B0FBF1F6FDF775
:1036C000F5FC00EBC00101EB001061688900B0FB64
:1036D000F1F0B0FBF5F06FF01801484306EB800104
:1036E00008EB0110B0FBF5F000F0F006FDF7DEFC92
:1036F00000EBC00101EB001061688900B0FBF1F044
:10370000B0FBF5F006EB0016FDF7D0FC00EBC001B6
:1037100001EB001061688900B0FBF1F7FDF7C6FC12
:10372000D2E08A4201D082423DD1FDF7BFFC00EBDE
:10373000C00101EB001061684900B0FBF1F0B0FB83
:10374000F5F00601FDF7B2FC00EBC00101EB001043
:1037500061684900B0FBF1F7FDF7A8FC00EBC00180
:1037600001EB001061684900B0FBF1F0B0FBF5F02F
:103770006FF01801484307EB800108EBC100B0FB74
:10378000F5F000F0F80006EB4006FDF78FFC00EBCB
:10379000C00101EB001061684900B0FBF1F7FDF7D3
:1037A00085FC3CE055E0FDF771FC00EBC00101EB4E
:1037B000001061684900B0FBF1F0B0FBF5F00601C4
:1037C000FDF764FC00EBC00101EB001061684900EB
:1037D000B0FBF1F7FDF75AFC00EBC00101EB001064
:1037E00061684900B0FBF1F0B0FBF5F06FF0180133
:1037F000484307EB800108EBC100B0FBF5F000F097
:10380000F80006EB4006FDF741FC00EBC00101EBC0
:10381000001061684900B0FBF1F7FDF737FC00EBE1
:10382000C00101EB001061684900B0FBF1F0B0FB92
:10383000F5F06FF01801484307EB800108EBC10079
:10384000B0FBF5F000F00700216830448860BDE867
:10385000F081FDF71BFC00EBC00101EB001061687B
:103860008900B0FBF1F6FDF711FC00EBC00101EBA4
:10387000001061688900B0FBF1F0B0FBF5F06FF06B
:103880001801484306EB800108EB0110B0FBF5F08E
:1038900000F0F006FDF7FAFB00EBC00101EB0010B1
:1038A00061688900B0FBF1F0B0FBF5F006EB0016A3
:1038B000FDF7ECFB00EBC00101EB00106168890033
:1038C000B0FBF1F7FDF7E2FB00EBC00101EB0010EC
:1038D00061688900B0FBF1F0B0FBF5F06FF0180102
:1038E000484307EB800108EB0110B0FBF5F000F056
:1038F0000F00A9E7001401400010014090F83910B2
:10390000212901D0022070478168B1F5805F016AEA
:103910000BD04A1C0262026809785160C18C491EB2
:103920000904090CC1840ED017E009880268C1F3AC
:103930000801516001690029016A02D0491C016235
:10394000ECE7891CFBE70168CA6822F08002CA60C4
:103950000068C16841F04001C160002070472DE956
:10396000F041984617460E460446069D1DE0681C29
:103970001BD02DB1FDF748F9A0EB0800A84214D9DF
:103980002068C16821F4D071C1602068416921F0CC
:1039900001014161202084F8390084F83A000020B8
:1039A00084F838000320BDE8F0812068006836EA1A
:1039B000000004D00020B842D9D00020F3E7012055
:1039C000F9E700000148FEF7BDBA0000F812002038
:1039D000FEE70907090E002804DB00F1E02080F86B
:1039E0000014704700F00F0000F1E02080F8141D73
:1039F000704702E008C8121F08C1002AFAD17047B8
:103A00007047002001E001C1121F002AFBD170475E
:103A10002DE9F041FDF7F8F8DFF880800646D8F888
:103A20000010401A322837D3002508F10407284631
:103A300000F07CF8002805EBC50007EB8004A068C7
:103A40001DD018B9A16909B1884714E0E16991B1A5
:103A5000E26890420FD9236953B994F814C0BCF1BD
:103A6000000F05D0801AB0FBF3F203FB120010B96F
:103A7000884701202075A068401CA06006E010B1B6
:103A8000206A00B180470020A06020756D1CEDB257
:103A9000032DCCD3C8F80060BDE8F08148000020B9
:103AA0002DE9F0411B4CDFF8708020780D281DD0E7
:103AB000012098F8001004E0225C0D2A03D0401C7D
:103AC000C0B28842F8D3091ACAB2161A114BF5B21D
:103AD000002104E00F18DF5D5F54491CC9B2A94200
:103AE000F8D3311964230D48FEF748FB6078542859
:103AF0000DD16279002141EA0261227941EA024155
:103B0000E27841EA0221A2780A43C8F80420BDE81D
:103B1000F081000078130020B80000203813002046
:103B20000148406870470000B800002000EBC00268
:103B3000064810B500EB820150F822008988FDF795
:103B400051F808B1002010BD012010BD4C0000202C
:103B50003FB5002903DA49422D2200F8012B002449
:103B60000094019402940A230DF10102CDF80C4057
:103B700091FBF3F503FB151591FBF3F1303502F8DA
:103B8000015B0029F4D100BF12F8011D11B100F84A
:103B9000011BF9E7047004B030BD0000024A02EBDB
:103BA00000108160704700001800002003490022C7
:103BB00001EB001081880068FDF720B81800002094
:103BC0000349012201EB001081880068FDF716B857
:103BD00018000020034901EB001081880068FDF700
:103BE00006B80000180000202DE9F041FDF70CF8A0
:103BF0000F4F05463868281A322816D3002407F1DB
:103C0000040800BF08EB0416B06838B1F168691AFF
:103C1000814203D32046FFF7DDFFF560641CE4B268
:103C2000032CEFD3FCF7F0FF3860BDE8F081000013
:103C30001400002086B0FDF7FFF8FFF7E1FAFEF769
:103C4000DFFBFEF7EDFCFEF70BFDFEF72BFDFEF7AD
:103C5000EBFDFEF753FBFEF783FBFEF7A1FCFEF73F
:103C6000BFFCFEF741FDFEF761FDFEF793FDFEF799
:103C7000F7FDFEF7A7FB4FF4FA710020FFF78EFF68
:103C8000FEF70CFE4FF4FC6000904FF478434FF6C3
:103C9000FF720021012000F075FA1F49002000F09A
:103CA00079F91E4CFCF7B0FF2168401A32282DD359
:103CB000FCF7AAFF6421B0FBF1F00A21B0FBF1F29E
:103CC00001FB12020021084600F022FBFFF728FF4B
:103CD000034613A20121002000F02BFB11480DF137
:103CE000080CC1788579437902798CE82E008278B6
:103CF0004178CDE9001203780BA20221002000F0E8
:103D000018FB00F061FBFCF77FFF2060FFF76CFF02
:103D1000FFF77EFEC6E700004D3F000800000020D0
:103D200025640000781300202530325820253032D9
:103D3000582025303258202530325820253032582E
:103D40002025303258202530325800002DE9FF4719
:103D5000002591460C4606466127A84667E02528BF
:103D60005ED1002214F8010F1346002862D02528E6
:103D700056D02D2805D1012302E000BF43F00203F5
:103D8000641C20783028F9D006E000BF02EB8201E5
:103D9000490030394218641C2078A0F1300109290B
:103DA000F4D9C1B273290AD0642810D0782814D06D
:103DB00058281BD0752824D0632829D036E059F81C
:103DC000041B01B91DA1304600F086F80CE08DE817
:103DD0008C0059F8041B012318E08DE88C0048463C
:103DE00009E0304600F02EF805441FE04120009223
:103DF000CDE901304846002309F104091022016889
:103E0000EFE78DE88C0059F8041B00230A22E8E74D
:103E100019F8041B8DF80C108DF80D8003A9D2E75A
:103E2000316808703068401C6D1C3060641C20785C
:103E3000002894D104B02846BDE8F087286E756C40
:103E40006C2900002DE9FE430027DDE90A6CDDF84E
:103E500030903D46B84619B193B10A2A0CD00FE014
:103E600030218DF800108DF8018063463246694696
:103E700000F032F8BDE8FE830B1E01DA012759423B
:103E80008DF80B800DF10B040DE000BFB1FBF2F3D8
:103E900002FB13130A2B01DB4B443A3BB1FBF2F15B
:103EA000303304F8013D0029F0D177B12D2156B10E
:103EB0005FEA8C7207D502686D1C11700168491C9D
:103EC000761E016001E004F8011D6346324621467A
:103ED00000F002F82844CDE7F0B500252024002AA0
:103EE00011DD00270E4601E0761C7F1C96F800C00D
:103EF000BCF1000FF8D1974201DB002200E0D21B99
:103F00009E0700D53024DB0707D010E00668521E5C
:103F1000347003685B1C6D1C0360002AF6DC06E04D
:103F20000668491C337003685B1C6D1C03600B78CA
:103F3000002BF5D106E00168521E0C700168491C87
:103F40006D1C0160002AF6DC2846F0BD10B5022089
:103F5000FFF740FE0C485421642301700A21417090
:103F6000014602220948FEF766F964230722084940
:103F70000648FEF703F90449022008390870BDE835
:103F80001040FFF78DBD0000C00000203813002056
:103F900078130020034A00EBC00002EB800081612F
:103FA000704700004C00002070B51E4B00EB8000F5
:103FB000DA781B7902EBC20404EB02121A4C03EB11
:103FC000C30604EB421506EB031304EB431405EBA5
:103FD000800504EB80046D5C645CA5421DD1134C2C
:103FE00004EB821504EB831405EBC00504EBC0045D
:103FF00035F8115034F81140A5420ED10C4C04EBA9
:10400000821202EBC00204EB831303EBC00032F810
:10401000112030F81100824201D0012070BD002033
:1040200070BD0000E200002082130020C2190020B1
:104030004226002030B50024054D04E0204600F063
:1040400009F8641CE4B2A8788442F7D330BD0000BC
:10405000E20000202DE9F047154A164E174FD5789B
:10406000B2F80A90D388547805EBC50202EB05122A
:10407000114D00214FF0200A06EB421605EB821588
:1040800007EB821710E000BF01EB810206EB82080C
:10409000491C08F800A005EBC20807EBC20228F88B
:1040A000109022F81030C9B2A142EDD3BDE8F087DC
:1040B000E200002082130020C219002042260020C6
:1040C000F8B500F051F90024194D2BE0362807D03F
:1040D000FF2813D029194A78432A14D0002616E065
:1040E000144A13491278091F895C8DF8001000F0FA
:1040F00039FA0121684600F04DFA12E0E41C285D0F
:10410000FCF784FC0EE000F02DFA0AE0761CA21900
:104110002A445278432AF9D1B2B2491C00F050FA2D
:104120003444641C641C285D4228CFD1F8BD0000D3
:1041300042460008E2000020F8B5054610484FF45A
:10414000A0720078C00701D0F02301E01346F022EE
:104150000021084600F026F92C2000F003FA002484
:104160002E0AEDB24FF496378DF800608DF80150AD
:104170000221684600F00EFA641CBC42F4D3F8BD7C
:10418000E20000202DE9F05F1D4C0026DDF828B08C
:10419000E6700127277199469246884605462070A9
:1041A000FFF78EFFA4F80680A4F80AA0A4F80C90EC
:1041B000A4F808B04046FFF7BFFFE807002802D088
:1041C0004FF0280001E04FF01E00607003D000BFE8
:1041D0004FF00F0001E04FF01400A07002D04FF438
:1041E000A07001E04FF0F000E081FFF723FFE770DF
:1041F000FFF720FFE670BDE8F05F00F0E5B80000D3
:10420000E20000202DE9FF4F3D4B00252C46DE88C3
:1042100002965E890196A9465E789F7893F803A07E
:10422000B3F80CE0B3F808B060E05D2B2CD006DCEE
:104230000A2B26D00D2B24D05B2B06D124E07B2B20
:1042400028D07C2B2CD07D2B24D05FEA090C01D008
:104250004FF0800C43EA0C030AEBCA0808EB0A1C77
:10426000DFF8A080CDF800C008EB4C1800EB800C04
:10427000CDF80CC008EB8C0C0CF80130C5B1F4463D
:1042800018E0491CC9B230E05B2B01D000252CE0BE
:1042900001252AE07B2B01D0002426E0012424E024
:1042A000B9F1000F02D0002399461EE00123FBE77D
:1042B000DDF804C0DFF85080009B08EB8318039BF7
:1042C00008EBC30323F811C00CB1DC4601E0DDF8B4
:1042D00008C0DFF83880009B401C08EB8318039B64
:1042E000C0B208EBC30323F811C0521C1378002B93
:1042F00003D0B04201D2B94297D3BDE8FF8F00008E
:10430000E200002082130020C21900204226002073
:104310003EB5054600200C460090019002901146E3
:104320006846FFF715FC6A4621462846FFF76AFFF4
:104330003EBD0FB430B5C1B00C4605464FF4807198
:104340006846FBF775FFCDF800D147AA40A846990B
:10435000FFF7FCFC6A4621462846FFF753FF41B0B1
:1043600030BC5DF814FB000010B50D4C012210218B
:104370002046FCF743FC3220FCF748FB00221021CA
:104380002046FCF73BFC3220FCF740FB01221021C9
:104390002046FCF733FCBDE810403220FCF736BB6A
:1043A0000008024070B50C46194402448DB2014623
:1043B00092B22A2000F0C2F82A462146BDE8704099
:1043C0002B2000F0BBB800002DE9F84F0020064676
:1043D000009093E0002489E031462046FFF7E4FD99
:1043E00000287DD0012501E06D1CEDB279786019BF
:1043F000884206D2C0B23146FFF7D6FD08B1282D5B
:10440000F2D3002297F803E09046002142E000BF7B
:104410000EEBCE0303EB0E10424BDFF80CC103EBA7
:104420004017631803EB830307EB8307BF5D0CEBB7
:1044300007174744A7F5805797F8009E3B4F07EBB7
:10444000801707EBC30737F816B0394F07EB80101A
:1044500000EBC30007F54863009F30F816A007EB98
:104460008707082003EBC727401E29FA00F3DB0764
:1044700001D05B4600E053464FEA132C07F802C018
:10448000521C92B2BB54521C92B210F0FF00EBD1FE
:10449000491CC9B2A942BBD108F101081FFA88F82A
:1044A000B8F1100FB1D32348FDF787F90128FAD1ED
:1044B000801E00EBC50082B23101E0000F23FFF740
:1044C00071FF00982A0200EB80011B4800EBC1211C
:1044D0002C2000F075F8009880F00100009000E0BA
:1044E00002E06019401EC4B2641CE4B20E4F103FDB
:1044F00078788442FFF470AF761CF6B20A48103820
:1045000081788E42FFF466AFC17839B10021C17065
:10451000017929B100210171BDE8F88F0121F6E789
:104520000121F8E782130020F2000020C2190020C8
:1045300042260020B0100020C232002038B51446B8
:104540000D4600F00FF8280A8DF800008DF8015094
:10455000200A8DF802008DF803400421684600F01F
:1045600019F838BD31B508494FF400100860074C00
:104570000011206001231A4669460548FDF78CFAB0
:104580000220206038BD00001808024018040240D4
:10459000B0100020074B10B520221A60064C120301
:1045A00022600A46014601230448FDF775FA0220FD
:1045B000206010BD1808024018040240B01000200E
:1045C00070B514460D46FFF7CDFF21462846BDE8DD
:1045D0007040FFF7DFBF000010B510210948FCF75D
:1045E00001FB00284FF0010003D0BDE81040FFF7A9
:1045F000DDBAFFF7E5FA0321BDE81040084600F0F8
:104600000DB80000000002407047000002484188D9
:10461000491C418070470000C4000020704700061C
:104620001016000610160000000000000000010235
:1046300003040607080900000000010203044828DB
:1046400088E800CB392C00340243CF00C13043E866
:1046500085007843EA000043EA000043ED6403125A
:104660008143F72043C02343C11043C53E2843C7BD
:10467000864336433A5543B1001843B60882274370
:1046800011FF784329432C4342000000AC46000848
:1046900000000020F40E0000A8020008504B0008A3
:1046A000F40E0020D4770000023A00081200011234
:1046B0000104531000014324F40890060C02400842
:1046C00000011110D21010D32000011114031D405D
:1046D00000011124021E8024000727180240000256
:1046E00000012264B01204345204084208C00126BA
:1046F000441009183C3C3C1818180003214FC00511
:10470000666666246130056C6CFE6C04312E500BBD
:10471000187CC6C2C07C0686C67C31400B0000C235
:10472000C60C183060C68690300B386C6C3876DC5E
:10473000CCCCCC760FC40530303060033318300158
:1047400043180C301109310173183072A006663C11
:10475000FF3C66A373187E6D81149131031100FE36
:10476000D87132230206A056C079540B7CC6C6CE3F
:10477000D6D6E6C6C67C00300438781801627E20A2
:10478000412F73C6FE106006063C06060630100771
:104790000C1C3C6CCCFEB1521E7B8006C0C0C0FC21
:1047A0000E201338601073C6C66012FE4041F471CB
:1047B0008093C67C20210C127E60B30C78BA91F1F4
:1047C0005110652031CE1536B206FF8502311C210D
:1047D000247170960CE035015406DEDEDEDCC0008C
:1047E000200710386CC6C6FE91454B1AFC02127C9D
:1047F000044366FC4F10043C66C2E24005C0C2663A
:104800003C2023F86C1D540566666CF800B00A66FF
:1048100062687868606266FE1090046060F04040F4
:1048200006DEC6C6663A40251B316F5170463C7E97
:10483000531818603A1E0E194055101007E6666CA2
:104840006C78787542E68033F0600171709006C62E
:10485000EEFEFED6508007C6E6F6FEDECE6021DF15
:10486000256F936C38E08260A0358C7408C6C6D67C
:10487000DE7C0C0E0021E476E6B0740560380C0690
:10488000D0B0047E7E5AB062C601B27C1090046C37
:104890003810205FD6D6400321201D21031D25039B
:1048A00061B0254E923C502C04FEC6864F036AC26E
:1048B000804E3C2F03573030205C0A0080C0E070EF
:1048C000381C0E06E0034E3C3F0364040C0C3CCE47
:1048D0000D172B042EFF8F03021018187C04780C80
:1048E0007CB003240500E060606E7C046666DC5EDC
:1048F000031B7CC6E469E0121C6A836CCC3039521D
:1049000082FE209406386C6460F060116022762F7D
:104910003404CC7C0CD3116084046C7666601D7BFF
:1049200004AA38001C040606004E0321013A6673EF
:1049300011303A66015590DA383019132004ECFE34
:10494000D60171104ADCA291A09D700371207A7C7F
:104950000361A06DD303B004DC7662C02A7C026DD3
:1049600030042405103030FC8F73361C7031DF9515
:1049700010317F8E3CC103590181101901A5A8494E
:10498000336C047E060C53032ECC500559001E0ECA
:104990009B042270F47E0EF9042DAD056E187F0580
:1049A000211C21245718706DB6DCF3C101022F00C1
:1049B0000110067F4040405E041C074040474040D5
:1049C0007FDF0310050202027A040008FF0202E200
:1049D0000202FE000101BA01DEFF0008DEFF00084E
:1049E000DEFF0008DEFF0008DEFF0008DEFF000833
:1049F000DEFF0008DEFF0008DEFF0008DEFF000823
:104A0000DEFF0008DEFF0008DEFF0008DEFF000812
:104A1000DEFF0008DEFF0008DEFF0008DEFF000802
:104A2000DEFF0008DEFF0008DEFF0008DEFF0008F2
:104A3000DEFF0008DEFF0008DEFF0008DEFF0008E2
:104A4000C11065208D0008DEFF0008DEFF0008DED3
:104A5000FF0008DEFF0008DEFF0008DEFF0008DEC2
:104A6000FF0008DEFF0008DEFF0008DEFF0008DEB2
:104A7000FF0008DEFF0008DEFF0008DEFF0008DEA2
:104A8000FF0008DEFF0008DEFF0008DEFF0008DE92
:104A9000FF0008DEFF0008DEFF0008DEFF0008DE82
:104AA000FF0008DEFF0008DEFF0008DEFF0008DE72
:104AB000FF0008DEFF0008DEFF0008DEFF0008DE62
:104AC000FFF007DEFFF007DEFFF0070E1DFFF00727
:104AD000DEFFF007DEFFF007DEFFF007DEFFF00786
:104AE000DEFFF007DEFFF007DEFFF007DEFFF00776
:104AF000DEFFF007DEFFF007DEFFF007DEFFF00766
:104B0000DEFFF007DEFFF007DEFFF007C120DC0468
:104B10007C60FFF007DEFFF007DEFFF007DEFFF04E
:104B200007DEFFF007DEFFF007DEFFF007DEFFF035
:104B300007DEFFF007DEFFF007DEFFF007DEFFF025
:104B400007DEFFF007DEFFF0070E22FFF007000090
:040000050800018965
:00000001FF
